{
  "_format": "hh-sol-artifact-1",
  "contractName": "ERC4907",
  "sourceName": "contracts/ERC4907.sol",
  "abi": [
    {
      "inputs": [
        {
          "internalType": "string",
          "name": "name_",
          "type": "string"
        },
        {
          "internalType": "string",
          "name": "symbol_",
          "type": "string"
        }
      ],
      "stateMutability": "nonpayable",
      "type": "constructor"
    },
    {
      "inputs": [],
      "name": "InvalidShortString",
      "type": "error"
    },
    {
      "inputs": [
        {
          "internalType": "string",
          "name": "str",
          "type": "string"
        }
      ],
      "name": "StringTooLong",
      "type": "error"
    },
    {
      "anonymous": false,
      "inputs": [
        {
          "indexed": true,
          "internalType": "address",
          "name": "owner",
          "type": "address"
        },
        {
          "indexed": true,
          "internalType": "address",
          "name": "approved",
          "type": "address"
        },
        {
          "indexed": true,
          "internalType": "uint256",
          "name": "tokenId",
          "type": "uint256"
        }
      ],
      "name": "Approval",
      "type": "event"
    },
    {
      "anonymous": false,
      "inputs": [
        {
          "indexed": true,
          "internalType": "address",
          "name": "owner",
          "type": "address"
        },
        {
          "indexed": true,
          "internalType": "address",
          "name": "operator",
          "type": "address"
        },
        {
          "indexed": false,
          "internalType": "bool",
          "name": "approved",
          "type": "bool"
        }
      ],
      "name": "ApprovalForAll",
      "type": "event"
    },
    {
      "anonymous": false,
      "inputs": [
        {
          "indexed": false,
          "internalType": "uint256",
          "name": "_fromTokenId",
          "type": "uint256"
        },
        {
          "indexed": false,
          "internalType": "uint256",
          "name": "_toTokenId",
          "type": "uint256"
        }
      ],
      "name": "BatchMetadataUpdate",
      "type": "event"
    },
    {
      "anonymous": false,
      "inputs": [
        {
          "indexed": true,
          "internalType": "address",
          "name": "delegator",
          "type": "address"
        },
        {
          "indexed": true,
          "internalType": "address",
          "name": "fromDelegate",
          "type": "address"
        },
        {
          "indexed": true,
          "internalType": "address",
          "name": "toDelegate",
          "type": "address"
        }
      ],
      "name": "DelegateChanged",
      "type": "event"
    },
    {
      "anonymous": false,
      "inputs": [
        {
          "indexed": true,
          "internalType": "address",
          "name": "delegate",
          "type": "address"
        },
        {
          "indexed": false,
          "internalType": "uint256",
          "name": "previousBalance",
          "type": "uint256"
        },
        {
          "indexed": false,
          "internalType": "uint256",
          "name": "newBalance",
          "type": "uint256"
        }
      ],
      "name": "DelegateVotesChanged",
      "type": "event"
    },
    {
      "anonymous": false,
      "inputs": [],
      "name": "EIP712DomainChanged",
      "type": "event"
    },
    {
      "anonymous": false,
      "inputs": [
        {
          "indexed": false,
          "internalType": "uint256",
          "name": "_tokenId",
          "type": "uint256"
        }
      ],
      "name": "MetadataUpdate",
      "type": "event"
    },
    {
      "anonymous": false,
      "inputs": [
        {
          "indexed": true,
          "internalType": "address",
          "name": "from",
          "type": "address"
        },
        {
          "indexed": true,
          "internalType": "address",
          "name": "to",
          "type": "address"
        },
        {
          "indexed": true,
          "internalType": "uint256",
          "name": "tokenId",
          "type": "uint256"
        }
      ],
      "name": "Transfer",
      "type": "event"
    },
    {
      "anonymous": false,
      "inputs": [
        {
          "indexed": true,
          "internalType": "uint256",
          "name": "tokenId",
          "type": "uint256"
        },
        {
          "indexed": true,
          "internalType": "address",
          "name": "user",
          "type": "address"
        },
        {
          "indexed": false,
          "internalType": "uint64",
          "name": "expires",
          "type": "uint64"
        }
      ],
      "name": "UpdateUser",
      "type": "event"
    },
    {
      "inputs": [],
      "name": "CLOCK_MODE",
      "outputs": [
        {
          "internalType": "string",
          "name": "",
          "type": "string"
        }
      ],
      "stateMutability": "view",
      "type": "function"
    },
    {
      "inputs": [],
      "name": "DOMAIN_SEPARATOR",
      "outputs": [
        {
          "internalType": "bytes32",
          "name": "",
          "type": "bytes32"
        }
      ],
      "stateMutability": "view",
      "type": "function"
    },
    {
      "inputs": [
        {
          "internalType": "address",
          "name": "to",
          "type": "address"
        },
        {
          "internalType": "uint256",
          "name": "tokenId",
          "type": "uint256"
        }
      ],
      "name": "approve",
      "outputs": [],
      "stateMutability": "nonpayable",
      "type": "function"
    },
    {
      "inputs": [
        {
          "internalType": "address",
          "name": "owner",
          "type": "address"
        }
      ],
      "name": "balanceOf",
      "outputs": [
        {
          "internalType": "uint256",
          "name": "",
          "type": "uint256"
        }
      ],
      "stateMutability": "view",
      "type": "function"
    },
    {
      "inputs": [],
      "name": "clock",
      "outputs": [
        {
          "internalType": "uint48",
          "name": "",
          "type": "uint48"
        }
      ],
      "stateMutability": "view",
      "type": "function"
    },
    {
      "inputs": [
        {
          "internalType": "address",
          "name": "delegatee",
          "type": "address"
        }
      ],
      "name": "delegate",
      "outputs": [],
      "stateMutability": "nonpayable",
      "type": "function"
    },
    {
      "inputs": [
        {
          "internalType": "address",
          "name": "delegatee",
          "type": "address"
        },
        {
          "internalType": "uint256",
          "name": "nonce",
          "type": "uint256"
        },
        {
          "internalType": "uint256",
          "name": "expiry",
          "type": "uint256"
        },
        {
          "internalType": "uint8",
          "name": "v",
          "type": "uint8"
        },
        {
          "internalType": "bytes32",
          "name": "r",
          "type": "bytes32"
        },
        {
          "internalType": "bytes32",
          "name": "s",
          "type": "bytes32"
        }
      ],
      "name": "delegateBySig",
      "outputs": [],
      "stateMutability": "nonpayable",
      "type": "function"
    },
    {
      "inputs": [
        {
          "internalType": "address",
          "name": "account",
          "type": "address"
        }
      ],
      "name": "delegates",
      "outputs": [
        {
          "internalType": "address",
          "name": "",
          "type": "address"
        }
      ],
      "stateMutability": "view",
      "type": "function"
    },
    {
      "inputs": [],
      "name": "eip712Domain",
      "outputs": [
        {
          "internalType": "bytes1",
          "name": "fields",
          "type": "bytes1"
        },
        {
          "internalType": "string",
          "name": "name",
          "type": "string"
        },
        {
          "internalType": "string",
          "name": "version",
          "type": "string"
        },
        {
          "internalType": "uint256",
          "name": "chainId",
          "type": "uint256"
        },
        {
          "internalType": "address",
          "name": "verifyingContract",
          "type": "address"
        },
        {
          "internalType": "bytes32",
          "name": "salt",
          "type": "bytes32"
        },
        {
          "internalType": "uint256[]",
          "name": "extensions",
          "type": "uint256[]"
        }
      ],
      "stateMutability": "view",
      "type": "function"
    },
    {
      "inputs": [
        {
          "internalType": "uint256",
          "name": "tokenId",
          "type": "uint256"
        }
      ],
      "name": "getApproved",
      "outputs": [
        {
          "internalType": "address",
          "name": "",
          "type": "address"
        }
      ],
      "stateMutability": "view",
      "type": "function"
    },
    {
      "inputs": [
        {
          "internalType": "uint256",
          "name": "timepoint",
          "type": "uint256"
        }
      ],
      "name": "getPastTotalSupply",
      "outputs": [
        {
          "internalType": "uint256",
          "name": "",
          "type": "uint256"
        }
      ],
      "stateMutability": "view",
      "type": "function"
    },
    {
      "inputs": [
        {
          "internalType": "address",
          "name": "account",
          "type": "address"
        },
        {
          "internalType": "uint256",
          "name": "timepoint",
          "type": "uint256"
        }
      ],
      "name": "getPastVotes",
      "outputs": [
        {
          "internalType": "uint256",
          "name": "",
          "type": "uint256"
        }
      ],
      "stateMutability": "view",
      "type": "function"
    },
    {
      "inputs": [
        {
          "internalType": "address",
          "name": "account",
          "type": "address"
        }
      ],
      "name": "getVotes",
      "outputs": [
        {
          "internalType": "uint256",
          "name": "",
          "type": "uint256"
        }
      ],
      "stateMutability": "view",
      "type": "function"
    },
    {
      "inputs": [
        {
          "internalType": "address",
          "name": "owner",
          "type": "address"
        },
        {
          "internalType": "address",
          "name": "operator",
          "type": "address"
        }
      ],
      "name": "isApprovedForAll",
      "outputs": [
        {
          "internalType": "bool",
          "name": "",
          "type": "bool"
        }
      ],
      "stateMutability": "view",
      "type": "function"
    },
    {
      "inputs": [],
      "name": "name",
      "outputs": [
        {
          "internalType": "string",
          "name": "",
          "type": "string"
        }
      ],
      "stateMutability": "view",
      "type": "function"
    },
    {
      "inputs": [
        {
          "internalType": "address",
          "name": "owner",
          "type": "address"
        }
      ],
      "name": "nonces",
      "outputs": [
        {
          "internalType": "uint256",
          "name": "",
          "type": "uint256"
        }
      ],
      "stateMutability": "view",
      "type": "function"
    },
    {
      "inputs": [
        {
          "internalType": "uint256",
          "name": "tokenId",
          "type": "uint256"
        }
      ],
      "name": "ownerOf",
      "outputs": [
        {
          "internalType": "address",
          "name": "",
          "type": "address"
        }
      ],
      "stateMutability": "view",
      "type": "function"
    },
    {
      "inputs": [
        {
          "internalType": "address",
          "name": "from",
          "type": "address"
        },
        {
          "internalType": "address",
          "name": "to",
          "type": "address"
        },
        {
          "internalType": "uint256",
          "name": "tokenId",
          "type": "uint256"
        }
      ],
      "name": "safeTransferFrom",
      "outputs": [],
      "stateMutability": "nonpayable",
      "type": "function"
    },
    {
      "inputs": [
        {
          "internalType": "address",
          "name": "from",
          "type": "address"
        },
        {
          "internalType": "address",
          "name": "to",
          "type": "address"
        },
        {
          "internalType": "uint256",
          "name": "tokenId",
          "type": "uint256"
        },
        {
          "internalType": "bytes",
          "name": "data",
          "type": "bytes"
        }
      ],
      "name": "safeTransferFrom",
      "outputs": [],
      "stateMutability": "nonpayable",
      "type": "function"
    },
    {
      "inputs": [
        {
          "internalType": "address",
          "name": "operator",
          "type": "address"
        },
        {
          "internalType": "bool",
          "name": "approved",
          "type": "bool"
        }
      ],
      "name": "setApprovalForAll",
      "outputs": [],
      "stateMutability": "nonpayable",
      "type": "function"
    },
    {
      "inputs": [
        {
          "internalType": "uint256",
          "name": "tokenId",
          "type": "uint256"
        },
        {
          "internalType": "address",
          "name": "user",
          "type": "address"
        },
        {
          "internalType": "uint64",
          "name": "expires",
          "type": "uint64"
        }
      ],
      "name": "setUser",
      "outputs": [],
      "stateMutability": "nonpayable",
      "type": "function"
    },
    {
      "inputs": [
        {
          "internalType": "bytes4",
          "name": "interfaceId",
          "type": "bytes4"
        }
      ],
      "name": "supportsInterface",
      "outputs": [
        {
          "internalType": "bool",
          "name": "",
          "type": "bool"
        }
      ],
      "stateMutability": "view",
      "type": "function"
    },
    {
      "inputs": [],
      "name": "symbol",
      "outputs": [
        {
          "internalType": "string",
          "name": "",
          "type": "string"
        }
      ],
      "stateMutability": "view",
      "type": "function"
    },
    {
      "inputs": [
        {
          "internalType": "uint256",
          "name": "tokenId",
          "type": "uint256"
        }
      ],
      "name": "tokenURI",
      "outputs": [
        {
          "internalType": "string",
          "name": "",
          "type": "string"
        }
      ],
      "stateMutability": "view",
      "type": "function"
    },
    {
      "inputs": [
        {
          "internalType": "address",
          "name": "from",
          "type": "address"
        },
        {
          "internalType": "address",
          "name": "to",
          "type": "address"
        },
        {
          "internalType": "uint256",
          "name": "tokenId",
          "type": "uint256"
        }
      ],
      "name": "transferFrom",
      "outputs": [],
      "stateMutability": "nonpayable",
      "type": "function"
    },
    {
      "inputs": [
        {
          "internalType": "uint256",
          "name": "tokenId",
          "type": "uint256"
        }
      ],
      "name": "userExpires",
      "outputs": [
        {
          "internalType": "uint256",
          "name": "",
          "type": "uint256"
        }
      ],
      "stateMutability": "view",
      "type": "function"
    },
    {
      "inputs": [
        {
          "internalType": "uint256",
          "name": "tokenId",
          "type": "uint256"
        }
      ],
      "name": "userOf",
      "outputs": [
        {
          "internalType": "address",
          "name": "",
          "type": "address"
        }
      ],
      "stateMutability": "view",
      "type": "function"
    }
  ],
  "bytecode": "0x61016060405234801561001157600080fd5b50604051612e82380380612e828339810160408190526100309161025f565b6040805180820190915260018152603160f81b60208201528290818360006100588382610351565b5060016100658282610351565b5061007591508390506007610122565b61012052610084816008610122565b61014052815160208084019190912060e052815190820120610100524660a05261011160e05161010051604080517f8b73c3c69bb8fe3d512ecc4cf759cc79239f7b179b0ffacaa9a75d522b39400f60208201529081019290925260608201524660808201523060a082015260009060c00160405160208183030381529060405280519060200120905090565b60805250503060c052506104669050565b600060208351101561013e5761013783610155565b905061014f565b816101498482610351565b5060ff90505b92915050565b600080829050601f81511115610189578260405163305a27a960e01b8152600401610180919061040f565b60405180910390fd5b805161019482610442565b179392505050565b634e487b7160e01b600052604160045260246000fd5b60005b838110156101cd5781810151838201526020016101b5565b50506000910152565b600082601f8301126101e757600080fd5b81516001600160401b038111156102005761020061019c565b604051601f8201601f19908116603f011681016001600160401b038111828210171561022e5761022e61019c565b60405281815283820160200185101561024657600080fd5b6102578260208301602087016101b2565b949350505050565b6000806040838503121561027257600080fd5b82516001600160401b0381111561028857600080fd5b610294858286016101d6565b602085015190935090506001600160401b038111156102b257600080fd5b6102be858286016101d6565b9150509250929050565b600181811c908216806102dc57607f821691505b6020821081036102fc57634e487b7160e01b600052602260045260246000fd5b50919050565b601f82111561034c57806000526020600020601f840160051c810160208510156103295750805b601f840160051c820191505b818110156103495760008155600101610335565b50505b505050565b81516001600160401b0381111561036a5761036a61019c565b61037e8161037884546102c8565b84610302565b6020601f8211600181146103b2576000831561039a5750848201515b600019600385901b1c1916600184901b178455610349565b600084815260208120601f198516915b828110156103e257878501518255602094850194600190920191016103c2565b50848210156104005786840151600019600387901b60f8161c191681555b50505050600190811b01905550565b602081526000825180602084015261042e8160408501602087016101b2565b601f01601f19169190910160400192915050565b805160208083015191908110156102fc5760001960209190910360031b1b16919050565b60805160a05160c05160e0516101005161012051610140516129c26104c0600039600061090f015260006108e4015260006110990152600061107101526000610fcc01526000610ff60152600061102001526129c26000f3fe608060405234801561001057600080fd5b50600436106101a95760003560e01c80637ecebe00116100f9578063a22cb46511610097578063c3cda52011610071578063c3cda520146103cc578063c87b56dd146103df578063e030565e146103f2578063e985e9c51461040557600080fd5b8063a22cb46514610393578063b88d4fde146103a6578063c2f1f14a146103b957600080fd5b80638fc88c48116100d35780638fc88c481461032857806391ddadf41461035957806395d89b41146103785780639ab24eb01461038057600080fd5b80637ecebe00146102e757806384b0196e146102fa5780638e539e8c1461031557600080fd5b80633a46b1a811610166578063587cde1e11610140578063587cde1e146102825780635c19a95c146102ae5780636352211e146102c157806370a08231146102d457600080fd5b80633a46b1a81461025457806342842e0e146102675780634bf5d7e91461027a57600080fd5b806301ffc9a7146101ae57806306fdde03146101d6578063081812fc146101eb578063095ea7b31461021657806323b872dd1461022b5780633644e5151461023e575b600080fd5b6101c16101bc366004612343565b610441565b60405190151581526020015b60405180910390f35b6101de61046c565b6040516101cd91906123b0565b6101fe6101f93660046123c3565b6104fe565b6040516001600160a01b0390911681526020016101cd565b6102296102243660046123f3565b610525565b005b61022961023936600461241d565b61063f565b610246610670565b6040519081526020016101cd565b6102466102623660046123f3565b61067f565b61022961027536600461241d565b610710565b6101de61072b565b6101fe61029036600461245a565b6001600160a01b039081166000908152600960205260409020541690565b6102296102bc36600461245a565b6107c3565b6101fe6102cf3660046123c3565b6107d2565b6102466102e236600461245a565b610832565b6102466102f536600461245a565b6108b8565b6103026108d6565b6040516101cd9796959493929190612475565b6102466103233660046123c3565b61095f565b6102466103363660046123c3565b6000908152600d6020526040902054600160a01b900467ffffffffffffffff1690565b6103616109d9565b60405165ffffffffffff90911681526020016101cd565b6101de6109e4565b61024661038e36600461245a565b6109f3565b6102296103a136600461250d565b610a14565b6102296103b436600461255f565b610a1f565b6101fe6103c73660046123c3565b610a57565b6102296103da366004612643565b610aa7565b6101de6103ed3660046123c3565b610bd4565b6102296104003660046126a3565b610bdf565b6101c16104133660046126f0565b6001600160a01b03918216600090815260056020908152604080832093909416825291909152205460ff1690565b60006001600160e01b03198216632b424ad760e21b1480610466575061046682610cd2565b92915050565b60606000805461047b90612723565b80601f01602080910402602001604051908101604052809291908181526020018280546104a790612723565b80156104f45780601f106104c9576101008083540402835291602001916104f4565b820191906000526020600020905b8154815290600101906020018083116104d757829003601f168201915b5050505050905090565b600061050982610cf7565b506000908152600460205260409020546001600160a01b031690565b6000610530826107d2565b9050806001600160a01b0316836001600160a01b0316036105a25760405162461bcd60e51b815260206004820152602160248201527f4552433732313a20617070726f76616c20746f2063757272656e74206f776e656044820152603960f91b60648201526084015b60405180910390fd5b336001600160a01b03821614806105be57506105be8133610413565b6106305760405162461bcd60e51b815260206004820152603d60248201527f4552433732313a20617070726f76652063616c6c6572206973206e6f7420746f60448201527f6b656e206f776e6572206f7220617070726f76656420666f7220616c6c0000006064820152608401610599565b61063a8383610d59565b505050565b6106493382610dc7565b6106655760405162461bcd60e51b815260040161059990612757565b61063a838383610e46565b600061067a610fbf565b905090565b60006106896109d9565b65ffffffffffff1682106106d65760405162461bcd60e51b81526020600482015260146024820152730566f7465733a20667574757265206c6f6f6b75760641b6044820152606401610599565b6107006106e2836110ea565b6001600160a01b0385166000908152600a6020526040902090611153565b6001600160e01b03169392505050565b61063a83838360405180602001604052806000815250610a1f565b6060436107366109d9565b65ffffffffffff161461078b5760405162461bcd60e51b815260206004820152601860248201527f566f7465733a2062726f6b656e20636c6f636b206d6f646500000000000000006044820152606401610599565b5060408051808201909152601d81527f6d6f64653d626c6f636b6e756d6265722666726f6d3d64656661756c74000000602082015290565b336107ce8183611208565b5050565b6000818152600260205260408120546001600160a01b0316806104665760405162461bcd60e51b8152602060048201526018602482015277115490cdcc8c4e881a5b9d985b1a59081d1bdad95b88125160421b6044820152606401610599565b60006001600160a01b03821661089c5760405162461bcd60e51b815260206004820152602960248201527f4552433732313a2061646472657373207a65726f206973206e6f7420612076616044820152683634b21037bbb732b960b91b6064820152608401610599565b506001600160a01b031660009081526003602052604090205490565b6001600160a01b0381166000908152600c6020526040812054610466565b60006060808280808361090a7f0000000000000000000000000000000000000000000000000000000000000000600761127a565b6109357f0000000000000000000000000000000000000000000000000000000000000000600861127a565b60408051600080825260208201909252600f60f81b9b939a50919850469750309650945092509050565b60006109696109d9565b65ffffffffffff1682106109b65760405162461bcd60e51b81526020600482015260146024820152730566f7465733a20667574757265206c6f6f6b75760641b6044820152606401610599565b6109ca6109c2836110ea565b600b90611153565b6001600160e01b031692915050565b600061067a43611325565b60606001805461047b90612723565b6001600160a01b0381166000908152600a602052604081206109ca9061138c565b6107ce3383836113c7565b610a293383610dc7565b610a455760405162461bcd60e51b815260040161059990612757565b610a5184848484611495565b50505050565b6000818152600d602052604081205442600160a01b90910467ffffffffffffffff1610610a9a57506000908152600d60205260409020546001600160a01b031690565b506000919050565b919050565b83421115610af75760405162461bcd60e51b815260206004820152601860248201527f566f7465733a207369676e6174757265206578706972656400000000000000006044820152606401610599565b604080517fe48329057bfd03d55e49b547132e39cffd9c1820ad7b9d4c5307691425d15adf60208201526001600160a01b038816918101919091526060810186905260808101859052600090610b7190610b699060a001604051602081830303815290604052805190602001206114c8565b8585856114f5565b9050610b7c8161151d565b8614610bc15760405162461bcd60e51b8152602060048201526014602482015273566f7465733a20696e76616c6964206e6f6e636560601b6044820152606401610599565b610bcb8188611208565b50505050505050565b606061046682611545565b610be93384610dc7565b610c505760405162461bcd60e51b815260206004820152603260248201527f455243343930373a207472616e736665722063616c6c6572206973206e6f74206044820152711bdddb995c881b9bdc88185c1c1c9bdd995960721b6064820152608401610599565b6000838152600d602090815260409182902080546001600160a01b0386166001600160e01b03199091168117600160a01b67ffffffffffffffff871690810291909117835593519384529092909186917f4e06b4e7000e659094299b3533b47b6aa8ad048e95e872d23d1f4ee55af89cfe91015b60405180910390a350505050565b60006001600160e01b03198216632483248360e11b1480610466575061046682611660565b6000818152600260205260409020546001600160a01b0316610d565760405162461bcd60e51b8152602060048201526018602482015277115490cdcc8c4e881a5b9d985b1a59081d1bdad95b88125160421b6044820152606401610599565b50565b600081815260046020526040902080546001600160a01b0319166001600160a01b0384169081179091558190610d8e826107d2565b6001600160a01b03167f8c5be1e5ebec7d5bd14f71427d1e84f3dd0314c0f7b2291e5b200ac8c7c3b92560405160405180910390a45050565b600080610dd3836107d2565b9050806001600160a01b0316846001600160a01b03161480610e1a57506001600160a01b0380821660009081526005602090815260408083209388168352929052205460ff165b80610e3e5750836001600160a01b0316610e33846104fe565b6001600160a01b0316145b949350505050565b826001600160a01b0316610e59826107d2565b6001600160a01b031614610e7f5760405162461bcd60e51b8152600401610599906127a4565b6001600160a01b038216610ee15760405162461bcd60e51b8152602060048201526024808201527f4552433732313a207472616e7366657220746f20746865207a65726f206164646044820152637265737360e01b6064820152608401610599565b610eee83838360016116b0565b826001600160a01b0316610f01826107d2565b6001600160a01b031614610f275760405162461bcd60e51b8152600401610599906127a4565b600081815260046020908152604080832080546001600160a01b03199081169091556001600160a01b0387811680865260038552838620805460001901905590871680865283862080546001019055868652600290945282852080549092168417909155905184937fddf252ad1be2c89b69c2b068fc378daa952ba7f163c4a11628f55a4df523b3ef91a461063a838383600161173a565b6000306001600160a01b037f00000000000000000000000000000000000000000000000000000000000000001614801561101857507f000000000000000000000000000000000000000000000000000000000000000046145b1561104257507f000000000000000000000000000000000000000000000000000000000000000090565b61067a604080517f8b73c3c69bb8fe3d512ecc4cf759cc79239f7b179b0ffacaa9a75d522b39400f60208201527f0000000000000000000000000000000000000000000000000000000000000000918101919091527f000000000000000000000000000000000000000000000000000000000000000060608201524660808201523060a082015260009060c00160405160208183030381529060405280519060200120905090565b600063ffffffff82111561114f5760405162461bcd60e51b815260206004820152602660248201527f53616665436173743a2076616c756520646f65736e27742066697420696e203360448201526532206269747360d01b6064820152608401610599565b5090565b8154600090818160058111156111b057600061116e84611746565b61117890856127ff565b60008881526020902090915081015463ffffffff90811690871610156111a0578091506111ae565b6111ab816001612812565b92505b505b60006111be8787858561182e565b905080156111fa576111e3876111d56001846127ff565b600091825260209091200190565b5464010000000090046001600160e01b03166111fd565b60005b979650505050505050565b6001600160a01b0382811660008181526009602052604080822080548686166001600160a01b0319821681179092559151919094169392849290917f3134e8a2e6d97e929a7e54011ea5485d7d196dd5f0ba4d4ef95803e8e3fc257f9190a461063a81836112758661188c565b611897565b606060ff83146112945761128d83611a03565b9050610466565b8180546112a090612723565b80601f01602080910402602001604051908101604052809291908181526020018280546112cc90612723565b80156113195780601f106112ee57610100808354040283529160200191611319565b820191906000526020600020905b8154815290600101906020018083116112fc57829003601f168201915b50505050509050610466565b600065ffffffffffff82111561114f5760405162461bcd60e51b815260206004820152602660248201527f53616665436173743a2076616c756520646f65736e27742066697420696e203460448201526538206269747360d01b6064820152608401610599565b805460009080156113bd576113a6836111d56001846127ff565b5464010000000090046001600160e01b03166113c0565b60005b9392505050565b816001600160a01b0316836001600160a01b0316036114285760405162461bcd60e51b815260206004820152601960248201527f4552433732313a20617070726f766520746f2063616c6c6572000000000000006044820152606401610599565b6001600160a01b03838116600081815260056020908152604080832094871680845294825291829020805460ff191686151590811790915591519182527f17307eab39ab6107e8899845ad3d59bd9653f200f220920489ca2b5937696c31910160405180910390a3505050565b6114a0848484610e46565b6114ac84848484611a42565b610a515760405162461bcd60e51b815260040161059990612825565b60006104666114d5610fbf565b8360405161190160f01b8152600281019290925260228201526042902090565b600080600061150687878787611b40565b9150915061151381611c04565b5095945050505050565b6001600160a01b0381166000908152600c602052604090208054600181018255905b50919050565b606061155082610cf7565b6000828152600660205260408120805461156990612723565b80601f016020809104026020016040519081016040528092919081815260200182805461159590612723565b80156115e25780601f106115b7576101008083540402835291602001916115e2565b820191906000526020600020905b8154815290600101906020018083116115c557829003601f168201915b50505050509050600061161360408051808201909152600b81526a1a5c199cce8bcbdd195cdd60aa1b602082015290565b90508051600003611625575092915050565b81511561165757808260405160200161163f929190612877565b60405160208183030381529060405292505050919050565b610e3e84611d4e565b60006001600160e01b031982166380ac58cd60e01b148061169157506001600160e01b03198216635b5e139f60e01b145b8061046657506301ffc9a760e01b6001600160e01b0319831614610466565b826001600160a01b0316846001600160a01b0316141580156116e857506000828152600d60205260409020546001600160a01b031615155b15610a51576000828152600d6020908152604080832080546001600160e01b03191690555182815284917f4e06b4e7000e659094299b3533b47b6aa8ad048e95e872d23d1f4ee55af89cfe9101610cc4565b610a5184848484611dd4565b60008160000361175857506000919050565b6000600161176584611de4565b901c6001901b9050600181848161177e5761177e6128a6565b048201901c90506001818481611796576117966128a6565b048201901c905060018184816117ae576117ae6128a6565b048201901c905060018184816117c6576117c66128a6565b048201901c905060018184816117de576117de6128a6565b048201901c905060018184816117f6576117f66128a6565b048201901c9050600181848161180e5761180e6128a6565b048201901c90506113c081828581611828576118286128a6565b04611e78565b60005b818310156118845760006118458484611e8e565b60008781526020902090915063ffffffff86169082015463ffffffff1611156118705780925061187e565b61187b816001612812565b93505b50611831565b509392505050565b600061046682610832565b816001600160a01b0316836001600160a01b0316141580156118b95750600081115b1561063a576001600160a01b03831615611961576001600160a01b0383166000908152600a6020526040812081906118fc90611ea96118f786611eb5565b611f1e565b6001600160e01b031691506001600160e01b03169150846001600160a01b03167fdec2bacdd2f05b59de34da9b523dff8be42e5e38e818c82fdb0bae774387a7248383604051611956929190918252602082015260400190565b60405180910390a250505b6001600160a01b0382161561063a576001600160a01b0382166000908152600a60205260408120819061199a90611f676118f786611eb5565b6001600160e01b031691506001600160e01b03169150836001600160a01b03167fdec2bacdd2f05b59de34da9b523dff8be42e5e38e818c82fdb0bae774387a72483836040516119f4929190918252602082015260400190565b60405180910390a25050505050565b60606000611a1083611f73565b604080516020808252818301909252919250600091906020820181803683375050509182525060208101929092525090565b60006001600160a01b0384163b15611b3857604051630a85bd0160e11b81526001600160a01b0385169063150b7a0290611a869033908990889088906004016128bc565b6020604051808303816000875af1925050508015611ac1575060408051601f3d908101601f19168201909252611abe918101906128f9565b60015b611b1e573d808015611aef576040519150601f19603f3d011682016040523d82523d6000602084013e611af4565b606091505b508051600003611b165760405162461bcd60e51b815260040161059990612825565b805181602001fd5b6001600160e01b031916630a85bd0160e11b149050610e3e565b506001610e3e565b6000807f7fffffffffffffffffffffffffffffff5d576e7357a4501ddfe92f46681b20a0831115611b775750600090506003611bfb565b6040805160008082526020820180845289905260ff881692820192909252606081018690526080810185905260019060a0016020604051602081039080840390855afa158015611bcb573d6000803e3d6000fd5b5050604051601f1901519150506001600160a01b038116611bf457600060019250925050611bfb565b9150600090505b94509492505050565b6000816004811115611c1857611c18612916565b03611c205750565b6001816004811115611c3457611c34612916565b03611c815760405162461bcd60e51b815260206004820152601860248201527f45434453413a20696e76616c6964207369676e617475726500000000000000006044820152606401610599565b6002816004811115611c9557611c95612916565b03611ce25760405162461bcd60e51b815260206004820152601f60248201527f45434453413a20696e76616c6964207369676e6174757265206c656e677468006044820152606401610599565b6003816004811115611cf657611cf6612916565b03610d565760405162461bcd60e51b815260206004820152602260248201527f45434453413a20696e76616c6964207369676e6174757265202773272076616c604482015261756560f01b6064820152608401610599565b6060611d5982610cf7565b6000611d8360408051808201909152600b81526a1a5c199cce8bcbdd195cdd60aa1b602082015290565b90506000815111611da357604051806020016040528060008152506113c0565b80611dad84611f9b565b604051602001611dbe929190612877565b6040516020818303038152906040529392505050565b611ddf84848361202e565b610a51565b600080608083901c15611df957608092831c92015b604083901c15611e0b57604092831c92015b602083901c15611e1d57602092831c92015b601083901c15611e2f57601092831c92015b600883901c15611e4157600892831c92015b600483901c15611e5357600492831c92015b600283901c15611e6557600292831c92015b600183901c156104665760010192915050565b6000818310611e8757816113c0565b5090919050565b6000611e9d600284841861292c565b6113c090848416612812565b60006113c0828461294e565b60006001600160e01b0382111561114f5760405162461bcd60e51b815260206004820152602760248201527f53616665436173743a2076616c756520646f65736e27742066697420696e20326044820152663234206269747360c81b6064820152608401610599565b600080611f5a611f3c611f2f6109d9565b65ffffffffffff166110ea565b611f52611f488861138c565b868863ffffffff16565b8791906120a4565b915091505b935093915050565b60006113c0828461296d565b600060ff8216601f81111561046657604051632cd44ac360e21b815260040160405180910390fd5b60606000611fa8836120b2565b600101905060008167ffffffffffffffff811115611fc857611fc8612549565b6040519080825280601f01601f191660200182016040528015611ff2576020820181803683370190505b5090508181016020015b600019016f181899199a1a9b1b9c1cb0b131b232b360811b600a86061a8153600a8504945084611ffc57509392505050565b6001600160a01b0383166120505761204d600b611f676118f784611eb5565b50505b6001600160a01b0382166120725761206f600b611ea96118f784611eb5565b50505b6001600160a01b0383811660009081526009602052604080822054858416835291205461063a92918216911683611897565b600080611f5a85858561218a565b60008072184f03e93ff9f4daa797ed6e38ed64bf6a1f0160401b83106120f15772184f03e93ff9f4daa797ed6e38ed64bf6a1f0160401b830492506040015b6d04ee2d6d415b85acef8100000000831061211d576d04ee2d6d415b85acef8100000000830492506020015b662386f26fc10000831061213b57662386f26fc10000830492506010015b6305f5e1008310612153576305f5e100830492506008015b612710831061216757612710830492506004015b60648310612179576064830492506002015b600a83106104665760010192915050565b8254600090819080156122d35760006121a8876111d56001856127ff565b60408051808201909152905463ffffffff8082168084526401000000009092046001600160e01b03166020840152919250908716101561222a5760405162461bcd60e51b815260206004820152601b60248201527f436865636b706f696e743a2064656372656173696e67206b65797300000000006044820152606401610599565b805163ffffffff808816911603612273578461224b886111d56001866127ff565b80546001600160e01b03929092166401000000000263ffffffff9092169190911790556122c3565b6040805180820190915263ffffffff80881682526001600160e01b0380881660208085019182528b54600181018d5560008d81529190912094519151909216640100000000029216919091179101555b602001519250839150611f5f9050565b50506040805180820190915263ffffffff80851682526001600160e01b0380851660208085019182528854600181018a5560008a815291822095519251909316640100000000029190931617920191909155905081611f5f565b6001600160e01b031981168114610d5657600080fd5b60006020828403121561235557600080fd5b81356113c08161232d565b60005b8381101561237b578181015183820152602001612363565b50506000910152565b6000815180845261239c816020860160208601612360565b601f01601f19169290920160200192915050565b6020815260006113c06020830184612384565b6000602082840312156123d557600080fd5b5035919050565b80356001600160a01b0381168114610aa257600080fd5b6000806040838503121561240657600080fd5b61240f836123dc565b946020939093013593505050565b60008060006060848603121561243257600080fd5b61243b846123dc565b9250612449602085016123dc565b929592945050506040919091013590565b60006020828403121561246c57600080fd5b6113c0826123dc565b60ff60f81b8816815260e06020820152600061249460e0830189612384565b82810360408401526124a68189612384565b606084018890526001600160a01b038716608085015260a0840186905283810360c08501528451808252602080870193509091019060005b818110156124fc5783518352602093840193909201916001016124de565b50909b9a5050505050505050505050565b6000806040838503121561252057600080fd5b612529836123dc565b91506020830135801515811461253e57600080fd5b809150509250929050565b634e487b7160e01b600052604160045260246000fd5b6000806000806080858703121561257557600080fd5b61257e856123dc565b935061258c602086016123dc565b925060408501359150606085013567ffffffffffffffff8111156125af57600080fd5b8501601f810187136125c057600080fd5b803567ffffffffffffffff8111156125da576125da612549565b604051601f8201601f19908116603f0116810167ffffffffffffffff8111828210171561260957612609612549565b60405281815282820160200189101561262157600080fd5b8160208401602083013760006020838301015280935050505092959194509250565b60008060008060008060c0878903121561265c57600080fd5b612665876123dc565b95506020870135945060408701359350606087013560ff8116811461268957600080fd5b9598949750929560808101359460a0909101359350915050565b6000806000606084860312156126b857600080fd5b833592506126c8602085016123dc565b9150604084013567ffffffffffffffff811681146126e557600080fd5b809150509250925092565b6000806040838503121561270357600080fd5b61270c836123dc565b915061271a602084016123dc565b90509250929050565b600181811c9082168061273757607f821691505b60208210810361153f57634e487b7160e01b600052602260045260246000fd5b6020808252602d908201527f4552433732313a2063616c6c6572206973206e6f7420746f6b656e206f776e6560408201526c1c881bdc88185c1c1c9bdd9959609a1b606082015260800190565b60208082526025908201527f4552433732313a207472616e736665722066726f6d20696e636f72726563742060408201526437bbb732b960d91b606082015260800190565b634e487b7160e01b600052601160045260246000fd5b81810381811115610466576104666127e9565b80820180821115610466576104666127e9565b60208082526032908201527f4552433732313a207472616e7366657220746f206e6f6e20455243373231526560408201527131b2b4bb32b91034b6b83632b6b2b73a32b960711b606082015260800190565b60008351612889818460208801612360565b83519083019061289d818360208801612360565b01949350505050565b634e487b7160e01b600052601260045260246000fd5b6001600160a01b03858116825284166020820152604081018390526080606082018190526000906128ef90830184612384565b9695505050505050565b60006020828403121561290b57600080fd5b81516113c08161232d565b634e487b7160e01b600052602160045260246000fd5b60008261294957634e487b7160e01b600052601260045260246000fd5b500490565b6001600160e01b038281168282160390811115610466576104666127e9565b6001600160e01b038181168382160190811115610466576104666127e956fea26469706673582212202334c8b2515e2b4521c40eb6eb189da367d4f00b106b96f5d777465841e74dab64736f6c634300081c0033",
  "linkReferences": {},
  "deployedLinkReferences": {}
}