{
  "_format": "hh-sol-artifact-1",
  "contractName": "DaoVerseGovernor",
  "sourceName": "contracts/DaoVerseGovernor.sol",
  "abi": [
    {
      "inputs": [
        {
          "internalType": "contract IVotes",
          "name": "_token",
          "type": "address"
        },
        {
          "internalType": "contract TimelockController",
          "name": "_timelock",
          "type": "address"
        }
      ],
      "stateMutability": "nonpayable",
      "type": "constructor"
    },
    {
      "inputs": [],
      "name": "Empty",
      "type": "error"
    },
    {
      "inputs": [],
      "name": "InvalidShortString",
      "type": "error"
    },
    {
      "inputs": [
        {
          "internalType": "string",
          "name": "str",
          "type": "string"
        }
      ],
      "name": "StringTooLong",
      "type": "error"
    },
    {
      "anonymous": false,
      "inputs": [],
      "name": "EIP712DomainChanged",
      "type": "event"
    },
    {
      "anonymous": false,
      "inputs": [
        {
          "indexed": false,
          "internalType": "uint256",
          "name": "proposalId",
          "type": "uint256"
        }
      ],
      "name": "ProposalCanceled",
      "type": "event"
    },
    {
      "anonymous": false,
      "inputs": [
        {
          "indexed": false,
          "internalType": "uint256",
          "name": "proposalId",
          "type": "uint256"
        },
        {
          "indexed": false,
          "internalType": "address",
          "name": "proposer",
          "type": "address"
        },
        {
          "indexed": false,
          "internalType": "address[]",
          "name": "targets",
          "type": "address[]"
        },
        {
          "indexed": false,
          "internalType": "uint256[]",
          "name": "values",
          "type": "uint256[]"
        },
        {
          "indexed": false,
          "internalType": "string[]",
          "name": "signatures",
          "type": "string[]"
        },
        {
          "indexed": false,
          "internalType": "bytes[]",
          "name": "calldatas",
          "type": "bytes[]"
        },
        {
          "indexed": false,
          "internalType": "uint256",
          "name": "voteStart",
          "type": "uint256"
        },
        {
          "indexed": false,
          "internalType": "uint256",
          "name": "voteEnd",
          "type": "uint256"
        },
        {
          "indexed": false,
          "internalType": "string",
          "name": "description",
          "type": "string"
        }
      ],
      "name": "ProposalCreated",
      "type": "event"
    },
    {
      "anonymous": false,
      "inputs": [
        {
          "indexed": false,
          "internalType": "uint256",
          "name": "proposalId",
          "type": "uint256"
        }
      ],
      "name": "ProposalExecuted",
      "type": "event"
    },
    {
      "anonymous": false,
      "inputs": [
        {
          "indexed": false,
          "internalType": "uint256",
          "name": "proposalId",
          "type": "uint256"
        },
        {
          "indexed": false,
          "internalType": "uint256",
          "name": "eta",
          "type": "uint256"
        }
      ],
      "name": "ProposalQueued",
      "type": "event"
    },
    {
      "anonymous": false,
      "inputs": [
        {
          "indexed": false,
          "internalType": "uint256",
          "name": "oldProposalThreshold",
          "type": "uint256"
        },
        {
          "indexed": false,
          "internalType": "uint256",
          "name": "newProposalThreshold",
          "type": "uint256"
        }
      ],
      "name": "ProposalThresholdSet",
      "type": "event"
    },
    {
      "anonymous": false,
      "inputs": [
        {
          "indexed": false,
          "internalType": "uint256",
          "name": "oldQuorumNumerator",
          "type": "uint256"
        },
        {
          "indexed": false,
          "internalType": "uint256",
          "name": "newQuorumNumerator",
          "type": "uint256"
        }
      ],
      "name": "QuorumNumeratorUpdated",
      "type": "event"
    },
    {
      "anonymous": false,
      "inputs": [
        {
          "indexed": false,
          "internalType": "address",
          "name": "oldTimelock",
          "type": "address"
        },
        {
          "indexed": false,
          "internalType": "address",
          "name": "newTimelock",
          "type": "address"
        }
      ],
      "name": "TimelockChange",
      "type": "event"
    },
    {
      "anonymous": false,
      "inputs": [
        {
          "indexed": true,
          "internalType": "address",
          "name": "voter",
          "type": "address"
        },
        {
          "indexed": false,
          "internalType": "uint256",
          "name": "proposalId",
          "type": "uint256"
        },
        {
          "indexed": false,
          "internalType": "uint8",
          "name": "support",
          "type": "uint8"
        },
        {
          "indexed": false,
          "internalType": "uint256",
          "name": "weight",
          "type": "uint256"
        },
        {
          "indexed": false,
          "internalType": "string",
          "name": "reason",
          "type": "string"
        }
      ],
      "name": "VoteCast",
      "type": "event"
    },
    {
      "anonymous": false,
      "inputs": [
        {
          "indexed": true,
          "internalType": "address",
          "name": "voter",
          "type": "address"
        },
        {
          "indexed": false,
          "internalType": "uint256",
          "name": "proposalId",
          "type": "uint256"
        },
        {
          "indexed": false,
          "internalType": "uint8",
          "name": "support",
          "type": "uint8"
        },
        {
          "indexed": false,
          "internalType": "uint256",
          "name": "weight",
          "type": "uint256"
        },
        {
          "indexed": false,
          "internalType": "string",
          "name": "reason",
          "type": "string"
        },
        {
          "indexed": false,
          "internalType": "bytes",
          "name": "params",
          "type": "bytes"
        }
      ],
      "name": "VoteCastWithParams",
      "type": "event"
    },
    {
      "anonymous": false,
      "inputs": [
        {
          "indexed": false,
          "internalType": "uint256",
          "name": "oldVotingDelay",
          "type": "uint256"
        },
        {
          "indexed": false,
          "internalType": "uint256",
          "name": "newVotingDelay",
          "type": "uint256"
        }
      ],
      "name": "VotingDelaySet",
      "type": "event"
    },
    {
      "anonymous": false,
      "inputs": [
        {
          "indexed": false,
          "internalType": "uint256",
          "name": "oldVotingPeriod",
          "type": "uint256"
        },
        {
          "indexed": false,
          "internalType": "uint256",
          "name": "newVotingPeriod",
          "type": "uint256"
        }
      ],
      "name": "VotingPeriodSet",
      "type": "event"
    },
    {
      "inputs": [],
      "name": "BALLOT_TYPEHASH",
      "outputs": [
        {
          "internalType": "bytes32",
          "name": "",
          "type": "bytes32"
        }
      ],
      "stateMutability": "view",
      "type": "function"
    },
    {
      "inputs": [],
      "name": "CLOCK_MODE",
      "outputs": [
        {
          "internalType": "string",
          "name": "",
          "type": "string"
        }
      ],
      "stateMutability": "view",
      "type": "function"
    },
    {
      "inputs": [],
      "name": "COUNTING_MODE",
      "outputs": [
        {
          "internalType": "string",
          "name": "",
          "type": "string"
        }
      ],
      "stateMutability": "pure",
      "type": "function"
    },
    {
      "inputs": [],
      "name": "EXTENDED_BALLOT_TYPEHASH",
      "outputs": [
        {
          "internalType": "bytes32",
          "name": "",
          "type": "bytes32"
        }
      ],
      "stateMutability": "view",
      "type": "function"
    },
    {
      "inputs": [
        {
          "internalType": "address[]",
          "name": "targets",
          "type": "address[]"
        },
        {
          "internalType": "uint256[]",
          "name": "values",
          "type": "uint256[]"
        },
        {
          "internalType": "bytes[]",
          "name": "calldatas",
          "type": "bytes[]"
        },
        {
          "internalType": "bytes32",
          "name": "descriptionHash",
          "type": "bytes32"
        }
      ],
      "name": "cancel",
      "outputs": [
        {
          "internalType": "uint256",
          "name": "",
          "type": "uint256"
        }
      ],
      "stateMutability": "nonpayable",
      "type": "function"
    },
    {
      "inputs": [
        {
          "internalType": "uint256",
          "name": "proposalId",
          "type": "uint256"
        },
        {
          "internalType": "uint8",
          "name": "support",
          "type": "uint8"
        }
      ],
      "name": "castVote",
      "outputs": [
        {
          "internalType": "uint256",
          "name": "",
          "type": "uint256"
        }
      ],
      "stateMutability": "nonpayable",
      "type": "function"
    },
    {
      "inputs": [
        {
          "internalType": "uint256",
          "name": "proposalId",
          "type": "uint256"
        },
        {
          "internalType": "uint8",
          "name": "support",
          "type": "uint8"
        },
        {
          "internalType": "uint8",
          "name": "v",
          "type": "uint8"
        },
        {
          "internalType": "bytes32",
          "name": "r",
          "type": "bytes32"
        },
        {
          "internalType": "bytes32",
          "name": "s",
          "type": "bytes32"
        }
      ],
      "name": "castVoteBySig",
      "outputs": [
        {
          "internalType": "uint256",
          "name": "",
          "type": "uint256"
        }
      ],
      "stateMutability": "nonpayable",
      "type": "function"
    },
    {
      "inputs": [
        {
          "internalType": "uint256",
          "name": "proposalId",
          "type": "uint256"
        },
        {
          "internalType": "uint8",
          "name": "support",
          "type": "uint8"
        },
        {
          "internalType": "string",
          "name": "reason",
          "type": "string"
        }
      ],
      "name": "castVoteWithReason",
      "outputs": [
        {
          "internalType": "uint256",
          "name": "",
          "type": "uint256"
        }
      ],
      "stateMutability": "nonpayable",
      "type": "function"
    },
    {
      "inputs": [
        {
          "internalType": "uint256",
          "name": "proposalId",
          "type": "uint256"
        },
        {
          "internalType": "uint8",
          "name": "support",
          "type": "uint8"
        },
        {
          "internalType": "string",
          "name": "reason",
          "type": "string"
        },
        {
          "internalType": "bytes",
          "name": "params",
          "type": "bytes"
        }
      ],
      "name": "castVoteWithReasonAndParams",
      "outputs": [
        {
          "internalType": "uint256",
          "name": "",
          "type": "uint256"
        }
      ],
      "stateMutability": "nonpayable",
      "type": "function"
    },
    {
      "inputs": [
        {
          "internalType": "uint256",
          "name": "proposalId",
          "type": "uint256"
        },
        {
          "internalType": "uint8",
          "name": "support",
          "type": "uint8"
        },
        {
          "internalType": "string",
          "name": "reason",
          "type": "string"
        },
        {
          "internalType": "bytes",
          "name": "params",
          "type": "bytes"
        },
        {
          "internalType": "uint8",
          "name": "v",
          "type": "uint8"
        },
        {
          "internalType": "bytes32",
          "name": "r",
          "type": "bytes32"
        },
        {
          "internalType": "bytes32",
          "name": "s",
          "type": "bytes32"
        }
      ],
      "name": "castVoteWithReasonAndParamsBySig",
      "outputs": [
        {
          "internalType": "uint256",
          "name": "",
          "type": "uint256"
        }
      ],
      "stateMutability": "nonpayable",
      "type": "function"
    },
    {
      "inputs": [],
      "name": "clock",
      "outputs": [
        {
          "internalType": "uint48",
          "name": "",
          "type": "uint48"
        }
      ],
      "stateMutability": "view",
      "type": "function"
    },
    {
      "inputs": [],
      "name": "eip712Domain",
      "outputs": [
        {
          "internalType": "bytes1",
          "name": "fields",
          "type": "bytes1"
        },
        {
          "internalType": "string",
          "name": "name",
          "type": "string"
        },
        {
          "internalType": "string",
          "name": "version",
          "type": "string"
        },
        {
          "internalType": "uint256",
          "name": "chainId",
          "type": "uint256"
        },
        {
          "internalType": "address",
          "name": "verifyingContract",
          "type": "address"
        },
        {
          "internalType": "bytes32",
          "name": "salt",
          "type": "bytes32"
        },
        {
          "internalType": "uint256[]",
          "name": "extensions",
          "type": "uint256[]"
        }
      ],
      "stateMutability": "view",
      "type": "function"
    },
    {
      "inputs": [
        {
          "internalType": "address[]",
          "name": "targets",
          "type": "address[]"
        },
        {
          "internalType": "uint256[]",
          "name": "values",
          "type": "uint256[]"
        },
        {
          "internalType": "bytes[]",
          "name": "calldatas",
          "type": "bytes[]"
        },
        {
          "internalType": "bytes32",
          "name": "descriptionHash",
          "type": "bytes32"
        }
      ],
      "name": "execute",
      "outputs": [
        {
          "internalType": "uint256",
          "name": "",
          "type": "uint256"
        }
      ],
      "stateMutability": "payable",
      "type": "function"
    },
    {
      "inputs": [
        {
          "internalType": "address",
          "name": "account",
          "type": "address"
        },
        {
          "internalType": "uint256",
          "name": "timepoint",
          "type": "uint256"
        }
      ],
      "name": "getVotes",
      "outputs": [
        {
          "internalType": "uint256",
          "name": "",
          "type": "uint256"
        }
      ],
      "stateMutability": "view",
      "type": "function"
    },
    {
      "inputs": [
        {
          "internalType": "address",
          "name": "account",
          "type": "address"
        },
        {
          "internalType": "uint256",
          "name": "timepoint",
          "type": "uint256"
        },
        {
          "internalType": "bytes",
          "name": "params",
          "type": "bytes"
        }
      ],
      "name": "getVotesWithParams",
      "outputs": [
        {
          "internalType": "uint256",
          "name": "",
          "type": "uint256"
        }
      ],
      "stateMutability": "view",
      "type": "function"
    },
    {
      "inputs": [
        {
          "internalType": "uint256",
          "name": "proposalId",
          "type": "uint256"
        },
        {
          "internalType": "address",
          "name": "account",
          "type": "address"
        }
      ],
      "name": "hasVoted",
      "outputs": [
        {
          "internalType": "bool",
          "name": "",
          "type": "bool"
        }
      ],
      "stateMutability": "view",
      "type": "function"
    },
    {
      "inputs": [
        {
          "internalType": "address[]",
          "name": "targets",
          "type": "address[]"
        },
        {
          "internalType": "uint256[]",
          "name": "values",
          "type": "uint256[]"
        },
        {
          "internalType": "bytes[]",
          "name": "calldatas",
          "type": "bytes[]"
        },
        {
          "internalType": "bytes32",
          "name": "descriptionHash",
          "type": "bytes32"
        }
      ],
      "name": "hashProposal",
      "outputs": [
        {
          "internalType": "uint256",
          "name": "",
          "type": "uint256"
        }
      ],
      "stateMutability": "pure",
      "type": "function"
    },
    {
      "inputs": [],
      "name": "name",
      "outputs": [
        {
          "internalType": "string",
          "name": "",
          "type": "string"
        }
      ],
      "stateMutability": "view",
      "type": "function"
    },
    {
      "inputs": [
        {
          "internalType": "address",
          "name": "",
          "type": "address"
        },
        {
          "internalType": "address",
          "name": "",
          "type": "address"
        },
        {
          "internalType": "uint256[]",
          "name": "",
          "type": "uint256[]"
        },
        {
          "internalType": "uint256[]",
          "name": "",
          "type": "uint256[]"
        },
        {
          "internalType": "bytes",
          "name": "",
          "type": "bytes"
        }
      ],
      "name": "onERC1155BatchReceived",
      "outputs": [
        {
          "internalType": "bytes4",
          "name": "",
          "type": "bytes4"
        }
      ],
      "stateMutability": "nonpayable",
      "type": "function"
    },
    {
      "inputs": [
        {
          "internalType": "address",
          "name": "",
          "type": "address"
        },
        {
          "internalType": "address",
          "name": "",
          "type": "address"
        },
        {
          "internalType": "uint256",
          "name": "",
          "type": "uint256"
        },
        {
          "internalType": "uint256",
          "name": "",
          "type": "uint256"
        },
        {
          "internalType": "bytes",
          "name": "",
          "type": "bytes"
        }
      ],
      "name": "onERC1155Received",
      "outputs": [
        {
          "internalType": "bytes4",
          "name": "",
          "type": "bytes4"
        }
      ],
      "stateMutability": "nonpayable",
      "type": "function"
    },
    {
      "inputs": [
        {
          "internalType": "address",
          "name": "",
          "type": "address"
        },
        {
          "internalType": "address",
          "name": "",
          "type": "address"
        },
        {
          "internalType": "uint256",
          "name": "",
          "type": "uint256"
        },
        {
          "internalType": "bytes",
          "name": "",
          "type": "bytes"
        }
      ],
      "name": "onERC721Received",
      "outputs": [
        {
          "internalType": "bytes4",
          "name": "",
          "type": "bytes4"
        }
      ],
      "stateMutability": "nonpayable",
      "type": "function"
    },
    {
      "inputs": [
        {
          "internalType": "uint256",
          "name": "proposalId",
          "type": "uint256"
        }
      ],
      "name": "proposalDeadline",
      "outputs": [
        {
          "internalType": "uint256",
          "name": "",
          "type": "uint256"
        }
      ],
      "stateMutability": "view",
      "type": "function"
    },
    {
      "inputs": [
        {
          "internalType": "uint256",
          "name": "proposalId",
          "type": "uint256"
        }
      ],
      "name": "proposalEta",
      "outputs": [
        {
          "internalType": "uint256",
          "name": "",
          "type": "uint256"
        }
      ],
      "stateMutability": "view",
      "type": "function"
    },
    {
      "inputs": [
        {
          "internalType": "uint256",
          "name": "proposalId",
          "type": "uint256"
        }
      ],
      "name": "proposalProposer",
      "outputs": [
        {
          "internalType": "address",
          "name": "",
          "type": "address"
        }
      ],
      "stateMutability": "view",
      "type": "function"
    },
    {
      "inputs": [
        {
          "internalType": "uint256",
          "name": "proposalId",
          "type": "uint256"
        }
      ],
      "name": "proposalSnapshot",
      "outputs": [
        {
          "internalType": "uint256",
          "name": "",
          "type": "uint256"
        }
      ],
      "stateMutability": "view",
      "type": "function"
    },
    {
      "inputs": [],
      "name": "proposalThreshold",
      "outputs": [
        {
          "internalType": "uint256",
          "name": "",
          "type": "uint256"
        }
      ],
      "stateMutability": "view",
      "type": "function"
    },
    {
      "inputs": [
        {
          "internalType": "uint256",
          "name": "proposalId",
          "type": "uint256"
        }
      ],
      "name": "proposalVotes",
      "outputs": [
        {
          "internalType": "uint256",
          "name": "againstVotes",
          "type": "uint256"
        },
        {
          "internalType": "uint256",
          "name": "forVotes",
          "type": "uint256"
        },
        {
          "internalType": "uint256",
          "name": "abstainVotes",
          "type": "uint256"
        }
      ],
      "stateMutability": "view",
      "type": "function"
    },
    {
      "inputs": [
        {
          "internalType": "address[]",
          "name": "targets",
          "type": "address[]"
        },
        {
          "internalType": "uint256[]",
          "name": "values",
          "type": "uint256[]"
        },
        {
          "internalType": "bytes[]",
          "name": "calldatas",
          "type": "bytes[]"
        },
        {
          "internalType": "string",
          "name": "description",
          "type": "string"
        }
      ],
      "name": "propose",
      "outputs": [
        {
          "internalType": "uint256",
          "name": "",
          "type": "uint256"
        }
      ],
      "stateMutability": "nonpayable",
      "type": "function"
    },
    {
      "inputs": [
        {
          "internalType": "address[]",
          "name": "targets",
          "type": "address[]"
        },
        {
          "internalType": "uint256[]",
          "name": "values",
          "type": "uint256[]"
        },
        {
          "internalType": "bytes[]",
          "name": "calldatas",
          "type": "bytes[]"
        },
        {
          "internalType": "bytes32",
          "name": "descriptionHash",
          "type": "bytes32"
        }
      ],
      "name": "queue",
      "outputs": [
        {
          "internalType": "uint256",
          "name": "",
          "type": "uint256"
        }
      ],
      "stateMutability": "nonpayable",
      "type": "function"
    },
    {
      "inputs": [
        {
          "internalType": "uint256",
          "name": "blockNumber",
          "type": "uint256"
        }
      ],
      "name": "quorum",
      "outputs": [
        {
          "internalType": "uint256",
          "name": "",
          "type": "uint256"
        }
      ],
      "stateMutability": "view",
      "type": "function"
    },
    {
      "inputs": [],
      "name": "quorumDenominator",
      "outputs": [
        {
          "internalType": "uint256",
          "name": "",
          "type": "uint256"
        }
      ],
      "stateMutability": "view",
      "type": "function"
    },
    {
      "inputs": [
        {
          "internalType": "uint256",
          "name": "timepoint",
          "type": "uint256"
        }
      ],
      "name": "quorumNumerator",
      "outputs": [
        {
          "internalType": "uint256",
          "name": "",
          "type": "uint256"
        }
      ],
      "stateMutability": "view",
      "type": "function"
    },
    {
      "inputs": [],
      "name": "quorumNumerator",
      "outputs": [
        {
          "internalType": "uint256",
          "name": "",
          "type": "uint256"
        }
      ],
      "stateMutability": "view",
      "type": "function"
    },
    {
      "inputs": [
        {
          "internalType": "address",
          "name": "target",
          "type": "address"
        },
        {
          "internalType": "uint256",
          "name": "value",
          "type": "uint256"
        },
        {
          "internalType": "bytes",
          "name": "data",
          "type": "bytes"
        }
      ],
      "name": "relay",
      "outputs": [],
      "stateMutability": "payable",
      "type": "function"
    },
    {
      "inputs": [
        {
          "internalType": "uint256",
          "name": "newProposalThreshold",
          "type": "uint256"
        }
      ],
      "name": "setProposalThreshold",
      "outputs": [],
      "stateMutability": "nonpayable",
      "type": "function"
    },
    {
      "inputs": [
        {
          "internalType": "uint256",
          "name": "newVotingDelay",
          "type": "uint256"
        }
      ],
      "name": "setVotingDelay",
      "outputs": [],
      "stateMutability": "nonpayable",
      "type": "function"
    },
    {
      "inputs": [
        {
          "internalType": "uint256",
          "name": "newVotingPeriod",
          "type": "uint256"
        }
      ],
      "name": "setVotingPeriod",
      "outputs": [],
      "stateMutability": "nonpayable",
      "type": "function"
    },
    {
      "inputs": [
        {
          "internalType": "uint256",
          "name": "proposalId",
          "type": "uint256"
        }
      ],
      "name": "state",
      "outputs": [
        {
          "internalType": "enum IGovernor.ProposalState",
          "name": "",
          "type": "uint8"
        }
      ],
      "stateMutability": "view",
      "type": "function"
    },
    {
      "inputs": [
        {
          "internalType": "bytes4",
          "name": "interfaceId",
          "type": "bytes4"
        }
      ],
      "name": "supportsInterface",
      "outputs": [
        {
          "internalType": "bool",
          "name": "",
          "type": "bool"
        }
      ],
      "stateMutability": "view",
      "type": "function"
    },
    {
      "inputs": [],
      "name": "timelock",
      "outputs": [
        {
          "internalType": "address",
          "name": "",
          "type": "address"
        }
      ],
      "stateMutability": "view",
      "type": "function"
    },
    {
      "inputs": [],
      "name": "token",
      "outputs": [
        {
          "internalType": "contract IERC5805",
          "name": "",
          "type": "address"
        }
      ],
      "stateMutability": "view",
      "type": "function"
    },
    {
      "inputs": [
        {
          "internalType": "uint256",
          "name": "newQuorumNumerator",
          "type": "uint256"
        }
      ],
      "name": "updateQuorumNumerator",
      "outputs": [],
      "stateMutability": "nonpayable",
      "type": "function"
    },
    {
      "inputs": [
        {
          "internalType": "contract TimelockController",
          "name": "newTimelock",
          "type": "address"
        }
      ],
      "name": "updateTimelock",
      "outputs": [],
      "stateMutability": "nonpayable",
      "type": "function"
    },
    {
      "inputs": [],
      "name": "version",
      "outputs": [
        {
          "internalType": "string",
          "name": "",
          "type": "string"
        }
      ],
      "stateMutability": "view",
      "type": "function"
    },
    {
      "inputs": [],
      "name": "votingDelay",
      "outputs": [
        {
          "internalType": "uint256",
          "name": "",
          "type": "uint256"
        }
      ],
      "stateMutability": "view",
      "type": "function"
    },
    {
      "inputs": [],
      "name": "votingPeriod",
      "outputs": [
        {
          "internalType": "uint256",
          "name": "",
          "type": "uint256"
        }
      ],
      "stateMutability": "view",
      "type": "function"
    },
    {
      "stateMutability": "payable",
      "type": "receive"
    }
  ],
  "bytecode": "0x61018060405234801561001157600080fd5b50604051615330380380615330833981016040819052610030916108fa565b80600483611c2061c4e060006040518060400160405280601081526020016f2230b7ab32b939b2a3b7bb32b93737b960811b8152508061007461017960201b60201c565b61007f826000610194565b6101205261008e816001610194565b61014052815160208084019190912060e052815190820120610100524660a05261011b60e05161010051604080517f8b73c3c69bb8fe3d512ecc4cf759cc79239f7b179b0ffacaa9a75d522b39400f60208201529081019290925260608201524660808201523060a082015260009060c00160405160208183030381529060405280519060200120905090565b60805250503060c052600261013082826109d3565b5061013c9050836101c7565b61014582610208565b61014e816102ae565b5050506001600160a01b031661016052610167816102ef565b506101718161045e565b505050610b4c565b6040805180820190915260018152603160f81b602082015290565b60006020835110156101b0576101a9836104c7565b90506101c1565b816101bb84826109d3565b5060ff90505b92915050565b60065460408051918252602082018390527fc565b045403dc03c2eea82b81a0465edad9e2e7fc4d97e11421c209da93d7a93910160405180910390a1600655565b6000811161026d5760405162461bcd60e51b815260206004820152602760248201527f476f7665726e6f7253657474696e67733a20766f74696e6720706572696f6420604482015266746f6f206c6f7760c81b60648201526084015b60405180910390fd5b60075460408051918252602082018390527f7e3f7f0708a84de9203036abaa450dccc85ad5ff52f78c170f3edb55cf5e8828910160405180910390a1600755565b60085460408051918252602082018390527fccb45da8d5717e6c4544694297c4ba5cf151d455c9bb0ed4fc7a38411bc05461910160405180910390a1600855565b60648111156103725760405162461bcd60e51b815260206004820152604360248201527f476f7665726e6f72566f74657351756f72756d4672616374696f6e3a2071756f60448201527f72756d4e756d657261746f72206f7665722071756f72756d44656e6f6d696e616064820152623a37b960e91b608482015260a401610264565b600061037c610505565b9050801580159061038d5750600b54155b156103f2576040805180820190915260008152600b90602081016103b084610531565b6001600160e01b0390811690915282546001810184556000938452602093849020835194909301519091166401000000000263ffffffff909316929092179101555b61041f61040d61040061059e565b65ffffffffffff1661060f565b61041684610531565b600b9190610674565b505060408051828152602081018490527f0553476bf02ef2726e8ce5ced78d63e26e602e4a2257b1f559418e24b4633997910160405180910390a15050565b600c54604080516001600160a01b03928316815291831660208301527f08f74ea46ef7894f65eabfb5e6e695de773a000b47c529ab559178069b226401910160405180910390a1600c80546001600160a01b0319166001600160a01b0392909216919091179055565b600080829050601f815111156104f2578260405163305a27a960e01b81526004016102649190610a91565b80516104fd82610adf565b179392505050565b600b54600090156105285761051a600b61068f565b6001600160e01b0316905090565b600a545b905090565b60006001600160e01b0382111561059a5760405162461bcd60e51b815260206004820152602760248201527f53616665436173743a2076616c756520646f65736e27742066697420696e20326044820152663234206269747360c81b6064820152608401610264565b5090565b6000610160516001600160a01b03166391ddadf46040518163ffffffff1660e01b8152600401602060405180830381865afa9250505080156105fd575060408051601f3d908101601f191682019092526105fa91810190610b03565b60015b61060a5761052c436106d8565b919050565b600063ffffffff82111561059a5760405162461bcd60e51b815260206004820152602660248201527f53616665436173743a2076616c756520646f65736e27742066697420696e203360448201526532206269747360d01b6064820152608401610264565b60008061068285858561073f565b915091505b935093915050565b805460009080156106ce576106b7836106a9600184610b2b565b600091825260209091200190565b5464010000000090046001600160e01b03166106d1565b60005b9392505050565b600065ffffffffffff82111561059a5760405162461bcd60e51b815260206004820152602660248201527f53616665436173743a2076616c756520646f65736e27742066697420696e203460448201526538206269747360d01b6064820152608401610264565b82546000908190801561088857600061075d876106a9600185610b2b565b60408051808201909152905463ffffffff8082168084526401000000009092046001600160e01b0316602084015291925090871610156107df5760405162461bcd60e51b815260206004820152601b60248201527f436865636b706f696e743a2064656372656173696e67206b65797300000000006044820152606401610264565b805163ffffffff8088169116036108285784610800886106a9600186610b2b565b80546001600160e01b03929092166401000000000263ffffffff909216919091179055610878565b6040805180820190915263ffffffff80881682526001600160e01b0380881660208085019182528b54600181018d5560008d81529190912094519151909216640100000000029216919091179101555b6020015192508391506106879050565b50506040805180820190915263ffffffff80851682526001600160e01b0380851660208085019182528854600181018a5560008a815291822095519251909316640100000000029190931617920191909155905081610687565b6001600160a01b03811681146108f757600080fd5b50565b6000806040838503121561090d57600080fd5b8251610918816108e2565b6020840151909250610929816108e2565b809150509250929050565b634e487b7160e01b600052604160045260246000fd5b600181811c9082168061095e57607f821691505b60208210810361097e57634e487b7160e01b600052602260045260246000fd5b50919050565b601f8211156109ce57806000526020600020601f840160051c810160208510156109ab5750805b601f840160051c820191505b818110156109cb57600081556001016109b7565b50505b505050565b81516001600160401b038111156109ec576109ec610934565b610a00816109fa845461094a565b84610984565b6020601f821160018114610a345760008315610a1c5750848201515b600019600385901b1c1916600184901b1784556109cb565b600084815260208120601f198516915b82811015610a645787850151825560209485019460019092019101610a44565b5084821015610a825786840151600019600387901b60f8161c191681555b50505050600190811b01905550565b602081526000825180602084015260005b81811015610abf5760208186018101516040868401015201610aa2565b506000604082850101526040601f19601f83011684010191505092915050565b8051602080830151919081101561097e5760001960209190910360031b1b16919050565b600060208284031215610b1557600080fd5b815165ffffffffffff811681146106d157600080fd5b818103818111156101c157634e487b7160e01b600052601160045260246000fd5b60805160a05160c05160e05161010051610120516101405161016051614763610bcd600039600081816109e1015281816110e00152818161143401528181612527015261274b015260006113e0015260006113b601526000612948015260006129200152600061287b015260006128a5015260006128cf01526147636000f3fe6080604052600436106102815760003560e01c80637b3c71d31161014f578063c01f9e37116100c1578063ea0217cf1161007a578063ea0217cf14610923578063eb9019d414610943578063ece40cc114610963578063f23a6e6114610983578063f8ce560a146109af578063fc0c546a146109cf57600080fd5b8063c01f9e371461081f578063c28bc2fa14610858578063c59057e41461086b578063d33219b41461088b578063dd4e2ba5146108a9578063deaaa7cc146108ef57600080fd5b80639a802a6d116101135780639a802a6d14610769578063a7713a7014610789578063a890c9101461079e578063ab58fb8e146107be578063b58131b0146107de578063bc197c81146107f357600080fd5b80637b3c71d3146106c15780637d5e81e2146106e157806384b0196e1461070157806391ddadf41461072957806397c3d3341461075557600080fd5b80633932abb1116101f3578063544ffc9c116101ac578063544ffc9c146105c257806354fd4d501461061757806356781388146106415780635f398a141461066157806360c4247f1461068157806370b0f660146106a157600080fd5b80633932abb1146104e15780633bccf4fd146104f65780633e4f49e6146105165780634385963214610543578063452115d61461058d5780634bf5d7e9146105ad57600080fd5b8063143489d011610245578063143489d0146103ab578063150b7a0214610400578063160cbed7146104445780632656227d146104645780632d63f693146104775780632fe3e261146104ad57600080fd5b806301ffc9a7146102f157806302a251a314610326578063034201811461034957806306f3f9e61461036957806306fdde031461038957600080fd5b366102ec573061028f610a03565b6001600160a01b0316146102ea5760405162461bcd60e51b815260206004820152601f60248201527f476f7665726e6f723a206d7573742073656e6420746f206578656375746f720060448201526064015b60405180910390fd5b005b600080fd5b3480156102fd57600080fd5b5061031161030c3660046137bf565b610a1c565b60405190151581526020015b60405180910390f35b34801561033257600080fd5b5061033b610a2d565b60405190815260200161031d565b34801561035557600080fd5b5061033b61036436600461390d565b610a38565b34801561037557600080fd5b506102ea6103843660046139b7565b610b30565b34801561039557600080fd5b5061039e610bba565b60405161031d9190613a20565b3480156103b757600080fd5b506103e86103c63660046139b7565b600090815260036020526040902054600160401b90046001600160a01b031690565b6040516001600160a01b03909116815260200161031d565b34801561040c57600080fd5b5061042b61041b366004613a48565b630a85bd0160e11b949350505050565b6040516001600160e01b0319909116815260200161031d565b34801561045057600080fd5b5061033b61045f366004613c1d565b610c4c565b61033b610472366004613c1d565b610e4d565b34801561048357600080fd5b5061033b6104923660046139b7565b6000908152600360205260409020546001600160401b031690565b3480156104b957600080fd5b5061033b7fb3b3f3b703cd84ce352197dcff232b1b5d3cfb2025ce47cf04742d0651f1af8881565b3480156104ed57600080fd5b5061033b610f3f565b34801561050257600080fd5b5061033b610511366004613cb6565b610f4a565b34801561052257600080fd5b506105366105313660046139b7565b610fc0565b60405161031d9190613d1a565b34801561054f57600080fd5b5061031161055e366004613d42565b60008281526009602090815260408083206001600160a01b038516845260030190915290205460ff1692915050565b34801561059957600080fd5b5061033b6105a8366004613c1d565b610fcb565b3480156105b957600080fd5b5061039e6110dc565b3480156105ce57600080fd5b506105fc6105dd3660046139b7565b6000908152600960205260409020805460018201546002909201549092565b6040805193845260208401929092529082015260600161031d565b34801561062357600080fd5b506040805180820190915260018152603160f81b602082015261039e565b34801561064d57600080fd5b5061033b61065c366004613d72565b61119e565b34801561066d57600080fd5b5061033b61067c366004613d9e565b6111c7565b34801561068d57600080fd5b5061033b61069c3660046139b7565b611211565b3480156106ad57600080fd5b506102ea6106bc3660046139b7565b6112c2565b3480156106cd57600080fd5b5061033b6106dc366004613e25565b611349565b3480156106ed57600080fd5b5061033b6106fc366004613e7e565b611391565b34801561070d57600080fd5b506107166113a8565b60405161031d9796959493929190613f7e565b34801561073557600080fd5b5061073e611430565b60405165ffffffffffff909116815260200161031d565b34801561076157600080fd5b50606461033b565b34801561077557600080fd5b5061033b610784366004613fe0565b6114b9565b34801561079557600080fd5b5061033b6114d0565b3480156107aa57600080fd5b506102ea6107b9366004614038565b6114fa565b3480156107ca57600080fd5b5061033b6107d93660046139b7565b611581565b3480156107ea57600080fd5b5061033b61161b565b3480156107ff57600080fd5b5061042b61080e366004614055565b63bc197c8160e01b95945050505050565b34801561082b57600080fd5b5061033b61083a3660046139b7565b6000908152600360205260409020600101546001600160401b031690565b6102ea6108663660046140f3565b611626565b34801561087757600080fd5b5061033b610886366004613c1d565b611735565b34801561089757600080fd5b50600c546001600160a01b03166103e8565b3480156108b557600080fd5b506040805180820190915260208082527f737570706f72743d627261766f2671756f72756d3d666f722c6162737461696e9082015261039e565b3480156108fb57600080fd5b5061033b7f150214d74d59b7d1e90c73fc22ef3d991dd0a76b046543d4d80ab92d2a50328f81565b34801561092f57600080fd5b506102ea61093e3660046139b7565b61176f565b34801561094f57600080fd5b5061033b61095e366004614136565b6117f6565b34801561096f57600080fd5b506102ea61097e3660046139b7565b611817565b34801561098f57600080fd5b5061042b61099e366004614162565b63f23a6e6160e01b95945050505050565b3480156109bb57600080fd5b5061033b6109ca3660046139b7565b61189e565b3480156109db57600080fd5b506103e87f000000000000000000000000000000000000000000000000000000000000000081565b6000610a17600c546001600160a01b031690565b905090565b6000610a27826118a9565b92915050565b6000610a1760075490565b600080610adc610ad47fb3b3f3b703cd84ce352197dcff232b1b5d3cfb2025ce47cf04742d0651f1af888c8c8c8c604051610a749291906141be565b60405180910390208b80519060200120604051602001610ab9959493929190948552602085019390935260ff9190911660408401526060830152608082015260a00190565b604051602081830303815290604052805190602001206118ce565b8686866118fb565b9050610b228a828b8b8b8080601f0160208091040260200160405190810160405280939291908181526020018383808284376000920191909152508d9250611919915050565b9a9950505050505050505050565b610b38610a03565b6001600160a01b0316336001600160a01b031614610b685760405162461bcd60e51b81526004016102e1906141ce565b30610b71610a03565b6001600160a01b031614610bae5760008036604051610b919291906141be565b604051809103902090505b80610ba76004611a6e565b03610b9c57505b610bb781611aed565b50565b606060028054610bc990614205565b80601f0160208091040260200160405190810160405280929190818152602001828054610bf590614205565b8015610c425780601f10610c1757610100808354040283529160200191610c42565b820191906000526020600020905b815481529060010190602001808311610c2557829003601f168201915b5050505050905090565b600080610c5b86868686611735565b90506004610c6882610fc0565b6007811115610c7957610c79613d04565b14610c965760405162461bcd60e51b81526004016102e19061423f565b600c546040805163793d064960e11b815290516000926001600160a01b03169163f27a0c929160048083019260209291908290030181865afa158015610ce0573d6000803e3d6000fd5b505050506040513d601f19601f82011682018060405250810190610d049190614280565b600c5460405163b1c5f42760e01b81529192506001600160a01b03169063b1c5f42790610d3e908a908a908a906000908b90600401614330565b602060405180830381865afa158015610d5b573d6000803e3d6000fd5b505050506040513d601f19601f82011682018060405250810190610d7f9190614280565b6000838152600d602052604080822092909255600c5491516308f2a0bb60e41b81526001600160a01b0390921691638f2a0bb091610dca918b918b918b91908b90899060040161437e565b600060405180830381600087803b158015610de457600080fd5b505af1158015610df8573d6000803e3d6000fd5b505050507f9a2e42fd6722813d69113e7d0079d3d940171428df7373df9c7f7617cfda2892828242610e2a91906143ec565b604080519283526020830191909152015b60405180910390a15095945050505050565b600080610e5c86868686611735565b90506000610e6982610fc0565b90506004816007811115610e7f57610e7f613d04565b1480610e9c57506005816007811115610e9a57610e9a613d04565b145b610eb85760405162461bcd60e51b81526004016102e19061423f565b60008281526003602052604090819020600201805460ff19166001179055517f712ae1383f79ac853f8d882153778e0260ef8f03b504e2866e0593e04d2b291f90610f069084815260200190565b60405180910390a1610f1b8288888888611c5b565b610f288288888888611cf5565b610f358288888888611d02565b5095945050505050565b6000610a1760065490565b604080517f150214d74d59b7d1e90c73fc22ef3d991dd0a76b046543d4d80ab92d2a50328f602082015290810186905260ff851660608201526000908190610f9890610ad490608001610ab9565b9050610fb587828860405180602001604052806000815250611d3b565b979650505050505050565b6000610a2782611d5e565b600080610fda86868686611735565b90506000610fe782610fc0565b6007811115610ff857610ff8613d04565b146110455760405162461bcd60e51b815260206004820152601c60248201527f476f7665726e6f723a20746f6f206c61746520746f2063616e63656c0000000060448201526064016102e1565b600081815260036020526040902054600160401b90046001600160a01b0316336001600160a01b0316146110c65760405162461bcd60e51b815260206004820152602260248201527f476f7665726e6f723a206f6e6c792070726f706f7365722063616e2063616e63604482015261195b60f21b60648201526084016102e1565b6110d286868686611ea8565b9695505050505050565b60607f00000000000000000000000000000000000000000000000000000000000000006001600160a01b0316634bf5d7e96040518163ffffffff1660e01b8152600401600060405180830381865afa92505050801561115d57506040513d6000823e601f3d908101601f1916820160405261115a91908101906143ff565b60015b611199575060408051808201909152601d81527f6d6f64653d626c6f636b6e756d6265722666726f6d3d64656661756c74000000602082015290565b919050565b6000803390506111bf84828560405180602001604052806000815250611d3b565b949350505050565b600080339050610fb587828888888080601f0160208091040260200160405190810160405280939291908181526020018383808284376000920191909152508a9250611919915050565b600b54600090808203611228575050600a54919050565b6000600b61123760018461446c565b815481106112475761124761447f565b60009182526020918290206040805180820190915291015463ffffffff8116808352600160201b9091046001600160e01b0316928201929092529150841061129d57602001516001600160e01b03169392505050565b6112b16112a985611eb6565b600b90611f1f565b6001600160e01b0316949350505050565b6112ca610a03565b6001600160a01b0316336001600160a01b0316146112fa5760405162461bcd60e51b81526004016102e1906141ce565b30611303610a03565b6001600160a01b03161461134057600080366040516113239291906141be565b604051809103902090505b806113396004611a6e565b0361132e57505b610bb781611fd2565b6000803390506110d286828787878080601f016020809104026020016040519081016040528093929190818152602001838380828437600092019190915250611d3b92505050565b600061139f85858585612013565b95945050505050565b6000606080828080836113db7f0000000000000000000000000000000000000000000000000000000000000000836123ec565b6114067f000000000000000000000000000000000000000000000000000000000000000060016123ec565b60408051600080825260208201909252600f60f81b9b939a50919850469750309650945092509050565b60007f00000000000000000000000000000000000000000000000000000000000000006001600160a01b03166391ddadf46040518163ffffffff1660e01b8152600401602060405180830381865afa9250505080156114ac575060408051601f3d908101601f191682019092526114a991810190614495565b60015b61119957610a1743612497565b60006114c68484846124fe565b90505b9392505050565b600b54600090156114f3576114e5600b612594565b6001600160e01b0316905090565b50600a5490565b611502610a03565b6001600160a01b0316336001600160a01b0316146115325760405162461bcd60e51b81526004016102e1906141ce565b3061153b610a03565b6001600160a01b031614611578576000803660405161155b9291906141be565b604051809103902090505b806115716004611a6e565b0361156657505b610bb7816125c4565b600c546000828152600d602052604080822054905163d45c443560e01b81526004810191909152909182916001600160a01b039091169063d45c443590602401602060405180830381865afa1580156115de573d6000803e3d6000fd5b505050506040513d601f19601f820116820180604052508101906116029190614280565b90508060011461161257806114c9565b60009392505050565b6000610a1760085490565b61162e610a03565b6001600160a01b0316336001600160a01b03161461165e5760405162461bcd60e51b81526004016102e1906141ce565b30611667610a03565b6001600160a01b0316146116a457600080366040516116879291906141be565b604051809103902090505b8061169d6004611a6e565b0361169257505b600080856001600160a01b03168585856040516116c29291906141be565b60006040518083038185875af1925050503d80600081146116ff576040519150601f19603f3d011682016040523d82523d6000602084013e611704565b606091505b509150915061172c82826040518060600160405280602881526020016147066028913961262d565b50505050505050565b60008484848460405160200161174e94939291906144bd565b60408051601f19818403018152919052805160209091012095945050505050565b611777610a03565b6001600160a01b0316336001600160a01b0316146117a75760405162461bcd60e51b81526004016102e1906141ce565b306117b0610a03565b6001600160a01b0316146117ed57600080366040516117d09291906141be565b604051809103902090505b806117e66004611a6e565b036117db57505b610bb781612646565b60006114c9838361181260408051602081019091526000815290565b6124fe565b61181f610a03565b6001600160a01b0316336001600160a01b03161461184f5760405162461bcd60e51b81526004016102e1906141ce565b30611858610a03565b6001600160a01b03161461189557600080366040516118789291906141be565b604051809103902090505b8061188e6004611a6e565b0361188357505b610bb7816126e7565b6000610a2782612728565b60006001600160e01b03198216636e665ced60e01b1480610a275750610a27826127d2565b6000610a276118db61286e565b8360405161190160f01b8152600281019290925260228201526042902090565b600080600061190c87878787612999565b91509150610f3581612a5d565b6000858152600360205260408120600161193288610fc0565b600781111561194357611943613d04565b1461199c5760405162461bcd60e51b815260206004820152602360248201527f476f7665726e6f723a20766f7465206e6f742063757272656e746c792061637460448201526269766560e81b60648201526084016102e1565b80546000906119b69088906001600160401b0316866124fe565b90506119c58888888488612ba7565b8351600003611a1a57866001600160a01b03167fb8e138887d0aa13bab447e82de9d5c1777041ecd21ca36ba824ff1e6c07ddda489888489604051611a0d9493929190614508565b60405180910390a2610fb5565b866001600160a01b03167fe2babfbac5889a709b63bb7f598b324e08bc5a4fb9ec647fb3cbc9ec07eb87128988848989604051611a5b959493929190614530565b60405180910390a2979650505050505050565b6000611a898254600f81810b600160801b909204900b131590565b15611aa757604051631ed9509560e11b815260040160405180910390fd5b508054600f0b6000818152600180840160205260408220805492905583546fffffffffffffffffffffffffffffffff191692016001600160801b03169190911790915590565b6064811115611b705760405162461bcd60e51b815260206004820152604360248201527f476f7665726e6f72566f74657351756f72756d4672616374696f6e3a2071756f60448201527f72756d4e756d657261746f72206f7665722071756f72756d44656e6f6d696e616064820152623a37b960e91b608482015260a4016102e1565b6000611b7a6114d0565b90508015801590611b8b5750600b54155b15611bef576040805180820190915260008152600b9060208101611bae84612d21565b6001600160e01b039081169091528254600181018455600093845260209384902083519490930151909116600160201b0263ffffffff909316929092179101555b611c1c611c0a611bfd611430565b65ffffffffffff16611eb6565b611c1384612d21565b600b9190612d8a565b505060408051828152602081018490527f0553476bf02ef2726e8ce5ced78d63e26e602e4a2257b1f559418e24b4633997910160405180910390a15050565b30611c64610a03565b6001600160a01b031614611cee5760005b8451811015611cec57306001600160a01b0316858281518110611c9a57611c9a61447f565b60200260200101516001600160a01b031603611ce457611ce4838281518110611cc557611cc561447f565b6020026020010151805190602001206004612da590919063ffffffff16565b600101611c75565b505b5050505050565b611cee8585858585612de1565b30611d0b610a03565b6001600160a01b031614611cee57600454600f81810b600160801b909204900b1315611cee576000600455611cee565b600061139f85858585611d5960408051602081019091526000815290565b611919565b600080611d6a83612e55565b90506004816007811115611d8057611d80613d04565b14611d8b5792915050565b6000838152600d602052604090205480611da6575092915050565b600c54604051632ab0f52960e01b8152600481018390526001600160a01b0390911690632ab0f52990602401602060405180830381865afa158015611def573d6000803e3d6000fd5b505050506040513d601f19601f82011682018060405250810190611e139190614576565b15611e22575060079392505050565b600c54604051632c258a9f60e11b8152600481018390526001600160a01b039091169063584b153e90602401602060405180830381865afa158015611e6b573d6000803e3d6000fd5b505050506040513d601f19601f82011682018060405250810190611e8f9190614576565b15611e9e575060059392505050565b5060029392505050565b600061139f85858585612f95565b600063ffffffff821115611f1b5760405162461bcd60e51b815260206004820152602660248201527f53616665436173743a2076616c756520646f65736e27742066697420696e203360448201526532206269747360d01b60648201526084016102e1565b5090565b815460009081816005811115611f7c576000611f3a84613047565b611f44908561446c565b60008881526020902090915081015463ffffffff9081169087161015611f6c57809150611f7a565b611f778160016143ec565b92505b505b6000611f8a8787858561312f565b90508015611fc557611faf87611fa160018461446c565b600091825260209091200190565b54600160201b90046001600160e01b0316610fb5565b6000979650505050505050565b60065460408051918252602082018390527fc565b045403dc03c2eea82b81a0465edad9e2e7fc4d97e11421c209da93d7a93910160405180910390a1600655565b600033612020818461318d565b61206c5760405162461bcd60e51b815260206004820152601d60248201527f476f7665726e6f723a2070726f706f736572207265737472696374656400000060448201526064016102e1565b6000612076611430565b65ffffffffffff16905061208861161b565b6120978361095e60018561446c565b10156120ff5760405162461bcd60e51b815260206004820152603160248201527f476f7665726e6f723a2070726f706f73657220766f7465732062656c6f7720706044820152701c9bdc1bdcd85b081d1a1c995cda1bdb19607a1b60648201526084016102e1565b60006121148888888880519060200120611735565b905086518851146121375760405162461bcd60e51b81526004016102e190614598565b85518851146121585760405162461bcd60e51b81526004016102e190614598565b60008851116121a95760405162461bcd60e51b815260206004820152601860248201527f476f7665726e6f723a20656d7074792070726f706f73616c000000000000000060448201526064016102e1565b6000818152600360205260409020546001600160401b0316156122185760405162461bcd60e51b815260206004820152602160248201527f476f7665726e6f723a2070726f706f73616c20616c72656164792065786973746044820152607360f81b60648201526084016102e1565b6000612222610f3f565b61222c90846143ec565b90506000612238610a2d565b61224290836143ec565b90506040518060e0016040528061225884613278565b6001600160401b031681526001600160a01b03871660208201526000604082015260600161228583613278565b6001600160401b039081168252600060208084018290526040808501839052606094850183905288835260038252918290208551815492870151878501519186166001600160e01b031990941693909317600160401b6001600160a01b039094168402176001600160e01b0316600160e01b60e09290921c91909102178155938501516080860151908416921c0217600183015560a08301516002909201805460c09094015161ffff1990941692151561ff00191692909217610100931515939093029290921790558a517f7d84a6263ae0d98d3329bd7b46bb4e8d6f98cd35a7adb45c274c8b7fd5ebd5e091859188918e918e9181111561238957612389613842565b6040519080825280602002602001820160405280156123bc57816020015b60608152602001906001900390816123a75790505b508d88888f6040516123d6999897969594939291906145d9565b60405180910390a1509098975050505050505050565b606060ff8314612406576123ff836132e0565b9050610a27565b81805461241290614205565b80601f016020809104026020016040519081016040528092919081815260200182805461243e90614205565b801561248b5780601f106124605761010080835404028352916020019161248b565b820191906000526020600020905b81548152906001019060200180831161246e57829003601f168201915b50505050509050610a27565b600065ffffffffffff821115611f1b5760405162461bcd60e51b815260206004820152602660248201527f53616665436173743a2076616c756520646f65736e27742066697420696e203460448201526538206269747360d01b60648201526084016102e1565b604051630748d63560e31b81526001600160a01b038481166004830152602482018490526000917f000000000000000000000000000000000000000000000000000000000000000090911690633a46b1a890604401602060405180830381865afa158015612570573d6000803e3d6000fd5b505050506040513d601f19601f820116820180604052508101906114c69190614280565b80546000908015611612576125ae83611fa160018461446c565b54600160201b90046001600160e01b03166114c9565b600c54604080516001600160a01b03928316815291831660208301527f08f74ea46ef7894f65eabfb5e6e695de773a000b47c529ab559178069b226401910160405180910390a1600c80546001600160a01b0319166001600160a01b0392909216919091179055565b6060831561263c5750816114c9565b6114c9838361331f565b600081116126a65760405162461bcd60e51b815260206004820152602760248201527f476f7665726e6f7253657474696e67733a20766f74696e6720706572696f6420604482015266746f6f206c6f7760c81b60648201526084016102e1565b60075460408051918252602082018390527f7e3f7f0708a84de9203036abaa450dccc85ad5ff52f78c170f3edb55cf5e8828910160405180910390a1600755565b60085460408051918252602082018390527fccb45da8d5717e6c4544694297c4ba5cf151d455c9bb0ed4fc7a38411bc05461910160405180910390a1600855565b6000606461273583611211565b604051632394e7a360e21b8152600481018590527f00000000000000000000000000000000000000000000000000000000000000006001600160a01b031690638e539e8c90602401602060405180830381865afa15801561279a573d6000803e3d6000fd5b505050506040513d601f19601f820116820180604052508101906127be9190614280565b6127c891906146b6565b610a2791906146e3565b600063288ace0360e11b6318df743f60e31b63bf26d89760e01b6379dd796f60e01b6001600160e01b0319861682148061281857506001600160e01b0319868116908216145b8061282f57506001600160e01b0319868116908516145b8061284a57506001600160e01b03198616630271189760e51b145b806110d257506301ffc9a760e01b6001600160e01b03198716149695505050505050565b6000306001600160a01b037f0000000000000000000000000000000000000000000000000000000000000000161480156128c757507f000000000000000000000000000000000000000000000000000000000000000046145b156128f157507f000000000000000000000000000000000000000000000000000000000000000090565b610a17604080517f8b73c3c69bb8fe3d512ecc4cf759cc79239f7b179b0ffacaa9a75d522b39400f60208201527f0000000000000000000000000000000000000000000000000000000000000000918101919091527f000000000000000000000000000000000000000000000000000000000000000060608201524660808201523060a082015260009060c00160405160208183030381529060405280519060200120905090565b6000807f7fffffffffffffffffffffffffffffff5d576e7357a4501ddfe92f46681b20a08311156129d05750600090506003612a54565b6040805160008082526020820180845289905260ff881692820192909252606081018690526080810185905260019060a0016020604051602081039080840390855afa158015612a24573d6000803e3d6000fd5b5050604051601f1901519150506001600160a01b038116612a4d57600060019250925050612a54565b9150600090505b94509492505050565b6000816004811115612a7157612a71613d04565b03612a795750565b6001816004811115612a8d57612a8d613d04565b03612ada5760405162461bcd60e51b815260206004820152601860248201527f45434453413a20696e76616c6964207369676e6174757265000000000000000060448201526064016102e1565b6002816004811115612aee57612aee613d04565b03612b3b5760405162461bcd60e51b815260206004820152601f60248201527f45434453413a20696e76616c6964207369676e6174757265206c656e6774680060448201526064016102e1565b6003816004811115612b4f57612b4f613d04565b03610bb75760405162461bcd60e51b815260206004820152602260248201527f45434453413a20696e76616c6964207369676e6174757265202773272076616c604482015261756560f01b60648201526084016102e1565b60008581526009602090815260408083206001600160a01b0388168452600381019092529091205460ff1615612c2f5760405162461bcd60e51b815260206004820152602760248201527f476f7665726e6f72566f74696e6753696d706c653a20766f746520616c726561604482015266191e4818d85cdd60ca1b60648201526084016102e1565b6001600160a01b03851660009081526003820160205260409020805460ff1916600117905560ff8416612c7b5782816000016000828254612c7091906143ec565b90915550611cec9050565b60001960ff851601612c9b5782816001016000828254612c7091906143ec565b60011960ff851601612cbb5782816002016000828254612c7091906143ec565b60405162461bcd60e51b815260206004820152603560248201527f476f7665726e6f72566f74696e6753696d706c653a20696e76616c69642076616044820152746c756520666f7220656e756d20566f74655479706560581b60648201526084016102e1565b60006001600160e01b03821115611f1b5760405162461bcd60e51b815260206004820152602760248201527f53616665436173743a2076616c756520646f65736e27742066697420696e20326044820152663234206269747360c81b60648201526084016102e1565b600080612d98858585613349565b915091505b935093915050565b8154600160801b90819004600f0b6000818152600180860160205260409091209390935583546001600160801b03908116939091011602179055565b600c5460405163e38335e560e01b81526001600160a01b039091169063e38335e5903490612e1c908890889088906000908990600401614330565b6000604051808303818588803b158015612e3557600080fd5b505af1158015612e49573d6000803e3d6000fd5b50505050505050505050565b6000818152600360205260408120600281015460ff1615612e795750600792915050565b6002810154610100900460ff1615612e945750600292915050565b6000838152600360205260408120546001600160401b031690819003612efc5760405162461bcd60e51b815260206004820152601d60248201527f476f7665726e6f723a20756e6b6e6f776e2070726f706f73616c20696400000060448201526064016102e1565b6000612f06611430565b65ffffffffffff169050808210612f2257506000949350505050565b6000858152600360205260409020600101546001600160401b0316818110612f505750600195945050505050565b612f59866134e8565b8015612f78575060008681526009602052604090208054600190910154115b15612f895750600495945050505050565b50600395945050505050565b600080612fa486868686613534565b6000818152600d60205260409020549091501561139f57600c546000828152600d60205260409081902054905163c4d252f560e01b81526001600160a01b039092169163c4d252f591612ffd9160040190815260200190565b600060405180830381600087803b15801561301757600080fd5b505af115801561302b573d6000803e3d6000fd5b5050506000828152600d60205260408120555095945050505050565b60008160000361305957506000919050565b6000600161306684613640565b901c6001901b9050600181848161307f5761307f6146cd565b048201901c90506001818481613097576130976146cd565b048201901c905060018184816130af576130af6146cd565b048201901c905060018184816130c7576130c76146cd565b048201901c905060018184816130df576130df6146cd565b048201901c905060018184816130f7576130f76146cd565b048201901c9050600181848161310f5761310f6146cd565b048201901c90506114c981828581613129576131296146cd565b046136d4565b60005b8183101561318557600061314684846136ea565b60008781526020902090915063ffffffff86169082015463ffffffff1611156131715780925061317f565b61317c8160016143ec565b93505b50613132565b509392505050565b805160009060348110156131a5576001915050610a27565b82810160131901516001600160a01b031981166b046e0e4dee0dee6cae47a60f60a31b146131d857600192505050610a27565b6000806131e660288561446c565b90505b838110156132575760008061321d8884815181106132095761320961447f565b01602001516001600160f81b031916613705565b91509150816132355760019650505050505050610a27565b8060ff166004856001600160a01b0316901b17935050508060010190506131e9565b50856001600160a01b0316816001600160a01b031614935050505092915050565b60006001600160401b03821115611f1b5760405162461bcd60e51b815260206004820152602660248201527f53616665436173743a2076616c756520646f65736e27742066697420696e203660448201526534206269747360d01b60648201526084016102e1565b606060006132ed83613797565b604080516020808252818301909252919250600091906020820181803683375050509182525060208101929092525090565b81511561332f5781518083602001fd5b8060405162461bcd60e51b81526004016102e19190613a20565b82546000908190801561348f57600061336787611fa160018561446c565b60408051808201909152905463ffffffff808216808452600160201b9092046001600160e01b0316602084015291925090871610156133e85760405162461bcd60e51b815260206004820152601b60248201527f436865636b706f696e743a2064656372656173696e67206b657973000000000060448201526064016102e1565b805163ffffffff808816911603613430578461340988611fa160018661446c565b80546001600160e01b0392909216600160201b0263ffffffff90921691909117905561347f565b6040805180820190915263ffffffff80881682526001600160e01b0380881660208085019182528b54600181018d5560008d81529190912094519151909216600160201b029216919091179101555b602001519250839150612d9d9050565b50506040805180820190915263ffffffff80851682526001600160e01b0380851660208085019182528854600181018a5560008a815291822095519251909316600160201b029190931617920191909155905081612d9d565b60008181526009602052604081206002810154600182015461350a91906143ec565b60008481526003602052604090205461352b906001600160401b031661189e565b11159392505050565b60008061354386868686611735565b9050600061355082610fc0565b9050600281600781111561356657613566613d04565b141580156135865750600681600781111561358357613583613d04565b14155b80156135a4575060078160078111156135a1576135a1613d04565b14155b6135f05760405162461bcd60e51b815260206004820152601d60248201527f476f7665726e6f723a2070726f706f73616c206e6f742061637469766500000060448201526064016102e1565b60008281526003602052604090819020600201805461ff001916610100179055517f789cf55be980739dad1d0699b93b58e806b51c9d96619bfa8fe0a28abaa7b30c90610e3b9084815260200190565b600080608083901c1561365557608092831c92015b604083901c1561366757604092831c92015b602083901c1561367957602092831c92015b601083901c1561368b57601092831c92015b600883901c1561369d57600892831c92015b600483901c156136af57600492831c92015b600283901c156136c157600292831c92015b600183901c15610a275760010192915050565b60008183106136e357816114c9565b5090919050565b60006136f960028484186146e3565b6114c9908484166143ec565b60008060f883901c602f811180156137205750603a8160ff16105b1561373557600194602f199091019350915050565b8060ff16604010801561374b575060478160ff16105b15613760576001946036199091019350915050565b8060ff166060108015613776575060678160ff16105b1561378b576001946056199091019350915050565b50600093849350915050565b600060ff8216601f811115610a2757604051632cd44ac360e21b815260040160405180910390fd5b6000602082840312156137d157600080fd5b81356001600160e01b0319811681146114c957600080fd5b803560ff8116811461119957600080fd5b60008083601f84011261380c57600080fd5b5081356001600160401b0381111561382357600080fd5b60208301915083602082850101111561383b57600080fd5b9250929050565b634e487b7160e01b600052604160045260246000fd5b604051601f8201601f191681016001600160401b038111828210171561388057613880613842565b604052919050565b60006001600160401b038211156138a1576138a1613842565b50601f01601f191660200190565b60006138c26138bd84613888565b613858565b90508281528383830111156138d657600080fd5b828260208301376000602084830101529392505050565b600082601f8301126138fe57600080fd5b6114c9838335602085016138af565b60008060008060008060008060e0898b03121561392957600080fd5b8835975061393960208a016137e9565b965060408901356001600160401b0381111561395457600080fd5b6139608b828c016137fa565b90975095505060608901356001600160401b0381111561397f57600080fd5b61398b8b828c016138ed565b94505061399a60808a016137e9565b979a969950949793969295929450505060a08201359160c0013590565b6000602082840312156139c957600080fd5b5035919050565b60005b838110156139eb5781810151838201526020016139d3565b50506000910152565b60008151808452613a0c8160208601602086016139d0565b601f01601f19169290920160200192915050565b6020815260006114c960208301846139f4565b6001600160a01b0381168114610bb757600080fd5b60008060008060808587031215613a5e57600080fd5b8435613a6981613a33565b93506020850135613a7981613a33565b92506040850135915060608501356001600160401b03811115613a9b57600080fd5b613aa7878288016138ed565b91505092959194509250565b60006001600160401b03821115613acc57613acc613842565b5060051b60200190565b600082601f830112613ae757600080fd5b8135613af56138bd82613ab3565b8082825260208201915060208360051b860101925085831115613b1757600080fd5b602085015b83811015610f35578035613b2f81613a33565b835260209283019201613b1c565b600082601f830112613b4e57600080fd5b8135613b5c6138bd82613ab3565b8082825260208201915060208360051b860101925085831115613b7e57600080fd5b602085015b83811015610f35578035835260209283019201613b83565b600082601f830112613bac57600080fd5b8135613bba6138bd82613ab3565b8082825260208201915060208360051b860101925085831115613bdc57600080fd5b602085015b83811015610f355780356001600160401b03811115613bff57600080fd5b613c0e886020838a01016138ed565b84525060209283019201613be1565b60008060008060808587031215613c3357600080fd5b84356001600160401b03811115613c4957600080fd5b613c5587828801613ad6565b94505060208501356001600160401b03811115613c7157600080fd5b613c7d87828801613b3d565b93505060408501356001600160401b03811115613c9957600080fd5b613ca587828801613b9b565b949793965093946060013593505050565b600080600080600060a08688031215613cce57600080fd5b85359450613cde602087016137e9565b9350613cec604087016137e9565b94979396509394606081013594506080013592915050565b634e487b7160e01b600052602160045260246000fd5b6020810160088310613d3c57634e487b7160e01b600052602160045260246000fd5b91905290565b60008060408385031215613d5557600080fd5b823591506020830135613d6781613a33565b809150509250929050565b60008060408385031215613d8557600080fd5b82359150613d95602084016137e9565b90509250929050565b600080600080600060808688031215613db657600080fd5b85359450613dc6602087016137e9565b935060408601356001600160401b03811115613de157600080fd5b613ded888289016137fa565b90945092505060608601356001600160401b03811115613e0c57600080fd5b613e18888289016138ed565b9150509295509295909350565b60008060008060608587031215613e3b57600080fd5b84359350613e4b602086016137e9565b925060408501356001600160401b03811115613e6657600080fd5b613e72878288016137fa565b95989497509550505050565b60008060008060808587031215613e9457600080fd5b84356001600160401b03811115613eaa57600080fd5b613eb687828801613ad6565b94505060208501356001600160401b03811115613ed257600080fd5b613ede87828801613b3d565b93505060408501356001600160401b03811115613efa57600080fd5b613f0687828801613b9b565b92505060608501356001600160401b03811115613f2257600080fd5b8501601f81018713613f3357600080fd5b613aa7878235602084016138af565b600081518084526020840193506020830160005b82811015613f74578151865260209586019590910190600101613f56565b5093949350505050565b60ff60f81b8816815260e060208201526000613f9d60e08301896139f4565b8281036040840152613faf81896139f4565b606084018890526001600160a01b038716608085015260a0840186905283810360c08501529050610b228185613f42565b600080600060608486031215613ff557600080fd5b833561400081613a33565b92506020840135915060408401356001600160401b0381111561402257600080fd5b61402e868287016138ed565b9150509250925092565b60006020828403121561404a57600080fd5b81356114c981613a33565b600080600080600060a0868803121561406d57600080fd5b853561407881613a33565b9450602086013561408881613a33565b935060408601356001600160401b038111156140a357600080fd5b6140af88828901613b3d565b93505060608601356001600160401b038111156140cb57600080fd5b6140d788828901613b3d565b92505060808601356001600160401b03811115613e0c57600080fd5b6000806000806060858703121561410957600080fd5b843561411481613a33565b93506020850135925060408501356001600160401b03811115613e6657600080fd5b6000806040838503121561414957600080fd5b823561415481613a33565b946020939093013593505050565b600080600080600060a0868803121561417a57600080fd5b853561418581613a33565b9450602086013561419581613a33565b9350604086013592506060860135915060808601356001600160401b03811115613e0c57600080fd5b8183823760009101908152919050565b60208082526018908201527f476f7665726e6f723a206f6e6c79476f7665726e616e63650000000000000000604082015260600190565b600181811c9082168061421957607f821691505b60208210810361423957634e487b7160e01b600052602260045260246000fd5b50919050565b60208082526021908201527f476f7665726e6f723a2070726f706f73616c206e6f74207375636365737366756040820152601b60fa1b606082015260800190565b60006020828403121561429257600080fd5b5051919050565b600081518084526020840193506020830160005b82811015613f745781516001600160a01b03168652602095860195909101906001016142ad565b600082825180855260208501945060208160051b8301016020850160005b8381101561432457601f1985840301885261430e8383516139f4565b60209889019890935091909101906001016142f2565b50909695505050505050565b60a08152600061434360a0830188614299565b82810360208401526143558188613f42565b9050828103604084015261436981876142d4565b60608401959095525050608001529392505050565b60c08152600061439160c0830189614299565b82810360208401526143a38189613f42565b905082810360408401526143b781886142d4565b60608401969096525050608081019290925260a0909101529392505050565b634e487b7160e01b600052601160045260246000fd5b80820180821115610a2757610a276143d6565b60006020828403121561441157600080fd5b81516001600160401b0381111561442757600080fd5b8201601f8101841361443857600080fd5b80516144466138bd82613888565b81815285602083850101111561445b57600080fd5b61139f8260208301602086016139d0565b81810381811115610a2757610a276143d6565b634e487b7160e01b600052603260045260246000fd5b6000602082840312156144a757600080fd5b815165ffffffffffff811681146114c957600080fd5b6080815260006144d06080830187614299565b82810360208401526144e28187613f42565b905082810360408401526144f681866142d4565b91505082606083015295945050505050565b84815260ff841660208201528260408201526080606082015260006110d260808301846139f4565b85815260ff8516602082015283604082015260a06060820152600061455860a08301856139f4565b828103608084015261456a81856139f4565b98975050505050505050565b60006020828403121561458857600080fd5b815180151581146114c957600080fd5b60208082526021908201527f476f7665726e6f723a20696e76616c69642070726f706f73616c206c656e67746040820152600d60fb1b606082015260800190565b8981526001600160a01b0389166020820152610120604082018190526000906146049083018a614299565b8281036060840152614616818a613f42565b9050828103608084015280885180835260208301915060208160051b84010160208b0160005b8381101561466e57601f198684030185526146588383516139f4565b602095860195909350919091019060010161463c565b505085810360a0870152614682818b6142d4565b93505050508560c08401528460e08401528281036101008401526146a681856139f4565b9c9b505050505050505050505050565b8082028115828204841417610a2757610a276143d6565b634e487b7160e01b600052601260045260246000fd5b60008261470057634e487b7160e01b600052601260045260246000fd5b50049056fe476f7665726e6f723a2072656c617920726576657274656420776974686f7574206d657373616765a26469706673582212203080a8a69d5eb36506f08066045c75bf9a2821fd163059340487405b5da3f15764736f6c634300081c0033",
  "linkReferences": {},
  "deployedLinkReferences": {}
}