{
  "address": "0x4b24FB006418DD4999eeb52aADb486575D152552",
  "abi": [
    {
      "inputs": [
        {
          "internalType": "address",
          "name": "_roomTokenContractAddress",
          "type": "address"
        }
      ],
      "stateMutability": "nonpayable",
      "type": "constructor"
    },
    {
      "inputs": [
        {
          "internalType": "uint256",
          "name": "tokenId",
          "type": "uint256"
        }
      ],
      "name": "RentRoom__AlreadyListed",
      "type": "error"
    },
    {
      "inputs": [
        {
          "internalType": "uint256",
          "name": "tokenId",
          "type": "uint256"
        },
        {
          "internalType": "address",
          "name": "user",
          "type": "address"
        }
      ],
      "name": "RentRoom__AlreadyRented",
      "type": "error"
    },
    {
      "inputs": [],
      "name": "RentRoom__FeeNotInRange",
      "type": "error"
    },
    {
      "inputs": [],
      "name": "RentRoom__NoFees",
      "type": "error"
    },
    {
      "inputs": [],
      "name": "RentRoom__NoProceeds",
      "type": "error"
    },
    {
      "inputs": [
        {
          "internalType": "uint256",
          "name": "tokenId",
          "type": "uint256"
        }
      ],
      "name": "RentRoom__NotListed",
      "type": "error"
    },
    {
      "inputs": [],
      "name": "RentRoom__NotOwner",
      "type": "error"
    },
    {
      "inputs": [],
      "name": "RentRoom__PeriodNotInRange",
      "type": "error"
    },
    {
      "inputs": [],
      "name": "RentRoom__PriceMustBeAboveZero",
      "type": "error"
    },
    {
      "inputs": [
        {
          "internalType": "uint256",
          "name": "tokenId",
          "type": "uint256"
        }
      ],
      "name": "RentRoom__isForSale",
      "type": "error"
    },
    {
      "anonymous": false,
      "inputs": [
        {
          "indexed": false,
          "internalType": "address",
          "name": "owner",
          "type": "address"
        },
        {
          "indexed": false,
          "internalType": "uint256",
          "name": "tokenId",
          "type": "uint256"
        }
      ],
      "name": "ListingCanceled",
      "type": "event"
    },
    {
      "anonymous": false,
      "inputs": [
        {
          "indexed": false,
          "internalType": "address",
          "name": "owner",
          "type": "address"
        },
        {
          "indexed": false,
          "internalType": "uint256",
          "name": "tokenId",
          "type": "uint256"
        },
        {
          "indexed": false,
          "internalType": "uint256",
          "name": "newPricePerDay",
          "type": "uint256"
        }
      ],
      "name": "ListingUpdated",
      "type": "event"
    },
    {
      "anonymous": false,
      "inputs": [
        {
          "indexed": false,
          "internalType": "uint256",
          "name": "newFeePercentage",
          "type": "uint256"
        }
      ],
      "name": "NewFee",
      "type": "event"
    },
    {
      "anonymous": false,
      "inputs": [
        {
          "indexed": false,
          "internalType": "address",
          "name": "owner",
          "type": "address"
        },
        {
          "indexed": false,
          "internalType": "address",
          "name": "user",
          "type": "address"
        },
        {
          "indexed": false,
          "internalType": "uint256",
          "name": "tokenId",
          "type": "uint256"
        },
        {
          "indexed": false,
          "internalType": "uint256",
          "name": "pricePerDay",
          "type": "uint256"
        },
        {
          "indexed": false,
          "internalType": "uint256",
          "name": "periodInDays",
          "type": "uint256"
        }
      ],
      "name": "NewRoomListed",
      "type": "event"
    },
    {
      "anonymous": false,
      "inputs": [
        {
          "indexed": true,
          "internalType": "address",
          "name": "previousOwner",
          "type": "address"
        },
        {
          "indexed": true,
          "internalType": "address",
          "name": "newOwner",
          "type": "address"
        }
      ],
      "name": "OwnershipTransferred",
      "type": "event"
    },
    {
      "anonymous": false,
      "inputs": [
        {
          "indexed": false,
          "internalType": "address",
          "name": "renter",
          "type": "address"
        },
        {
          "indexed": false,
          "internalType": "uint256",
          "name": "tokenId",
          "type": "uint256"
        },
        {
          "indexed": false,
          "internalType": "uint256",
          "name": "totalPrice",
          "type": "uint256"
        }
      ],
      "name": "RoomRented",
      "type": "event"
    },
    {
      "inputs": [],
      "name": "RoomMarketplaceContractAddress",
      "outputs": [
        {
          "internalType": "address",
          "name": "",
          "type": "address"
        }
      ],
      "stateMutability": "view",
      "type": "function"
    },
    {
      "inputs": [
        {
          "internalType": "uint256",
          "name": "_tokenId",
          "type": "uint256"
        }
      ],
      "name": "cancelListing",
      "outputs": [],
      "stateMutability": "nonpayable",
      "type": "function"
    },
    {
      "inputs": [],
      "name": "getFeePercentage",
      "outputs": [
        {
          "internalType": "uint256",
          "name": "",
          "type": "uint256"
        }
      ],
      "stateMutability": "view",
      "type": "function"
    },
    {
      "inputs": [
        {
          "internalType": "uint256",
          "name": "_tokenId",
          "type": "uint256"
        }
      ],
      "name": "getListing",
      "outputs": [
        {
          "components": [
            {
              "internalType": "address",
              "name": "owner",
              "type": "address"
            },
            {
              "internalType": "address",
              "name": "user",
              "type": "address"
            },
            {
              "internalType": "uint256",
              "name": "pricePerDay",
              "type": "uint256"
            },
            {
              "internalType": "uint64",
              "name": "periodInDays",
              "type": "uint64"
            }
          ],
          "internalType": "struct RentRoom.Listing",
          "name": "",
          "type": "tuple"
        }
      ],
      "stateMutability": "view",
      "type": "function"
    },
    {
      "inputs": [],
      "name": "getMarketplaceAddress",
      "outputs": [
        {
          "internalType": "address",
          "name": "",
          "type": "address"
        }
      ],
      "stateMutability": "view",
      "type": "function"
    },
    {
      "inputs": [
        {
          "internalType": "address",
          "name": "_seller",
          "type": "address"
        }
      ],
      "name": "getProceeds",
      "outputs": [
        {
          "internalType": "uint256",
          "name": "",
          "type": "uint256"
        }
      ],
      "stateMutability": "view",
      "type": "function"
    },
    {
      "inputs": [
        {
          "internalType": "address",
          "name": "_nftAddress",
          "type": "address"
        }
      ],
      "name": "isRentableRoom",
      "outputs": [
        {
          "internalType": "bool",
          "name": "",
          "type": "bool"
        }
      ],
      "stateMutability": "view",
      "type": "function"
    },
    {
      "inputs": [
        {
          "internalType": "uint256",
          "name": "_tokenId",
          "type": "uint256"
        },
        {
          "internalType": "uint64",
          "name": "_periodInDays",
          "type": "uint64"
        },
        {
          "internalType": "uint256",
          "name": "_pricePerDay",
          "type": "uint256"
        }
      ],
      "name": "listItem",
      "outputs": [],
      "stateMutability": "nonpayable",
      "type": "function"
    },
    {
      "inputs": [
        {
          "internalType": "uint256",
          "name": "",
          "type": "uint256"
        }
      ],
      "name": "listings",
      "outputs": [
        {
          "internalType": "address",
          "name": "owner",
          "type": "address"
        },
        {
          "internalType": "address",
          "name": "user",
          "type": "address"
        },
        {
          "internalType": "uint256",
          "name": "pricePerDay",
          "type": "uint256"
        },
        {
          "internalType": "uint64",
          "name": "periodInDays",
          "type": "uint64"
        }
      ],
      "stateMutability": "view",
      "type": "function"
    },
    {
      "inputs": [],
      "name": "musdToken",
      "outputs": [
        {
          "internalType": "contract IERC20",
          "name": "",
          "type": "address"
        }
      ],
      "stateMutability": "view",
      "type": "function"
    },
    {
      "inputs": [],
      "name": "owner",
      "outputs": [
        {
          "internalType": "address",
          "name": "",
          "type": "address"
        }
      ],
      "stateMutability": "view",
      "type": "function"
    },
    {
      "inputs": [],
      "name": "renounceOwnership",
      "outputs": [],
      "stateMutability": "nonpayable",
      "type": "function"
    },
    {
      "inputs": [
        {
          "internalType": "uint256",
          "name": "_tokenId",
          "type": "uint256"
        },
        {
          "internalType": "uint64",
          "name": "_periodInDays",
          "type": "uint64"
        }
      ],
      "name": "rentNFT",
      "outputs": [],
      "stateMutability": "nonpayable",
      "type": "function"
    },
    {
      "inputs": [],
      "name": "roomTokenContractAddress",
      "outputs": [
        {
          "internalType": "address",
          "name": "",
          "type": "address"
        }
      ],
      "stateMutability": "view",
      "type": "function"
    },
    {
      "inputs": [
        {
          "internalType": "uint8",
          "name": "_newFeePercentage",
          "type": "uint8"
        }
      ],
      "name": "setFeePercentage",
      "outputs": [],
      "stateMutability": "nonpayable",
      "type": "function"
    },
    {
      "inputs": [
        {
          "internalType": "address",
          "name": "_RoomMarketplaceContractAddress",
          "type": "address"
        }
      ],
      "name": "setMarketplaceAddress",
      "outputs": [],
      "stateMutability": "nonpayable",
      "type": "function"
    },
    {
      "inputs": [
        {
          "internalType": "address",
          "name": "newOwner",
          "type": "address"
        }
      ],
      "name": "transferOwnership",
      "outputs": [],
      "stateMutability": "nonpayable",
      "type": "function"
    },
    {
      "inputs": [
        {
          "internalType": "uint256",
          "name": "_tokenId",
          "type": "uint256"
        },
        {
          "internalType": "uint256",
          "name": "_newPricePerDay",
          "type": "uint256"
        }
      ],
      "name": "updateListingPricePerDay",
      "outputs": [],
      "stateMutability": "nonpayable",
      "type": "function"
    },
    {
      "inputs": [],
      "name": "withdrawFees",
      "outputs": [],
      "stateMutability": "nonpayable",
      "type": "function"
    },
    {
      "inputs": [],
      "name": "withdrawProceeds",
      "outputs": [],
      "stateMutability": "nonpayable",
      "type": "function"
    }
  ],
  "transactionHash": "0xbd6c57cf2b77374417d84ea96e8b88afec763b6877c05bdf6478ea4165a314d2",
  "args": [
    "0x9D4aae734b1721985A00616737Bc5fcf21Fa3077"
  ],
  "numDeployments": 1,
  "solcInputHash": "f9f5ba60d8842a88e78b0effce4e2e56",
  "bytecode": "0x60a0604052600f60045561016d60059081556006805460ff19169091179055600060075534801561002f57600080fd5b50604051611b6c380380611b6c83398101604081905261004e916100eb565b600160005561005c33610099565b600280546001600160a01b0319166001600160a01b039290921691909117905573637e22a1ebbca50ea2d34027c238317fd10003eb60805261011b565b600180546001600160a01b038381166001600160a01b0319831681179093556040519116919082907f8be0079c531659141344cd1fd0a4f28419497f9722a3daafe3b4186f6b6457e090600090a35050565b6000602082840312156100fd57600080fd5b81516001600160a01b038116811461011457600080fd5b9392505050565b608051611a2161014b60003960008181610312015281816109cc0152818161119501526113020152611a216000f3fe608060405234801561001057600080fd5b506004361061012c5760003560e01c80638da5cb5b116100ad578063b47cc55611610071578063b47cc55614610347578063bb8fe7851461035a578063de74e57b1461036b578063f0265d74146103ea578063f2fde38b146103fd57600080fd5b80638da5cb5b146102e15780639038e693146102f25780639b6e4ea4146102fa5780639d78d46b1461030d578063a5766aa61461033457600080fd5b806331e483b6116100f457806331e483b61461028057806332520976146102ab578063442b18f6146102be578063476343ee146102d1578063715018a6146102d957600080fd5b8063107a274a1461013157806311efbf611461020a5780632d35f4d71461021f578063305a67a81461024257806330cfeda914610257575b600080fd5b6101b761013f366004611794565b6040805160808082018352600080835260208084018290528385018290526060938401829052948152600885528390208351918201845280546001600160a01b039081168352600182015416948201949094526002840154928101929092526003909201546001600160401b03169181019190915290565b604051610201919081516001600160a01b03908116825260208084015190911690820152604080830151908201526060918201516001600160401b03169181019190915260800190565b60405180910390f35b60065460ff165b604051908152602001610201565b61023261022d3660046117c2565b610410565b6040519015158152602001610201565b610255610250366004611794565b610518565b005b6102116102653660046117c2565b6001600160a01b031660009081526009602052604090205490565b600254610293906001600160a01b031681565b6040516001600160a01b039091168152602001610201565b6102556102b9366004611802565b6106c3565b6102556102cc36600461182e565b610c34565b61025561115b565b610255611288565b6001546001600160a01b0316610293565b61025561129c565b600354610293906001600160a01b031681565b6102937f000000000000000000000000000000000000000000000000000000000000000081565b610255610342366004611864565b6113b2565b6102556103553660046117c2565b611427565b6003546001600160a01b0316610293565b6103b6610379366004611794565b60086020526000908152604090208054600182015460028301546003909301546001600160a01b039283169391909216916001600160401b031684565b604080516001600160a01b039586168152949093166020850152918301526001600160401b03166060820152608001610201565b6102556103f8366004611887565b611451565b61025561040b3660046117c2565b6115f1565b6040516301ffc9a760e01b8152632b424ad760e21b6004820152600090819081906001600160a01b038516906301ffc9a790602401602060405180830381865afa92505050801561047e575060408051601f3d908101601f1916820190925261047b918101906118a9565b60015b61048c575060009392505050565b6040516301ffc9a760e01b81526380ac58cd60e01b60048201529092506001600160a01b038516906301ffc9a790602401602060405180830381865afa9250505080156104f6575060408051601f3d908101601f191682019092526104f3918101906118a9565b60015b610504575060009392505050565b90508180156105105750805b949350505050565b6002546040516331a9108f60e11b815260048101839052829133916001600160a01b03909116906000908290636352211e90602401602060405180830381865afa15801561056a573d6000803e3d6000fd5b505050506040513d601f19601f8201168201806040525081019061058e91906118cb565b9050806001600160a01b0316836001600160a01b0316146105c2576040516301cd226360e41b815260040160405180910390fd5b600085815260086020908152604091829020825160808101845281546001600160a01b039081168252600183015416928101929092526002810154928201839052600301546001600160401b03166060820152869161063c576040516317fc91d360e11b8152600481018390526024015b60405180910390fd5b600087815260086020908152604080832080546001600160a01b03199081168255600182018054909116905560028101939093556003909201805467ffffffffffffffff1916905581513381529081018990527f3267ca70878aeda07084f851ec813390240ed2e92e29d57bf4b46f569293d85f910160405180910390a150505050505050565b600082815260086020908152604091829020825160808101845281546001600160a01b039081168252600183015416928101929092526002810154928201839052600301546001600160401b031660608201528391610738576040516317fc91d360e11b815260048101839052602401610633565b600254604051636178f8a560e11b81526004810186905285916000916001600160a01b039091169063c2f1f14a90602401602060405180830381865afa158015610786573d6000803e3d6000fd5b505050506040513d601f19601f820116820180604052508101906107aa91906118cb565b6001600160a01b03161461085157600254604051636178f8a560e11b81526004810183905282916001600160a01b03169063c2f1f14a906024015b602060405180830381865afa158015610802573d6000803e3d6000fd5b505050506040513d601f19601f8201168201806040525081019061082691906118cb565b60405163c52ec9cf60e01b815260048101929092526001600160a01b03166024820152604401610633565b60035460405163083d13a560e11b81526004810187905286916000916001600160a01b039091169063107a274a906024016040805180830381865afa15801561089e573d6000803e3d6000fd5b505050506040513d601f19601f820116820180604052508101906108c291906118e8565b602001516001600160a01b0316146108f057604051631b50ea8b60e21b815260048101829052602401610633565b6108f8611667565b6000868152600860209081526040808320815160808101835281546001600160a01b039081168252600183015416938101939093526002810154918301829052600301546001600160401b03908116606084015291929161095c9190891690611963565b905081606001516001600160401b0316876001600160401b0316118061098c5750600454876001600160401b0316105b156109aa57604051630bca8fc360e01b815260040160405180910390fd5b6040516323b872dd60e01b8152336004820152306024820152604481018290527f00000000000000000000000000000000000000000000000000000000000000006001600160a01b0316906323b872dd906064016020604051808303816000875af1158015610a1d573d6000803e3d6000fd5b505050506040513d601f19601f82011682018060405250810190610a4191906118a9565b610a845760405162461bcd60e51b8152602060048201526014602482015273135554d1081d1c985b9cd9995c8819985a5b195960621b6044820152606401610633565b6000610a8f886116c0565b600654909150600090606490610aa89060ff1685611963565b610ab2919061197a565b90508060076000828254610ac6919061199c565b90915550610ad6905081846119af565b84516001600160a01b031660009081526009602052604081208054909190610aff90849061199c565b909155505060008a81526008602052604080822080546001600160a01b031990811682556001820180549091169055600280820193909355600301805467ffffffffffffffff19169055905490516370182b2f60e11b8152600481018c90523360248201526001600160401b03841660448201526001600160a01b039091169063e030565e90606401600060405180830381600087803b158015610ba257600080fd5b505af1158015610bb6573d6000803e3d6000fd5b505050507f87703c1ee79a5adae191024ebe59509e6447d5eb1961e2d6ec0020509d351e14338b8b6001600160401b03168760400151610bf69190611963565b604080516001600160a01b03909416845260208401929092529082015260600160405180910390a150505050610c2c6001600055565b505050505050565b6002546040516331a9108f60e11b815260048101859052849133916001600160a01b03909116906000908290636352211e90602401602060405180830381865afa158015610c86573d6000803e3d6000fd5b505050506040513d601f19601f82011682018060405250810190610caa91906118cb565b9050806001600160a01b0316836001600160a01b031614610cde576040516301cd226360e41b815260040160405180910390fd5b600087815260086020908152604091829020825160808101845281546001600160a01b039081168252600183015416928101929092526002810154928201839052600301546001600160401b03166060820152889115610d5457604051635b4438d160e01b815260048101839052602401610633565b60035460405163083d13a560e11b8152600481018b90528a916000916001600160a01b039091169063107a274a906024016040805180830381865afa158015610da1573d6000803e3d6000fd5b505050506040513d601f19601f82011682018060405250810190610dc591906118e8565b602001516001600160a01b031614610df357604051631b50ea8b60e21b815260048101829052602401610633565b600254604051636178f8a560e11b8152600481018c90528b916000916001600160a01b039091169063c2f1f14a90602401602060405180830381865afa158015610e41573d6000803e3d6000fd5b505050506040513d601f19601f82011682018060405250810190610e6591906118cb565b6001600160a01b031614610ea457600254604051636178f8a560e11b81526004810183905282916001600160a01b03169063c2f1f14a906024016107e5565b610eac611667565b60008911610ecd57604051630fc1df8960e41b815260040160405180910390fd5b6004548a6001600160401b03161080610ef057506005548a6001600160401b0316115b15610f0e57604051630bca8fc360e01b815260040160405180910390fd5b6040518060800160405280336001600160a01b0316815260200160006001600160a01b031681526020018a81526020018b6001600160401b0316815250600860008d815260200190815260200160002060008201518160000160006101000a8154816001600160a01b0302191690836001600160a01b0316021790555060208201518160010160006101000a8154816001600160a01b0302191690836001600160a01b031602179055506040820151816002015560608201518160030160006101000a8154816001600160401b0302191690836001600160401b031602179055509050507f5dff73e5cdd68f2cb2d00407fa6c24f330669996da65c4073a28e73207bf486e600260009054906101000a90046001600160a01b03166001600160a01b0316636352211e8d6040518263ffffffff1660e01b815260040161105691815260200190565b602060405180830381865afa158015611073573d6000803e3d6000fd5b505050506040513d601f19601f8201168201806040525081019061109791906118cb565b600254604051636178f8a560e11b8152600481018f90526001600160a01b039091169063c2f1f14a90602401602060405180830381865afa1580156110e0573d6000803e3d6000fd5b505050506040513d601f19601f8201168201806040525081019061110491906118cb565b604080516001600160a01b03938416815292909116602083015281018d9052606081018b90526001600160401b038c16608082015260a00160405180910390a161114e6001600055565b5050505050505050505050565b6111636116e8565b600754806111845760405163747b69f360e01b815260040160405180910390fd5b600060078190556001600160a01b037f00000000000000000000000000000000000000000000000000000000000000001663a9059cbb6111cc6001546001600160a01b031690565b6040516001600160e01b031960e084901b1681526001600160a01b039091166004820152602481018590526044016020604051808303816000875af1158015611219573d6000803e3d6000fd5b505050506040513d601f19601f8201168201806040525081019061123d91906118a9565b9050806112845760405162461bcd60e51b8152602060048201526015602482015274119959481dda5d1a191c985dd85b0819985a5b1959605a1b6044820152606401610633565b5050565b6112906116e8565b61129a6000611742565b565b33600090815260096020526040902054806112ca5760405163a7ec8a1160e01b815260040160405180910390fd5b33600081815260096020526040808220919091555163a9059cbb60e01b81526004810191909152602481018290526001600160a01b037f0000000000000000000000000000000000000000000000000000000000000000169063a9059cbb906044016020604051808303816000875af115801561134b573d6000803e3d6000fd5b505050506040513d601f19601f8201168201806040525081019061136f91906118a9565b6113af5760405162461bcd60e51b815260206004820152601160248201527015da5d1a191c985dd85b0819985a5b1959607a1b6044820152606401610633565b50565b6113ba6116e8565b60648160ff1611156113df5760405163b25b713b60e01b815260040160405180910390fd5b6006805460ff191660ff83169081179091556040519081527f63fe946ed58429ac3c5e64d4356ff92c26d7fa1e73586515df8ba9f059ab54a59060200160405180910390a150565b61142f6116e8565b600380546001600160a01b0319166001600160a01b0392909216919091179055565b6002546040516331a9108f60e11b815260048101849052839133916001600160a01b03909116906000908290636352211e90602401602060405180830381865afa1580156114a3573d6000803e3d6000fd5b505050506040513d601f19601f820116820180604052508101906114c791906118cb565b9050806001600160a01b0316836001600160a01b0316146114fb576040516301cd226360e41b815260040160405180910390fd5b600086815260086020908152604091829020825160808101845281546001600160a01b039081168252600183015416928101929092526002810154928201839052600301546001600160401b031660608201528791611570576040516317fc91d360e11b815260048101839052602401610633565b8660000361159157604051630fc1df8960e41b815260040160405180910390fd5b60008881526008602090815260409182902060020189905581513381529081018a90529081018890527f3e11d82182e9689c0f7ffc3ce2a4a057e1fc080032c0dcce9c269258c874a86c9060600160405180910390a15050505050505050565b6115f96116e8565b6001600160a01b03811661165e5760405162461bcd60e51b815260206004820152602660248201527f4f776e61626c653a206e6577206f776e657220697320746865207a65726f206160448201526564647265737360d01b6064820152608401610633565b6113af81611742565b6002600054036116b95760405162461bcd60e51b815260206004820152601f60248201527f5265656e7472616e637947756172643a207265656e7472616e742063616c6c006044820152606401610633565b6002600055565b60006116cf82620151806119c2565b6116e2906001600160401b03164261199c565b92915050565b6001546001600160a01b0316331461129a5760405162461bcd60e51b815260206004820181905260248201527f4f776e61626c653a2063616c6c6572206973206e6f7420746865206f776e65726044820152606401610633565b600180546001600160a01b038381166001600160a01b0319831681179093556040519116919082907f8be0079c531659141344cd1fd0a4f28419497f9722a3daafe3b4186f6b6457e090600090a35050565b6000602082840312156117a657600080fd5b5035919050565b6001600160a01b03811681146113af57600080fd5b6000602082840312156117d457600080fd5b81356117df816117ad565b9392505050565b80356001600160401b03811681146117fd57600080fd5b919050565b6000806040838503121561181557600080fd5b82359150611825602084016117e6565b90509250929050565b60008060006060848603121561184357600080fd5b83359250611853602085016117e6565b929592945050506040919091013590565b60006020828403121561187657600080fd5b813560ff811681146117df57600080fd5b6000806040838503121561189a57600080fd5b50508035926020909101359150565b6000602082840312156118bb57600080fd5b815180151581146117df57600080fd5b6000602082840312156118dd57600080fd5b81516117df816117ad565b600060408284031280156118fb57600080fd5b50604080519081016001600160401b038111828210171561192c57634e487b7160e01b600052604160045260246000fd5b604052825181526020830151611941816117ad565b60208201529392505050565b634e487b7160e01b600052601160045260246000fd5b80820281158282048414176116e2576116e261194d565b60008261199757634e487b7160e01b600052601260045260246000fd5b500490565b808201808211156116e2576116e261194d565b818103818111156116e2576116e261194d565b6001600160401b0381811683821602908116908181146119e4576119e461194d565b509291505056fea264697066735822122098cf46856e919ed9cefde498853f1542ff1dee5a1aba271d9ae0a4a796c0842a64736f6c634300081c0033",
  "devdoc": {
    "kind": "dev",
    "methods": {
      "owner()": {
        "details": "Returns the address of the current owner."
      },
      "renounceOwnership()": {
        "details": "Leaves the contract without owner. It will not be possible to call `onlyOwner` functions. Can only be called by the current owner. NOTE: Renouncing ownership will leave the contract without an owner, thereby disabling any functionality that is only available to the owner."
      },
      "transferOwnership(address)": {
        "details": "Transfers ownership of the contract to a new account (`newOwner`). Can only be called by the current owner."
      }
    },
    "version": 1
  },
  "userdoc": {
    "kind": "user",
    "methods": {},
    "version": 1
  },
  "storageLayout": {
    "storage": [
      {
        "astId": 5220,
        "contract": "contracts/RentRoom.sol:RentRoom",
        "label": "_status",
        "offset": 0,
        "slot": "0",
        "type": "t_uint256"
      },
      {
        "astId": 396,
        "contract": "contracts/RentRoom.sol:RentRoom",
        "label": "_owner",
        "offset": 0,
        "slot": "1",
        "type": "t_address"
      },
      {
        "astId": 13430,
        "contract": "contracts/RentRoom.sol:RentRoom",
        "label": "roomTokenContractAddress",
        "offset": 0,
        "slot": "2",
        "type": "t_address"
      },
      {
        "astId": 13432,
        "contract": "contracts/RentRoom.sol:RentRoom",
        "label": "RoomMarketplaceContractAddress",
        "offset": 0,
        "slot": "3",
        "type": "t_address"
      },
      {
        "astId": 13438,
        "contract": "contracts/RentRoom.sol:RentRoom",
        "label": "minimumPeriod",
        "offset": 0,
        "slot": "4",
        "type": "t_uint256"
      },
      {
        "astId": 13441,
        "contract": "contracts/RentRoom.sol:RentRoom",
        "label": "maximumPeriod",
        "offset": 0,
        "slot": "5",
        "type": "t_uint256"
      },
      {
        "astId": 13444,
        "contract": "contracts/RentRoom.sol:RentRoom",
        "label": "_rentingFeePercentage",
        "offset": 0,
        "slot": "6",
        "type": "t_uint8"
      },
      {
        "astId": 13447,
        "contract": "contracts/RentRoom.sol:RentRoom",
        "label": "totalFees",
        "offset": 0,
        "slot": "7",
        "type": "t_uint256"
      },
      {
        "astId": 13461,
        "contract": "contracts/RentRoom.sol:RentRoom",
        "label": "listings",
        "offset": 0,
        "slot": "8",
        "type": "t_mapping(t_uint256,t_struct(Listing)13456_storage)"
      },
      {
        "astId": 13465,
        "contract": "contracts/RentRoom.sol:RentRoom",
        "label": "proceeds",
        "offset": 0,
        "slot": "9",
        "type": "t_mapping(t_address,t_uint256)"
      }
    ],
    "types": {
      "t_address": {
        "encoding": "inplace",
        "label": "address",
        "numberOfBytes": "20"
      },
      "t_mapping(t_address,t_uint256)": {
        "encoding": "mapping",
        "key": "t_address",
        "label": "mapping(address => uint256)",
        "numberOfBytes": "32",
        "value": "t_uint256"
      },
      "t_mapping(t_uint256,t_struct(Listing)13456_storage)": {
        "encoding": "mapping",
        "key": "t_uint256",
        "label": "mapping(uint256 => struct RentRoom.Listing)",
        "numberOfBytes": "32",
        "value": "t_struct(Listing)13456_storage"
      },
      "t_struct(Listing)13456_storage": {
        "encoding": "inplace",
        "label": "struct RentRoom.Listing",
        "members": [
          {
            "astId": 13449,
            "contract": "contracts/RentRoom.sol:RentRoom",
            "label": "owner",
            "offset": 0,
            "slot": "0",
            "type": "t_address"
          },
          {
            "astId": 13451,
            "contract": "contracts/RentRoom.sol:RentRoom",
            "label": "user",
            "offset": 0,
            "slot": "1",
            "type": "t_address"
          },
          {
            "astId": 13453,
            "contract": "contracts/RentRoom.sol:RentRoom",
            "label": "pricePerDay",
            "offset": 0,
            "slot": "2",
            "type": "t_uint256"
          },
          {
            "astId": 13455,
            "contract": "contracts/RentRoom.sol:RentRoom",
            "label": "periodInDays",
            "offset": 0,
            "slot": "3",
            "type": "t_uint64"
          }
        ],
        "numberOfBytes": "128"
      },
      "t_uint256": {
        "encoding": "inplace",
        "label": "uint256",
        "numberOfBytes": "32"
      },
      "t_uint64": {
        "encoding": "inplace",
        "label": "uint64",
        "numberOfBytes": "8"
      },
      "t_uint8": {
        "encoding": "inplace",
        "label": "uint8",
        "numberOfBytes": "1"
      }
    }
  }
}