{
  "address": "0x9420467929c216d7181b2542026d4Ad353E1B216",
  "abi": [
    {
      "inputs": [
        {
          "internalType": "address",
          "name": "_roomTokenContractAddress",
          "type": "address"
        },
        {
          "internalType": "address",
          "name": "_RentRoomContractAddress",
          "type": "address"
        }
      ],
      "stateMutability": "nonpayable",
      "type": "constructor"
    },
    {
      "inputs": [
        {
          "internalType": "uint256",
          "name": "tokenId",
          "type": "uint256"
        }
      ],
      "name": "RoomMarketplace__AlreadyListed",
      "type": "error"
    },
    {
      "inputs": [],
      "name": "RoomMarketplace__FeeNotInRange",
      "type": "error"
    },
    {
      "inputs": [],
      "name": "RoomMarketplace__NoFees",
      "type": "error"
    },
    {
      "inputs": [],
      "name": "RoomMarketplace__NoProceeds",
      "type": "error"
    },
    {
      "inputs": [],
      "name": "RoomMarketplace__NotApprovedForMarketplace",
      "type": "error"
    },
    {
      "inputs": [
        {
          "internalType": "uint256",
          "name": "tokenId",
          "type": "uint256"
        }
      ],
      "name": "RoomMarketplace__NotListed",
      "type": "error"
    },
    {
      "inputs": [],
      "name": "RoomMarketplace__NotOwner",
      "type": "error"
    },
    {
      "inputs": [],
      "name": "RoomMarketplace__PriceMustBeAboveZero",
      "type": "error"
    },
    {
      "inputs": [
        {
          "internalType": "uint256",
          "name": "tokenId",
          "type": "uint256"
        }
      ],
      "name": "RoomMarketplace__isForRent",
      "type": "error"
    },
    {
      "inputs": [
        {
          "internalType": "uint256",
          "name": "tokenId",
          "type": "uint256"
        },
        {
          "internalType": "address",
          "name": "user",
          "type": "address"
        }
      ],
      "name": "RoomMarketplace__isRented",
      "type": "error"
    },
    {
      "anonymous": false,
      "inputs": [
        {
          "indexed": true,
          "internalType": "address",
          "name": "seller",
          "type": "address"
        },
        {
          "indexed": true,
          "internalType": "uint256",
          "name": "tokenId",
          "type": "uint256"
        }
      ],
      "name": "ListingCanceled",
      "type": "event"
    },
    {
      "anonymous": false,
      "inputs": [
        {
          "indexed": true,
          "internalType": "address",
          "name": "seller",
          "type": "address"
        },
        {
          "indexed": true,
          "internalType": "uint256",
          "name": "tokenId",
          "type": "uint256"
        },
        {
          "indexed": false,
          "internalType": "uint256",
          "name": "newPrice",
          "type": "uint256"
        }
      ],
      "name": "ListingUpdated",
      "type": "event"
    },
    {
      "anonymous": false,
      "inputs": [
        {
          "indexed": false,
          "internalType": "uint256",
          "name": "newFeePercentage",
          "type": "uint256"
        }
      ],
      "name": "NewFee",
      "type": "event"
    },
    {
      "anonymous": false,
      "inputs": [
        {
          "indexed": true,
          "internalType": "address",
          "name": "seller",
          "type": "address"
        },
        {
          "indexed": true,
          "internalType": "uint256",
          "name": "tokenId",
          "type": "uint256"
        },
        {
          "indexed": false,
          "internalType": "uint256",
          "name": "price",
          "type": "uint256"
        }
      ],
      "name": "NewRoomListed",
      "type": "event"
    },
    {
      "anonymous": false,
      "inputs": [
        {
          "indexed": true,
          "internalType": "address",
          "name": "previousOwner",
          "type": "address"
        },
        {
          "indexed": true,
          "internalType": "address",
          "name": "newOwner",
          "type": "address"
        }
      ],
      "name": "OwnershipTransferred",
      "type": "event"
    },
    {
      "anonymous": false,
      "inputs": [
        {
          "indexed": true,
          "internalType": "address",
          "name": "buyer",
          "type": "address"
        },
        {
          "indexed": true,
          "internalType": "uint256",
          "name": "tokenId",
          "type": "uint256"
        },
        {
          "indexed": false,
          "internalType": "uint256",
          "name": "price",
          "type": "uint256"
        }
      ],
      "name": "RoomBought",
      "type": "event"
    },
    {
      "inputs": [],
      "name": "RentRoomContractAddress",
      "outputs": [
        {
          "internalType": "address",
          "name": "",
          "type": "address"
        }
      ],
      "stateMutability": "view",
      "type": "function"
    },
    {
      "inputs": [
        {
          "internalType": "uint256",
          "name": "_tokenId",
          "type": "uint256"
        }
      ],
      "name": "buyItem",
      "outputs": [],
      "stateMutability": "nonpayable",
      "type": "function"
    },
    {
      "inputs": [
        {
          "internalType": "uint256",
          "name": "_tokenId",
          "type": "uint256"
        }
      ],
      "name": "cancelListing",
      "outputs": [],
      "stateMutability": "nonpayable",
      "type": "function"
    },
    {
      "inputs": [],
      "name": "getFeePercentage",
      "outputs": [
        {
          "internalType": "uint256",
          "name": "",
          "type": "uint256"
        }
      ],
      "stateMutability": "view",
      "type": "function"
    },
    {
      "inputs": [
        {
          "internalType": "uint256",
          "name": "_tokenId",
          "type": "uint256"
        }
      ],
      "name": "getListing",
      "outputs": [
        {
          "components": [
            {
              "internalType": "uint256",
              "name": "price",
              "type": "uint256"
            },
            {
              "internalType": "address",
              "name": "seller",
              "type": "address"
            }
          ],
          "internalType": "struct RoomMarketplace.Listing",
          "name": "",
          "type": "tuple"
        }
      ],
      "stateMutability": "view",
      "type": "function"
    },
    {
      "inputs": [
        {
          "internalType": "address",
          "name": "_seller",
          "type": "address"
        }
      ],
      "name": "getProceeds",
      "outputs": [
        {
          "internalType": "uint256",
          "name": "",
          "type": "uint256"
        }
      ],
      "stateMutability": "view",
      "type": "function"
    },
    {
      "inputs": [
        {
          "internalType": "uint256",
          "name": "_tokenId",
          "type": "uint256"
        },
        {
          "internalType": "uint256",
          "name": "_price",
          "type": "uint256"
        }
      ],
      "name": "listItem",
      "outputs": [],
      "stateMutability": "nonpayable",
      "type": "function"
    },
    {
      "inputs": [],
      "name": "musdToken",
      "outputs": [
        {
          "internalType": "contract IERC20",
          "name": "",
          "type": "address"
        }
      ],
      "stateMutability": "view",
      "type": "function"
    },
    {
      "inputs": [],
      "name": "owner",
      "outputs": [
        {
          "internalType": "address",
          "name": "",
          "type": "address"
        }
      ],
      "stateMutability": "view",
      "type": "function"
    },
    {
      "inputs": [],
      "name": "renounceOwnership",
      "outputs": [],
      "stateMutability": "nonpayable",
      "type": "function"
    },
    {
      "inputs": [],
      "name": "roomTokenContractAddress",
      "outputs": [
        {
          "internalType": "address",
          "name": "",
          "type": "address"
        }
      ],
      "stateMutability": "view",
      "type": "function"
    },
    {
      "inputs": [
        {
          "internalType": "uint8",
          "name": "_newFeePercentage",
          "type": "uint8"
        }
      ],
      "name": "setFeePercentage",
      "outputs": [],
      "stateMutability": "nonpayable",
      "type": "function"
    },
    {
      "inputs": [
        {
          "internalType": "address",
          "name": "newOwner",
          "type": "address"
        }
      ],
      "name": "transferOwnership",
      "outputs": [],
      "stateMutability": "nonpayable",
      "type": "function"
    },
    {
      "inputs": [
        {
          "internalType": "uint256",
          "name": "_tokenId",
          "type": "uint256"
        },
        {
          "internalType": "uint256",
          "name": "_newPrice",
          "type": "uint256"
        }
      ],
      "name": "updateListing",
      "outputs": [],
      "stateMutability": "nonpayable",
      "type": "function"
    },
    {
      "inputs": [],
      "name": "withdrawFees",
      "outputs": [],
      "stateMutability": "nonpayable",
      "type": "function"
    },
    {
      "inputs": [],
      "name": "withdrawProceeds",
      "outputs": [],
      "stateMutability": "nonpayable",
      "type": "function"
    }
  ],
  "transactionHash": "0x9341fb2efa1d89c44a8682c0d5e62c4215e81286c918e50063cc9d749210a35f",
  "args": [
    "0x9D4aae734b1721985A00616737Bc5fcf21Fa3077",
    "0x4b24FB006418DD4999eeb52aADb486575D152552"
  ],
  "numDeployments": 1,
  "solcInputHash": "f9f5ba60d8842a88e78b0effce4e2e56",
  "bytecode": "0x60a06040526003805460ff60a01b1916600560a01b179055600060045534801561002857600080fd5b506040516116013803806116018339810160408190526100479161010c565b60016000556100553361009e565b600280546001600160a01b039384166001600160a01b0319918216179091556003805492909316911617905573637e22a1ebbca50ea2d34027c238317fd10003eb60805261013f565b600180546001600160a01b038381166001600160a01b0319831681179093556040519116919082907f8be0079c531659141344cd1fd0a4f28419497f9722a3daafe3b4186f6b6457e090600090a35050565b80516001600160a01b038116811461010757600080fd5b919050565b6000806040838503121561011f57600080fd5b610128836100f0565b9150610136602084016100f0565b90509250929050565b60805161149261016f6000396000818161026f015281816105ee01528181610b8b0152610ec601526114926000f3fe608060405234801561001057600080fd5b50600436106101005760003560e01c8063715018a6116100975780639d78d46b116100665780639d78d46b1461026a578063a5766aa614610291578063e7fb74c7146102a4578063f2fde38b146102b757600080fd5b8063715018a614610236578063883efa671461023e5780638da5cb5b146102515780639038e6931461026257600080fd5b806330cfeda9116100d357806330cfeda9146101c757806331e483b6146101f057806336f43f921461021b578063476343ee1461022e57600080fd5b80630179ea8814610105578063107a274a1461011a57806311efbf6114610198578063305a67a8146101b4575b600080fd5b610118610113366004611256565b6102ca565b005b61016f610128366004611278565b604080518082019091526000808252602082015250600090815260056020908152604091829020825180840190935280548352600101546001600160a01b03169082015290565b60408051825181526020928301516001600160a01b031692810192909252015b60405180910390f35b600354600160a01b900460ff165b60405190815260200161018f565b6101186101c2366004611278565b61045d565b6101a66101d53660046112a6565b6001600160a01b031660009081526006602052604090205490565b600254610203906001600160a01b031681565b6040516001600160a01b03909116815260200161018f565b600354610203906001600160a01b031681565b6101186105b4565b6101186106e1565b61011861024c366004611256565b6106f5565b6001546001600160a01b0316610203565b610118610b25565b6102037f000000000000000000000000000000000000000000000000000000000000000081565b61011861029f3660046112ca565b610c3b565b6101186102b2366004611278565b610cbf565b6101186102c53660046112a6565b6110db565b600082815260056020908152604091829020825180840190935280548084526001909101546001600160a01b03169183019190915283919061032757604051631f8af1f760e11b8152600481018390526024015b60405180910390fd5b6002546040516331a9108f60e11b815260048101869052859133916001600160a01b03909116906000908290636352211e90602401602060405180830381865afa158015610379573d6000803e3d6000fd5b505050506040513d601f19601f8201168201806040525081019061039d91906112fd565b9050806001600160a01b0316836001600160a01b0316146103d1576040516331894e5160e21b815260040160405180910390fd5b6103d9611151565b866000036103fa57604051631063523f60e01b815260040160405180910390fd5b6000888152600560205260409081902088905551889033907f3e11d82182e9689c0f7ffc3ce2a4a057e1fc080032c0dcce9c269258c874a86c90610441908b815260200190565b60405180910390a36104536001600055565b5050505050505050565b6002546040516331a9108f60e11b815260048101839052829133916001600160a01b03909116906000908290636352211e90602401602060405180830381865afa1580156104af573d6000803e3d6000fd5b505050506040513d601f19601f820116820180604052508101906104d391906112fd565b9050806001600160a01b0316836001600160a01b031614610507576040516331894e5160e21b815260040160405180910390fd5b600085815260056020908152604091829020825180840190935280548084526001909101546001600160a01b03169183019190915286919061055f57604051631f8af1f760e11b81526004810183905260240161031e565b60008781526005602052604080822082815560010180546001600160a01b031916905551889133917f3267ca70878aeda07084f851ec813390240ed2e92e29d57bf4b46f569293d85f9190a350505050505050565b6105bc6111aa565b600454806105dd5760405163d4ddfa1960e01b815260040160405180910390fd5b600060048190556001600160a01b037f00000000000000000000000000000000000000000000000000000000000000001663a9059cbb6106256001546001600160a01b031690565b6040516001600160e01b031960e084901b1681526001600160a01b039091166004820152602481018590526044016020604051808303816000875af1158015610672573d6000803e3d6000fd5b505050506040513d601f19601f82011682018060405250810190610696919061131a565b9050806106dd5760405162461bcd60e51b8152602060048201526015602482015274119959481dda5d1a191c985dd85b0819985a5b1959605a1b604482015260640161031e565b5050565b6106e96111aa565b6106f36000611204565b565b600082815260056020908152604091829020825180840190935280548084526001909101546001600160a01b031691830191909152839133911561074f5760405163df6861f960e01b81526004810184905260240161031e565b6002546040516331a9108f60e11b815260048101879052869133916001600160a01b03909116906000908290636352211e90602401602060405180830381865afa1580156107a1573d6000803e3d6000fd5b505050506040513d601f19601f820116820180604052508101906107c591906112fd565b9050806001600160a01b0316836001600160a01b0316146107f9576040516331894e5160e21b815260040160405180910390fd5b60035460405163083d13a560e11b8152600481018b90528a916000916001600160a01b039091169063107a274a90602401608060405180830381865afa158015610847573d6000803e3d6000fd5b505050506040513d601f19601f8201168201806040525081019061086b9190611354565b516001600160a01b031614610896576040516332d8506760e21b81526004810182905260240161031e565b600254604051636178f8a560e11b8152600481018c90528b916000916001600160a01b039091169063c2f1f14a90602401602060405180830381865afa1580156108e4573d6000803e3d6000fd5b505050506040513d601f19601f8201168201806040525081019061090891906112fd565b6001600160a01b0316146109af57600254604051636178f8a560e11b81526004810183905282916001600160a01b03169063c2f1f14a906024015b602060405180830381865afa158015610960573d6000803e3d6000fd5b505050506040513d601f19601f8201168201806040525081019061098491906112fd565b604051634a60fbdf60e11b815260048101929092526001600160a01b0316602482015260440161031e565b60008a116109d057604051631063523f60e01b815260040160405180910390fd5b60025460405163020604bf60e21b8152600481018d90526001600160a01b03909116903090829063081812fc90602401602060405180830381865afa158015610a1d573d6000803e3d6000fd5b505050506040513d601f19601f82011682018060405250810190610a4191906112fd565b6001600160a01b031614610a685760405163a99bd59160e01b815260040160405180910390fd5b60405180604001604052808c8152602001336001600160a01b0316815250600560008e81526020019081526020016000206000820151816000015560208201518160010160006101000a8154816001600160a01b0302191690836001600160a01b031602179055509050508b336001600160a01b03167f5ccd4a41943d4989bf21e3d859886e000429d2f0a60af5de8fdbf111b5c53f238d604051610b0f91815260200190565b60405180910390a3505050505050505050505050565b3360009081526006602052604090205480610b53576040516319ebba2d60e01b815260040160405180910390fd5b33600081815260066020526040808220919091555163a9059cbb60e01b81526004810191909152602481018290526001600160a01b037f0000000000000000000000000000000000000000000000000000000000000000169063a9059cbb906044016020604051808303816000875af1158015610bd4573d6000803e3d6000fd5b505050506040513d601f19601f82011682018060405250810190610bf8919061131a565b610c385760405162461bcd60e51b815260206004820152601160248201527015da5d1a191c985dd85b0819985a5b1959607a1b604482015260640161031e565b50565b610c436111aa565b60648160ff161115610c68576040516322b2bca360e01b815260040160405180910390fd5b6003805460ff60a01b1916600160a01b60ff8481168202929092179283905560405192041681527f63fe946ed58429ac3c5e64d4356ff92c26d7fa1e73586515df8ba9f059ab54a59060200160405180910390a150565b600081815260056020908152604091829020825180840190935280548084526001909101546001600160a01b031691830191909152829190610d1757604051631f8af1f760e11b81526004810183905260240161031e565b60035460405163083d13a560e11b81526004810185905284916000916001600160a01b039091169063107a274a90602401608060405180830381865afa158015610d65573d6000803e3d6000fd5b505050506040513d601f19601f82011682018060405250810190610d899190611354565b516001600160a01b031614610db4576040516332d8506760e21b81526004810182905260240161031e565b600254604051636178f8a560e11b81526004810186905285916000916001600160a01b039091169063c2f1f14a90602401602060405180830381865afa158015610e02573d6000803e3d6000fd5b505050506040513d601f19601f82011682018060405250810190610e2691906112fd565b6001600160a01b031614610e6557600254604051636178f8a560e11b81526004810183905282916001600160a01b03169063c2f1f14a90602401610943565b610e6d611151565b6000858152600560209081526040918290208251808401845281548082526001909201546001600160a01b039081169382019390935292516323b872dd60e01b81523360048201523060248201526044810182905290917f000000000000000000000000000000000000000000000000000000000000000016906323b872dd906064016020604051808303816000875af1158015610f0f573d6000803e3d6000fd5b505050506040513d601f19601f82011682018060405250810190610f33919061131a565b610f765760405162461bcd60e51b8152602060048201526014602482015273135554d1081d1c985b9cd9995c8819985a5b195960621b604482015260640161031e565b600354600090606490610f9390600160a01b900460ff16846113f7565b610f9d9190611414565b90508015610fbd578060046000828254610fb79190611436565b90915550505b610fc78183611449565b6020808501516001600160a01b031660009081526006909152604081208054909190610ff4908490611436565b90915550506000888152600560209081526040808320928355600190920180546001600160a01b0319169055600254908501519151632142170760e11b81526001600160a01b039283166004820152336024820152604481018b90529116906342842e0e90606401600060405180830381600087803b15801561107657600080fd5b505af115801561108a573d6000803e3d6000fd5b505084516040519081528a92503391507f23408f27c0741bb9b7ceb31680251d0a58417a68dfbc647c50a119666b5c76e59060200160405180910390a35050506110d46001600055565b5050505050565b6110e36111aa565b6001600160a01b0381166111485760405162461bcd60e51b815260206004820152602660248201527f4f776e61626c653a206e6577206f776e657220697320746865207a65726f206160448201526564647265737360d01b606482015260840161031e565b610c3881611204565b6002600054036111a35760405162461bcd60e51b815260206004820152601f60248201527f5265656e7472616e637947756172643a207265656e7472616e742063616c6c00604482015260640161031e565b6002600055565b6001546001600160a01b031633146106f35760405162461bcd60e51b815260206004820181905260248201527f4f776e61626c653a2063616c6c6572206973206e6f7420746865206f776e6572604482015260640161031e565b600180546001600160a01b038381166001600160a01b0319831681179093556040519116919082907f8be0079c531659141344cd1fd0a4f28419497f9722a3daafe3b4186f6b6457e090600090a35050565b6000806040838503121561126957600080fd5b50508035926020909101359150565b60006020828403121561128a57600080fd5b5035919050565b6001600160a01b0381168114610c3857600080fd5b6000602082840312156112b857600080fd5b81356112c381611291565b9392505050565b6000602082840312156112dc57600080fd5b813560ff811681146112c357600080fd5b80516112f881611291565b919050565b60006020828403121561130f57600080fd5b81516112c381611291565b60006020828403121561132c57600080fd5b815180151581146112c357600080fd5b805167ffffffffffffffff811681146112f857600080fd5b6000608082840312801561136757600080fd5b600090506040516080810181811067ffffffffffffffff8211171561139a57634e487b7160e01b83526041600452602483fd5b60405283516113a881611291565b81526113b6602085016112ed565b6020820152604084015191508160408201526113d46060850161133c565b6060820152949350505050565b634e487b7160e01b600052601160045260246000fd5b808202811582820484141761140e5761140e6113e1565b92915050565b60008261143157634e487b7160e01b600052601260045260246000fd5b500490565b8082018082111561140e5761140e6113e1565b8181038181111561140e5761140e6113e156fea2646970667358221220b3b7746da68637c6488f8d734c22af67204369e0d16ca8e211fc0cff5281f0d464736f6c634300081c0033",
  "devdoc": {
    "kind": "dev",
    "methods": {
      "owner()": {
        "details": "Returns the address of the current owner."
      },
      "renounceOwnership()": {
        "details": "Leaves the contract without owner. It will not be possible to call `onlyOwner` functions. Can only be called by the current owner. NOTE: Renouncing ownership will leave the contract without an owner, thereby disabling any functionality that is only available to the owner."
      },
      "transferOwnership(address)": {
        "details": "Transfers ownership of the contract to a new account (`newOwner`). Can only be called by the current owner."
      }
    },
    "version": 1
  },
  "userdoc": {
    "kind": "user",
    "methods": {},
    "version": 1
  },
  "storageLayout": {
    "storage": [
      {
        "astId": 5220,
        "contract": "contracts/RoomMarketplace.sol:RoomMarketplace",
        "label": "_status",
        "offset": 0,
        "slot": "0",
        "type": "t_uint256"
      },
      {
        "astId": 396,
        "contract": "contracts/RoomMarketplace.sol:RoomMarketplace",
        "label": "_owner",
        "offset": 0,
        "slot": "1",
        "type": "t_address"
      },
      {
        "astId": 14195,
        "contract": "contracts/RoomMarketplace.sol:RoomMarketplace",
        "label": "roomTokenContractAddress",
        "offset": 0,
        "slot": "2",
        "type": "t_address"
      },
      {
        "astId": 14197,
        "contract": "contracts/RoomMarketplace.sol:RoomMarketplace",
        "label": "RentRoomContractAddress",
        "offset": 0,
        "slot": "3",
        "type": "t_address"
      },
      {
        "astId": 14203,
        "contract": "contracts/RoomMarketplace.sol:RoomMarketplace",
        "label": "_listingFeePercentage",
        "offset": 20,
        "slot": "3",
        "type": "t_uint8"
      },
      {
        "astId": 14206,
        "contract": "contracts/RoomMarketplace.sol:RoomMarketplace",
        "label": "totalFees",
        "offset": 0,
        "slot": "4",
        "type": "t_uint256"
      },
      {
        "astId": 14216,
        "contract": "contracts/RoomMarketplace.sol:RoomMarketplace",
        "label": "listings",
        "offset": 0,
        "slot": "5",
        "type": "t_mapping(t_uint256,t_struct(Listing)14211_storage)"
      },
      {
        "astId": 14220,
        "contract": "contracts/RoomMarketplace.sol:RoomMarketplace",
        "label": "proceeds",
        "offset": 0,
        "slot": "6",
        "type": "t_mapping(t_address,t_uint256)"
      }
    ],
    "types": {
      "t_address": {
        "encoding": "inplace",
        "label": "address",
        "numberOfBytes": "20"
      },
      "t_mapping(t_address,t_uint256)": {
        "encoding": "mapping",
        "key": "t_address",
        "label": "mapping(address => uint256)",
        "numberOfBytes": "32",
        "value": "t_uint256"
      },
      "t_mapping(t_uint256,t_struct(Listing)14211_storage)": {
        "encoding": "mapping",
        "key": "t_uint256",
        "label": "mapping(uint256 => struct RoomMarketplace.Listing)",
        "numberOfBytes": "32",
        "value": "t_struct(Listing)14211_storage"
      },
      "t_struct(Listing)14211_storage": {
        "encoding": "inplace",
        "label": "struct RoomMarketplace.Listing",
        "members": [
          {
            "astId": 14208,
            "contract": "contracts/RoomMarketplace.sol:RoomMarketplace",
            "label": "price",
            "offset": 0,
            "slot": "0",
            "type": "t_uint256"
          },
          {
            "astId": 14210,
            "contract": "contracts/RoomMarketplace.sol:RoomMarketplace",
            "label": "seller",
            "offset": 0,
            "slot": "1",
            "type": "t_address"
          }
        ],
        "numberOfBytes": "64"
      },
      "t_uint256": {
        "encoding": "inplace",
        "label": "uint256",
        "numberOfBytes": "32"
      },
      "t_uint8": {
        "encoding": "inplace",
        "label": "uint8",
        "numberOfBytes": "1"
      }
    }
  }
}