{
  "_format": "hh-sol-artifact-1",
  "contractName": "DaoVerse",
  "sourceName": "contracts/DaoVerse.sol",
  "abi": [
    {
      "inputs": [
        {
          "internalType": "string",
          "name": "_initBaseURI",
          "type": "string"
        }
      ],
      "stateMutability": "nonpayable",
      "type": "constructor"
    },
    {
      "inputs": [],
      "name": "InvalidShortString",
      "type": "error"
    },
    {
      "inputs": [
        {
          "internalType": "string",
          "name": "str",
          "type": "string"
        }
      ],
      "name": "StringTooLong",
      "type": "error"
    },
    {
      "anonymous": false,
      "inputs": [
        {
          "indexed": true,
          "internalType": "address",
          "name": "owner",
          "type": "address"
        },
        {
          "indexed": true,
          "internalType": "address",
          "name": "approved",
          "type": "address"
        },
        {
          "indexed": true,
          "internalType": "uint256",
          "name": "tokenId",
          "type": "uint256"
        }
      ],
      "name": "Approval",
      "type": "event"
    },
    {
      "anonymous": false,
      "inputs": [
        {
          "indexed": true,
          "internalType": "address",
          "name": "owner",
          "type": "address"
        },
        {
          "indexed": true,
          "internalType": "address",
          "name": "operator",
          "type": "address"
        },
        {
          "indexed": false,
          "internalType": "bool",
          "name": "approved",
          "type": "bool"
        }
      ],
      "name": "ApprovalForAll",
      "type": "event"
    },
    {
      "anonymous": false,
      "inputs": [
        {
          "indexed": false,
          "internalType": "uint256",
          "name": "_fromTokenId",
          "type": "uint256"
        },
        {
          "indexed": false,
          "internalType": "uint256",
          "name": "_toTokenId",
          "type": "uint256"
        }
      ],
      "name": "BatchMetadataUpdate",
      "type": "event"
    },
    {
      "anonymous": false,
      "inputs": [
        {
          "indexed": true,
          "internalType": "address",
          "name": "delegator",
          "type": "address"
        },
        {
          "indexed": true,
          "internalType": "address",
          "name": "fromDelegate",
          "type": "address"
        },
        {
          "indexed": true,
          "internalType": "address",
          "name": "toDelegate",
          "type": "address"
        }
      ],
      "name": "DelegateChanged",
      "type": "event"
    },
    {
      "anonymous": false,
      "inputs": [
        {
          "indexed": true,
          "internalType": "address",
          "name": "delegate",
          "type": "address"
        },
        {
          "indexed": false,
          "internalType": "uint256",
          "name": "previousBalance",
          "type": "uint256"
        },
        {
          "indexed": false,
          "internalType": "uint256",
          "name": "newBalance",
          "type": "uint256"
        }
      ],
      "name": "DelegateVotesChanged",
      "type": "event"
    },
    {
      "anonymous": false,
      "inputs": [
        {
          "indexed": false,
          "internalType": "address",
          "name": "owner",
          "type": "address"
        },
        {
          "indexed": false,
          "internalType": "uint256",
          "name": "id",
          "type": "uint256"
        }
      ],
      "name": "DestroyedRoom",
      "type": "event"
    },
    {
      "anonymous": false,
      "inputs": [],
      "name": "EIP712DomainChanged",
      "type": "event"
    },
    {
      "anonymous": false,
      "inputs": [
        {
          "indexed": false,
          "internalType": "uint256",
          "name": "_tokenId",
          "type": "uint256"
        }
      ],
      "name": "MetadataUpdate",
      "type": "event"
    },
    {
      "anonymous": false,
      "inputs": [
        {
          "indexed": true,
          "internalType": "address",
          "name": "owner",
          "type": "address"
        },
        {
          "indexed": true,
          "internalType": "uint256",
          "name": "id",
          "type": "uint256"
        },
        {
          "indexed": false,
          "internalType": "uint32",
          "name": "area",
          "type": "uint32"
        },
        {
          "indexed": false,
          "internalType": "string",
          "name": "name",
          "type": "string"
        }
      ],
      "name": "NewRoom",
      "type": "event"
    },
    {
      "anonymous": false,
      "inputs": [
        {
          "indexed": true,
          "internalType": "address",
          "name": "previousOwner",
          "type": "address"
        },
        {
          "indexed": true,
          "internalType": "address",
          "name": "newOwner",
          "type": "address"
        }
      ],
      "name": "OwnershipTransferred",
      "type": "event"
    },
    {
      "anonymous": false,
      "inputs": [
        {
          "indexed": true,
          "internalType": "address",
          "name": "from",
          "type": "address"
        },
        {
          "indexed": true,
          "internalType": "address",
          "name": "to",
          "type": "address"
        },
        {
          "indexed": true,
          "internalType": "uint256",
          "name": "tokenId",
          "type": "uint256"
        }
      ],
      "name": "Transfer",
      "type": "event"
    },
    {
      "anonymous": false,
      "inputs": [
        {
          "indexed": true,
          "internalType": "uint256",
          "name": "tokenId",
          "type": "uint256"
        },
        {
          "indexed": true,
          "internalType": "address",
          "name": "user",
          "type": "address"
        },
        {
          "indexed": false,
          "internalType": "uint64",
          "name": "expires",
          "type": "uint64"
        }
      ],
      "name": "UpdateUser",
      "type": "event"
    },
    {
      "inputs": [],
      "name": "CLOCK_MODE",
      "outputs": [
        {
          "internalType": "string",
          "name": "",
          "type": "string"
        }
      ],
      "stateMutability": "view",
      "type": "function"
    },
    {
      "inputs": [],
      "name": "DOMAIN_SEPARATOR",
      "outputs": [
        {
          "internalType": "bytes32",
          "name": "",
          "type": "bytes32"
        }
      ],
      "stateMutability": "view",
      "type": "function"
    },
    {
      "inputs": [
        {
          "internalType": "address",
          "name": "to",
          "type": "address"
        },
        {
          "internalType": "uint256",
          "name": "tokenId",
          "type": "uint256"
        }
      ],
      "name": "approve",
      "outputs": [],
      "stateMutability": "nonpayable",
      "type": "function"
    },
    {
      "inputs": [
        {
          "internalType": "address",
          "name": "owner",
          "type": "address"
        }
      ],
      "name": "balanceOf",
      "outputs": [
        {
          "internalType": "uint256",
          "name": "",
          "type": "uint256"
        }
      ],
      "stateMutability": "view",
      "type": "function"
    },
    {
      "inputs": [],
      "name": "baseURI",
      "outputs": [
        {
          "internalType": "string",
          "name": "",
          "type": "string"
        }
      ],
      "stateMutability": "view",
      "type": "function"
    },
    {
      "inputs": [
        {
          "internalType": "uint256",
          "name": "_tokenId",
          "type": "uint256"
        }
      ],
      "name": "burn",
      "outputs": [],
      "stateMutability": "nonpayable",
      "type": "function"
    },
    {
      "inputs": [],
      "name": "clock",
      "outputs": [
        {
          "internalType": "uint48",
          "name": "",
          "type": "uint48"
        }
      ],
      "stateMutability": "view",
      "type": "function"
    },
    {
      "inputs": [
        {
          "internalType": "address",
          "name": "delegatee",
          "type": "address"
        }
      ],
      "name": "delegate",
      "outputs": [],
      "stateMutability": "nonpayable",
      "type": "function"
    },
    {
      "inputs": [
        {
          "internalType": "address",
          "name": "delegatee",
          "type": "address"
        },
        {
          "internalType": "uint256",
          "name": "nonce",
          "type": "uint256"
        },
        {
          "internalType": "uint256",
          "name": "expiry",
          "type": "uint256"
        },
        {
          "internalType": "uint8",
          "name": "v",
          "type": "uint8"
        },
        {
          "internalType": "bytes32",
          "name": "r",
          "type": "bytes32"
        },
        {
          "internalType": "bytes32",
          "name": "s",
          "type": "bytes32"
        }
      ],
      "name": "delegateBySig",
      "outputs": [],
      "stateMutability": "nonpayable",
      "type": "function"
    },
    {
      "inputs": [
        {
          "internalType": "address",
          "name": "account",
          "type": "address"
        }
      ],
      "name": "delegates",
      "outputs": [
        {
          "internalType": "address",
          "name": "",
          "type": "address"
        }
      ],
      "stateMutability": "view",
      "type": "function"
    },
    {
      "inputs": [],
      "name": "eip712Domain",
      "outputs": [
        {
          "internalType": "bytes1",
          "name": "fields",
          "type": "bytes1"
        },
        {
          "internalType": "string",
          "name": "name",
          "type": "string"
        },
        {
          "internalType": "string",
          "name": "version",
          "type": "string"
        },
        {
          "internalType": "uint256",
          "name": "chainId",
          "type": "uint256"
        },
        {
          "internalType": "address",
          "name": "verifyingContract",
          "type": "address"
        },
        {
          "internalType": "bytes32",
          "name": "salt",
          "type": "bytes32"
        },
        {
          "internalType": "uint256[]",
          "name": "extensions",
          "type": "uint256[]"
        }
      ],
      "stateMutability": "view",
      "type": "function"
    },
    {
      "inputs": [
        {
          "internalType": "uint256",
          "name": "tokenId",
          "type": "uint256"
        }
      ],
      "name": "getApproved",
      "outputs": [
        {
          "internalType": "address",
          "name": "",
          "type": "address"
        }
      ],
      "stateMutability": "view",
      "type": "function"
    },
    {
      "inputs": [
        {
          "internalType": "uint256",
          "name": "timepoint",
          "type": "uint256"
        }
      ],
      "name": "getPastTotalSupply",
      "outputs": [
        {
          "internalType": "uint256",
          "name": "",
          "type": "uint256"
        }
      ],
      "stateMutability": "view",
      "type": "function"
    },
    {
      "inputs": [
        {
          "internalType": "address",
          "name": "account",
          "type": "address"
        },
        {
          "internalType": "uint256",
          "name": "timepoint",
          "type": "uint256"
        }
      ],
      "name": "getPastVotes",
      "outputs": [
        {
          "internalType": "uint256",
          "name": "",
          "type": "uint256"
        }
      ],
      "stateMutability": "view",
      "type": "function"
    },
    {
      "inputs": [
        {
          "internalType": "address",
          "name": "account",
          "type": "address"
        }
      ],
      "name": "getVotes",
      "outputs": [
        {
          "internalType": "uint256",
          "name": "",
          "type": "uint256"
        }
      ],
      "stateMutability": "view",
      "type": "function"
    },
    {
      "inputs": [
        {
          "internalType": "address",
          "name": "owner",
          "type": "address"
        },
        {
          "internalType": "address",
          "name": "operator",
          "type": "address"
        }
      ],
      "name": "isApprovedForAll",
      "outputs": [
        {
          "internalType": "bool",
          "name": "",
          "type": "bool"
        }
      ],
      "stateMutability": "view",
      "type": "function"
    },
    {
      "inputs": [
        {
          "internalType": "string",
          "name": "_tokenURI",
          "type": "string"
        },
        {
          "internalType": "uint32",
          "name": "_area",
          "type": "uint32"
        },
        {
          "internalType": "string",
          "name": "_name",
          "type": "string"
        }
      ],
      "name": "mint",
      "outputs": [],
      "stateMutability": "nonpayable",
      "type": "function"
    },
    {
      "inputs": [],
      "name": "name",
      "outputs": [
        {
          "internalType": "string",
          "name": "",
          "type": "string"
        }
      ],
      "stateMutability": "view",
      "type": "function"
    },
    {
      "inputs": [
        {
          "internalType": "address",
          "name": "owner",
          "type": "address"
        }
      ],
      "name": "nonces",
      "outputs": [
        {
          "internalType": "uint256",
          "name": "",
          "type": "uint256"
        }
      ],
      "stateMutability": "view",
      "type": "function"
    },
    {
      "inputs": [],
      "name": "owner",
      "outputs": [
        {
          "internalType": "address",
          "name": "",
          "type": "address"
        }
      ],
      "stateMutability": "view",
      "type": "function"
    },
    {
      "inputs": [
        {
          "internalType": "uint256",
          "name": "tokenId",
          "type": "uint256"
        }
      ],
      "name": "ownerOf",
      "outputs": [
        {
          "internalType": "address",
          "name": "",
          "type": "address"
        }
      ],
      "stateMutability": "view",
      "type": "function"
    },
    {
      "inputs": [],
      "name": "renounceOwnership",
      "outputs": [],
      "stateMutability": "nonpayable",
      "type": "function"
    },
    {
      "inputs": [
        {
          "internalType": "uint256",
          "name": "",
          "type": "uint256"
        }
      ],
      "name": "roomToOwner",
      "outputs": [
        {
          "internalType": "address",
          "name": "",
          "type": "address"
        }
      ],
      "stateMutability": "view",
      "type": "function"
    },
    {
      "inputs": [
        {
          "internalType": "uint256",
          "name": "",
          "type": "uint256"
        }
      ],
      "name": "rooms",
      "outputs": [
        {
          "internalType": "uint256",
          "name": "id",
          "type": "uint256"
        },
        {
          "internalType": "uint32",
          "name": "area",
          "type": "uint32"
        },
        {
          "internalType": "string",
          "name": "name",
          "type": "string"
        }
      ],
      "stateMutability": "view",
      "type": "function"
    },
    {
      "inputs": [
        {
          "internalType": "address",
          "name": "from",
          "type": "address"
        },
        {
          "internalType": "address",
          "name": "to",
          "type": "address"
        },
        {
          "internalType": "uint256",
          "name": "tokenId",
          "type": "uint256"
        }
      ],
      "name": "safeTransferFrom",
      "outputs": [],
      "stateMutability": "nonpayable",
      "type": "function"
    },
    {
      "inputs": [
        {
          "internalType": "address",
          "name": "from",
          "type": "address"
        },
        {
          "internalType": "address",
          "name": "to",
          "type": "address"
        },
        {
          "internalType": "uint256",
          "name": "tokenId",
          "type": "uint256"
        },
        {
          "internalType": "bytes",
          "name": "data",
          "type": "bytes"
        }
      ],
      "name": "safeTransferFrom",
      "outputs": [],
      "stateMutability": "nonpayable",
      "type": "function"
    },
    {
      "inputs": [
        {
          "internalType": "address",
          "name": "operator",
          "type": "address"
        },
        {
          "internalType": "bool",
          "name": "approved",
          "type": "bool"
        }
      ],
      "name": "setApprovalForAll",
      "outputs": [],
      "stateMutability": "nonpayable",
      "type": "function"
    },
    {
      "inputs": [
        {
          "internalType": "string",
          "name": "_newBaseURI",
          "type": "string"
        }
      ],
      "name": "setBaseURI",
      "outputs": [],
      "stateMutability": "nonpayable",
      "type": "function"
    },
    {
      "inputs": [
        {
          "internalType": "uint256",
          "name": "tokenId",
          "type": "uint256"
        },
        {
          "internalType": "address",
          "name": "user",
          "type": "address"
        },
        {
          "internalType": "uint64",
          "name": "expires",
          "type": "uint64"
        }
      ],
      "name": "setUser",
      "outputs": [],
      "stateMutability": "nonpayable",
      "type": "function"
    },
    {
      "inputs": [
        {
          "internalType": "bytes4",
          "name": "interfaceId",
          "type": "bytes4"
        }
      ],
      "name": "supportsInterface",
      "outputs": [
        {
          "internalType": "bool",
          "name": "",
          "type": "bool"
        }
      ],
      "stateMutability": "view",
      "type": "function"
    },
    {
      "inputs": [],
      "name": "symbol",
      "outputs": [
        {
          "internalType": "string",
          "name": "",
          "type": "string"
        }
      ],
      "stateMutability": "view",
      "type": "function"
    },
    {
      "inputs": [
        {
          "internalType": "uint256",
          "name": "tokenId",
          "type": "uint256"
        }
      ],
      "name": "tokenURI",
      "outputs": [
        {
          "internalType": "string",
          "name": "",
          "type": "string"
        }
      ],
      "stateMutability": "view",
      "type": "function"
    },
    {
      "inputs": [
        {
          "internalType": "address",
          "name": "from",
          "type": "address"
        },
        {
          "internalType": "address",
          "name": "to",
          "type": "address"
        },
        {
          "internalType": "uint256",
          "name": "tokenId",
          "type": "uint256"
        }
      ],
      "name": "transferFrom",
      "outputs": [],
      "stateMutability": "nonpayable",
      "type": "function"
    },
    {
      "inputs": [
        {
          "internalType": "address",
          "name": "newOwner",
          "type": "address"
        }
      ],
      "name": "transferOwnership",
      "outputs": [],
      "stateMutability": "nonpayable",
      "type": "function"
    },
    {
      "inputs": [
        {
          "internalType": "uint256",
          "name": "tokenId",
          "type": "uint256"
        }
      ],
      "name": "userExpires",
      "outputs": [
        {
          "internalType": "uint256",
          "name": "",
          "type": "uint256"
        }
      ],
      "stateMutability": "view",
      "type": "function"
    },
    {
      "inputs": [
        {
          "internalType": "uint256",
          "name": "tokenId",
          "type": "uint256"
        }
      ],
      "name": "userOf",
      "outputs": [
        {
          "internalType": "address",
          "name": "",
          "type": "address"
        }
      ],
      "stateMutability": "view",
      "type": "function"
    }
  ],
  "bytecode": "0x61016060405234801561001157600080fd5b50604051613b21380380613b21833981016040819052610030916102ef565b6040518060400160405280600881526020016744616f566572736560c01b81525060405180604001604052806002815260200161464d60f01b81525081604051806040016040528060018152602001603160f81b81525083838160009081610098919061042a565b5060016100a5828261042a565b506100b591508390506007610175565b610120526100c4816008610175565b61014052815160208084019190912060e052815190820120610100524660a05261015160e05161010051604080517f8b73c3c69bb8fe3d512ecc4cf759cc79239f7b179b0ffacaa9a75d522b39400f60208201529081019290925260608201524660808201523060a082015260009060c00160405160208183030381529060405280519060200120905090565b60805250503060c052506101669050336101a8565b61016f816101fa565b5061053f565b60006020835110156101915761018a83610212565b90506101a2565b8161019c848261042a565b5060ff90505b92915050565b600e80546001600160a01b038381166001600160a01b0319831681179093556040519116919082907f8be0079c531659141344cd1fd0a4f28419497f9722a3daafe3b4186f6b6457e090600090a35050565b610202610259565b601061020e828261042a565b5050565b600080829050601f81511115610246578260405163305a27a960e01b815260040161023d91906104e8565b60405180910390fd5b80516102518261051b565b179392505050565b600e546001600160a01b031633146102b35760405162461bcd60e51b815260206004820181905260248201527f4f776e61626c653a2063616c6c6572206973206e6f7420746865206f776e6572604482015260640161023d565b565b634e487b7160e01b600052604160045260246000fd5b60005b838110156102e65781810151838201526020016102ce565b50506000910152565b60006020828403121561030157600080fd5b81516001600160401b0381111561031757600080fd5b8201601f8101841361032857600080fd5b80516001600160401b03811115610341576103416102b5565b604051601f8201601f19908116603f011681016001600160401b038111828210171561036f5761036f6102b5565b60405281815282820160200186101561038757600080fd5b6103988260208301602086016102cb565b95945050505050565b600181811c908216806103b557607f821691505b6020821081036103d557634e487b7160e01b600052602260045260246000fd5b50919050565b601f82111561042557806000526020600020601f840160051c810160208510156104025750805b601f840160051c820191505b81811015610422576000815560010161040e565b50505b505050565b81516001600160401b03811115610443576104436102b5565b6104578161045184546103a1565b846103db565b6020601f82116001811461048b57600083156104735750848201515b600019600385901b1c1916600184901b178455610422565b600084815260208120601f198516915b828110156104bb578785015182556020948501946001909201910161049b565b50848210156104d95786840151600019600387901b60f8161c191681555b50505050600190811b01905550565b60208152600082518060208401526105078160408501602087016102cb565b601f01601f19169190910160400192915050565b805160208083015191908110156103d55760001960209190910360031b1b16919050565b60805160a05160c05160e0516101005161012051610140516135886105996000396000610c0301526000610bd8015260006115730152600061154b015260006114a6015260006114d0015260006114fa01526135886000f3fe608060405234801561001057600080fd5b506004361061021c5760003560e01c8063715018a611610125578063a22cb465116100ad578063c3cda5201161007c578063c3cda520146104e4578063c87b56dd146104f7578063e030565e1461050a578063e985e9c51461051d578063f2fde38b1461055957600080fd5b8063a22cb46514610498578063b2faa342146104ab578063b88d4fde146104be578063c2f1f14a146104d157600080fd5b80638e539e8c116100f45780638e539e8c1461041a5780638fc88c481461042d57806391ddadf41461045e57806395d89b411461047d5780639ab24eb01461048557600080fd5b8063715018a6146103d35780637ecebe00146103db57806384b0196e146103ee5780638da5cb5b1461040957600080fd5b806342966c68116101a85780635c19a95c116101775780635c19a95c146103695780636352211e1461037c5780636c0360eb1461038f5780636ca701151461039757806370a08231146103c057600080fd5b806342966c681461030f5780634bf5d7e91461032257806355f804b31461032a578063587cde1e1461033d57600080fd5b80631bae0ac8116101ef5780631bae0ac81461029e57806323b872dd146102c05780633644e515146102d35780633a46b1a8146102e957806342842e0e146102fc57600080fd5b806301ffc9a71461022157806306fdde0314610249578063081812fc1461025e578063095ea7b314610289575b600080fd5b61023461022f366004612cc4565b61056c565b60405190151581526020015b60405180910390f35b610251610597565b6040516102409190612d31565b61027161026c366004612d44565b610629565b6040516001600160a01b039091168152602001610240565b61029c610297366004612d74565b610650565b005b6102b16102ac366004612d44565b61076a565b60405161024093929190612d9e565b61029c6102ce366004612dcc565b610830565b6102db610861565b604051908152602001610240565b6102db6102f7366004612d74565b610870565b61029c61030a366004612dcc565b610901565b61029c61031d366004612d44565b61091c565b610251610969565b61029c610338366004612eb9565b610a01565b61027161034b366004612eee565b6001600160a01b039081166000908152600960205260409020541690565b61029c610377366004612eee565b610a19565b61027161038a366004612d44565b610a24565b610251610a84565b6102716103a5366004612d44565b6012602052600090815260409020546001600160a01b031681565b6102db6103ce366004612eee565b610b12565b61029c610b98565b6102db6103e9366004612eee565b610bac565b6103f6610bca565b6040516102409796959493929190612f09565b600e546001600160a01b0316610271565b6102db610428366004612d44565b610c53565b6102db61043b366004612d44565b6000908152600d6020526040902054600160a01b900467ffffffffffffffff1690565b610466610ccd565b60405165ffffffffffff9091168152602001610240565b610251610cd8565b6102db610493366004612eee565b610ce7565b61029c6104a6366004612fa1565b610d08565b61029c6104b9366004612fdd565b610d13565b61029c6104cc366004613061565b610e83565b6102716104df366004612d44565b610ebb565b61029c6104f23660046130dd565b610f0b565b610251610505366004612d44565b611038565b61029c61051836600461313d565b611043565b61023461052b36600461318a565b6001600160a01b03918216600090815260056020908152604080832093909416825291909152205460ff1690565b61029c610567366004612eee565b611136565b60006001600160e01b03198216632b424ad760e21b14806105915750610591826111af565b92915050565b6060600080546105a6906131bd565b80601f01602080910402602001604051908101604052809291908181526020018280546105d2906131bd565b801561061f5780601f106105f45761010080835404028352916020019161061f565b820191906000526020600020905b81548152906001019060200180831161060257829003601f168201915b5050505050905090565b6000610634826111d4565b506000908152600460205260409020546001600160a01b031690565b600061065b82610a24565b9050806001600160a01b0316836001600160a01b0316036106cd5760405162461bcd60e51b815260206004820152602160248201527f4552433732313a20617070726f76616c20746f2063757272656e74206f776e656044820152603960f91b60648201526084015b60405180910390fd5b336001600160a01b03821614806106e957506106e9813361052b565b61075b5760405162461bcd60e51b815260206004820152603d60248201527f4552433732313a20617070726f76652063616c6c6572206973206e6f7420746f60448201527f6b656e206f776e6572206f7220617070726f76656420666f7220616c6c00000060648201526084016106c4565b6107658383611233565b505050565b6011818154811061077a57600080fd5b600091825260209091206003909102018054600182015460028301805492945063ffffffff90911692916107ad906131bd565b80601f01602080910402602001604051908101604052809291908181526020018280546107d9906131bd565b80156108265780601f106107fb57610100808354040283529160200191610826565b820191906000526020600020905b81548152906001019060200180831161080957829003601f168201915b5050505050905083565b61083a33826112a1565b6108565760405162461bcd60e51b81526004016106c4906131f1565b610765838383611320565b600061086b611499565b905090565b600061087a610ccd565b65ffffffffffff1682106108c75760405162461bcd60e51b81526020600482015260146024820152730566f7465733a20667574757265206c6f6f6b75760641b60448201526064016106c4565b6108f16108d3836115c4565b6001600160a01b0385166000908152600a602052604090209061162d565b6001600160e01b03169392505050565b61076583838360405180602001604052806000815250610e83565b6109246116e2565b61092d8161173c565b60408051338152602081018390527f968b506a2f7cac8b9ef9c4c112f804a654c143b8c994bc6be26531b93aac6557910160405180910390a150565b606043610974610ccd565b65ffffffffffff16146109c95760405162461bcd60e51b815260206004820152601860248201527f566f7465733a2062726f6b656e20636c6f636b206d6f6465000000000000000060448201526064016106c4565b5060408051808201909152601d81527f6d6f64653d626c6f636b6e756d6265722666726f6d3d64656661756c74000000602082015290565b610a096116e2565b6010610a15828261328c565b5050565b33610a158183611745565b6000818152600260205260408120546001600160a01b0316806105915760405162461bcd60e51b8152602060048201526018602482015277115490cdcc8c4e881a5b9d985b1a59081d1bdad95b88125160421b60448201526064016106c4565b60108054610a91906131bd565b80601f0160208091040260200160405190810160405280929190818152602001828054610abd906131bd565b8015610b0a5780601f10610adf57610100808354040283529160200191610b0a565b820191906000526020600020905b815481529060010190602001808311610aed57829003601f168201915b505050505081565b60006001600160a01b038216610b7c5760405162461bcd60e51b815260206004820152602960248201527f4552433732313a2061646472657373207a65726f206973206e6f7420612076616044820152683634b21037bbb732b960b91b60648201526084016106c4565b506001600160a01b031660009081526003602052604090205490565b610ba06116e2565b610baa60006117b7565b565b6001600160a01b0381166000908152600c6020526040812054610591565b600060608082808083610bfe7f00000000000000000000000000000000000000000000000000000000000000006007611809565b610c297f00000000000000000000000000000000000000000000000000000000000000006008611809565b60408051600080825260208201909252600f60f81b9b939a50919850469750309650945092509050565b6000610c5d610ccd565b65ffffffffffff168210610caa5760405162461bcd60e51b81526020600482015260146024820152730566f7465733a20667574757265206c6f6f6b75760641b60448201526064016106c4565b610cbe610cb6836115c4565b600b9061162d565b6001600160e01b031692915050565b600061086b436118b4565b6060600180546105a6906131bd565b6001600160a01b0381166000908152600a60205260408120610cbe9061191b565b610a15338383611956565b610d1b6116e2565b6000610d26600f5490565b9050610d36600f80546001019055565b6040805160608101825282815263ffffffff858116602083019081529282018581526011805460018101825560009190915283517f31ecc21a745e3968a04e9570e4425bc18fa8019c68028196b546d1669c200c68600390920291820190815594517f31ecc21a745e3968a04e9570e4425bc18fa8019c68028196b546d1669c200c698201805463ffffffff19169190941617909255519192839290917f31ecc21a745e3968a04e9570e4425bc18fa8019c68028196b546d1669c200c6a0190610e00908261328c565b505050600082815260126020526040902080546001600160a01b03191633908117909155610e2e9083611a24565b610e388286611a3e565b81336001600160a01b03167f174f5f2d02c363a4962afa0eacd1e415b6be594fe6f5110712f1481f27cc52b78686604051610e7492919061334b565b60405180910390a35050505050565b610e8d33836112a1565b610ea95760405162461bcd60e51b81526004016106c4906131f1565b610eb584848484611b09565b50505050565b6000818152600d602052604081205442600160a01b90910467ffffffffffffffff1610610efe57506000908152600d60205260409020546001600160a01b031690565b506000919050565b919050565b83421115610f5b5760405162461bcd60e51b815260206004820152601860248201527f566f7465733a207369676e61747572652065787069726564000000000000000060448201526064016106c4565b604080517fe48329057bfd03d55e49b547132e39cffd9c1820ad7b9d4c5307691425d15adf60208201526001600160a01b038816918101919091526060810186905260808101859052600090610fd590610fcd9060a00160405160208183030381529060405280519060200120611b3c565b858585611b69565b9050610fe081611b91565b86146110255760405162461bcd60e51b8152602060048201526014602482015273566f7465733a20696e76616c6964206e6f6e636560601b60448201526064016106c4565b61102f8188611745565b50505050505050565b606061059182611bb9565b61104d33846112a1565b6110b45760405162461bcd60e51b815260206004820152603260248201527f455243343930373a207472616e736665722063616c6c6572206973206e6f74206044820152711bdddb995c881b9bdc88185c1c1c9bdd995960721b60648201526084016106c4565b6000838152600d602090815260409182902080546001600160a01b0386166001600160e01b03199091168117600160a01b67ffffffffffffffff871690810291909117835593519384529092909186917f4e06b4e7000e659094299b3533b47b6aa8ad048e95e872d23d1f4ee55af89cfe91015b60405180910390a350505050565b61113e6116e2565b6001600160a01b0381166111a35760405162461bcd60e51b815260206004820152602660248201527f4f776e61626c653a206e6577206f776e657220697320746865207a65726f206160448201526564647265737360d01b60648201526084016106c4565b6111ac816117b7565b50565b60006001600160e01b03198216632483248360e11b1480610591575061059182611cd4565b6000818152600260205260409020546001600160a01b03166111ac5760405162461bcd60e51b8152602060048201526018602482015277115490cdcc8c4e881a5b9d985b1a59081d1bdad95b88125160421b60448201526064016106c4565b600081815260046020526040902080546001600160a01b0319166001600160a01b038416908117909155819061126882610a24565b6001600160a01b03167f8c5be1e5ebec7d5bd14f71427d1e84f3dd0314c0f7b2291e5b200ac8c7c3b92560405160405180910390a45050565b6000806112ad83610a24565b9050806001600160a01b0316846001600160a01b031614806112f457506001600160a01b0380821660009081526005602090815260408083209388168352929052205460ff165b806113185750836001600160a01b031661130d84610629565b6001600160a01b0316145b949350505050565b826001600160a01b031661133382610a24565b6001600160a01b0316146113595760405162461bcd60e51b81526004016106c49061336a565b6001600160a01b0382166113bb5760405162461bcd60e51b8152602060048201526024808201527f4552433732313a207472616e7366657220746f20746865207a65726f206164646044820152637265737360e01b60648201526084016106c4565b6113c88383836001611d24565b826001600160a01b03166113db82610a24565b6001600160a01b0316146114015760405162461bcd60e51b81526004016106c49061336a565b600081815260046020908152604080832080546001600160a01b03199081169091556001600160a01b0387811680865260038552838620805460001901905590871680865283862080546001019055868652600290945282852080549092168417909155905184937fddf252ad1be2c89b69c2b068fc378daa952ba7f163c4a11628f55a4df523b3ef91a46107658383836001611dae565b6000306001600160a01b037f0000000000000000000000000000000000000000000000000000000000000000161480156114f257507f000000000000000000000000000000000000000000000000000000000000000046145b1561151c57507f000000000000000000000000000000000000000000000000000000000000000090565b61086b604080517f8b73c3c69bb8fe3d512ecc4cf759cc79239f7b179b0ffacaa9a75d522b39400f60208201527f0000000000000000000000000000000000000000000000000000000000000000918101919091527f000000000000000000000000000000000000000000000000000000000000000060608201524660808201523060a082015260009060c00160405160208183030381529060405280519060200120905090565b600063ffffffff8211156116295760405162461bcd60e51b815260206004820152602660248201527f53616665436173743a2076616c756520646f65736e27742066697420696e203360448201526532206269747360d01b60648201526084016106c4565b5090565b81546000908181600581111561168a57600061164884611dba565b61165290856133c5565b60008881526020902090915081015463ffffffff908116908716101561167a57809150611688565b6116858160016133d8565b92505b505b600061169887878585611ea2565b905080156116d4576116bd876116af6001846133c5565b600091825260209091200190565b5464010000000090046001600160e01b03166116d7565b60005b979650505050505050565b600e546001600160a01b03163314610baa5760405162461bcd60e51b815260206004820181905260248201527f4f776e61626c653a2063616c6c6572206973206e6f7420746865206f776e657260448201526064016106c4565b6111ac81611f00565b6001600160a01b0382811660008181526009602052604080822080548686166001600160a01b0319821681179092559151919094169392849290917f3134e8a2e6d97e929a7e54011ea5485d7d196dd5f0ba4d4ef95803e8e3fc257f9190a461076581836117b286611f40565b611f4b565b600e80546001600160a01b038381166001600160a01b0319831681179093556040519116919082907f8be0079c531659141344cd1fd0a4f28419497f9722a3daafe3b4186f6b6457e090600090a35050565b606060ff83146118235761181c836120b7565b9050610591565b81805461182f906131bd565b80601f016020809104026020016040519081016040528092919081815260200182805461185b906131bd565b80156118a85780601f1061187d576101008083540402835291602001916118a8565b820191906000526020600020905b81548152906001019060200180831161188b57829003601f168201915b50505050509050610591565b600065ffffffffffff8211156116295760405162461bcd60e51b815260206004820152602660248201527f53616665436173743a2076616c756520646f65736e27742066697420696e203460448201526538206269747360d01b60648201526084016106c4565b8054600090801561194c57611935836116af6001846133c5565b5464010000000090046001600160e01b031661194f565b60005b9392505050565b816001600160a01b0316836001600160a01b0316036119b75760405162461bcd60e51b815260206004820152601960248201527f4552433732313a20617070726f766520746f2063616c6c65720000000000000060448201526064016106c4565b6001600160a01b03838116600081815260056020908152604080832094871680845294825291829020805460ff191686151590811790915591519182527f17307eab39ab6107e8899845ad3d59bd9653f200f220920489ca2b5937696c31910160405180910390a3505050565b610a158282604051806020016040528060008152506120f6565b6000828152600260205260409020546001600160a01b0316611ab95760405162461bcd60e51b815260206004820152602e60248201527f45524337323155524953746f726167653a2055524920736574206f66206e6f6e60448201526d32bc34b9ba32b73a103a37b5b2b760911b60648201526084016106c4565b6000828152600660205260409020611ad1828261328c565b506040518281527ff8e1a15aba9398e019f0b49df1a4fde98ee17ae345cb5f6b5e2c27f5033e8ce79060200160405180910390a15050565b611b14848484611320565b611b2084848484612129565b610eb55760405162461bcd60e51b81526004016106c4906133eb565b6000610591611b49611499565b8360405161190160f01b8152600281019290925260228201526042902090565b6000806000611b7a87878787612227565b91509150611b87816122eb565b5095945050505050565b6001600160a01b0381166000908152600c602052604090208054600181018255905b50919050565b6060611bc4826111d4565b60008281526006602052604081208054611bdd906131bd565b80601f0160208091040260200160405190810160405280929190818152602001828054611c09906131bd565b8015611c565780601f10611c2b57610100808354040283529160200191611c56565b820191906000526020600020905b815481529060010190602001808311611c3957829003601f168201915b505050505090506000611c8760408051808201909152600b81526a1a5c199cce8bcbdd195cdd60aa1b602082015290565b90508051600003611c99575092915050565b815115611ccb578082604051602001611cb392919061343d565b60405160208183030381529060405292505050919050565b61131884612435565b60006001600160e01b031982166380ac58cd60e01b1480611d0557506001600160e01b03198216635b5e139f60e01b145b8061059157506301ffc9a760e01b6001600160e01b0319831614610591565b826001600160a01b0316846001600160a01b031614158015611d5c57506000828152600d60205260409020546001600160a01b031615155b15610eb5576000828152600d6020908152604080832080546001600160e01b03191690555182815284917f4e06b4e7000e659094299b3533b47b6aa8ad048e95e872d23d1f4ee55af89cfe9101611128565b610eb5848484846124bb565b600081600003611dcc57506000919050565b60006001611dd9846124cb565b901c6001901b90506001818481611df257611df261346c565b048201901c90506001818481611e0a57611e0a61346c565b048201901c90506001818481611e2257611e2261346c565b048201901c90506001818481611e3a57611e3a61346c565b048201901c90506001818481611e5257611e5261346c565b048201901c90506001818481611e6a57611e6a61346c565b048201901c90506001818481611e8257611e8261346c565b048201901c905061194f81828581611e9c57611e9c61346c565b0461255f565b60005b81831015611ef8576000611eb98484612575565b60008781526020902090915063ffffffff86169082015463ffffffff161115611ee457809250611ef2565b611eef8160016133d8565b93505b50611ea5565b509392505050565b611f0981612590565b60008181526006602052604090208054611f22906131bd565b1590506111ac5760008181526006602052604081206111ac91612c64565b600061059182610b12565b816001600160a01b0316836001600160a01b031614158015611f6d5750600081115b15610765576001600160a01b03831615612015576001600160a01b0383166000908152600a602052604081208190611fb09061263d611fab86612649565b6126b2565b6001600160e01b031691506001600160e01b03169150846001600160a01b03167fdec2bacdd2f05b59de34da9b523dff8be42e5e38e818c82fdb0bae774387a724838360405161200a929190918252602082015260400190565b60405180910390a250505b6001600160a01b03821615610765576001600160a01b0382166000908152600a60205260408120819061204e906126fb611fab86612649565b6001600160e01b031691506001600160e01b03169150836001600160a01b03167fdec2bacdd2f05b59de34da9b523dff8be42e5e38e818c82fdb0bae774387a72483836040516120a8929190918252602082015260400190565b60405180910390a25050505050565b606060006120c483612707565b604080516020808252818301909252919250600091906020820181803683375050509182525060208101929092525090565b612100838361272f565b61210d6000848484612129565b6107655760405162461bcd60e51b81526004016106c4906133eb565b60006001600160a01b0384163b1561221f57604051630a85bd0160e11b81526001600160a01b0385169063150b7a029061216d903390899088908890600401613482565b6020604051808303816000875af19250505080156121a8575060408051601f3d908101601f191682019092526121a5918101906134bf565b60015b612205573d8080156121d6576040519150601f19603f3d011682016040523d82523d6000602084013e6121db565b606091505b5080516000036121fd5760405162461bcd60e51b81526004016106c4906133eb565b805181602001fd5b6001600160e01b031916630a85bd0160e11b149050611318565b506001611318565b6000807f7fffffffffffffffffffffffffffffff5d576e7357a4501ddfe92f46681b20a083111561225e57506000905060036122e2565b6040805160008082526020820180845289905260ff881692820192909252606081018690526080810185905260019060a0016020604051602081039080840390855afa1580156122b2573d6000803e3d6000fd5b5050604051601f1901519150506001600160a01b0381166122db576000600192509250506122e2565b9150600090505b94509492505050565b60008160048111156122ff576122ff6134dc565b036123075750565b600181600481111561231b5761231b6134dc565b036123685760405162461bcd60e51b815260206004820152601860248201527f45434453413a20696e76616c6964207369676e6174757265000000000000000060448201526064016106c4565b600281600481111561237c5761237c6134dc565b036123c95760405162461bcd60e51b815260206004820152601f60248201527f45434453413a20696e76616c6964207369676e6174757265206c656e6774680060448201526064016106c4565b60038160048111156123dd576123dd6134dc565b036111ac5760405162461bcd60e51b815260206004820152602260248201527f45434453413a20696e76616c6964207369676e6174757265202773272076616c604482015261756560f01b60648201526084016106c4565b6060612440826111d4565b600061246a60408051808201909152600b81526a1a5c199cce8bcbdd195cdd60aa1b602082015290565b9050600081511161248a576040518060200160405280600081525061194f565b80612494846128d2565b6040516020016124a592919061343d565b6040516020818303038152906040529392505050565b6124c6848483612965565b610eb5565b600080608083901c156124e057608092831c92015b604083901c156124f257604092831c92015b602083901c1561250457602092831c92015b601083901c1561251657601092831c92015b600883901c1561252857600892831c92015b600483901c1561253a57600492831c92015b600283901c1561254c57600292831c92015b600183901c156105915760010192915050565b600081831061256e578161194f565b5090919050565b600061258460028484186134f2565b61194f908484166133d8565b600061259b82610a24565b90506125ab816000846001611d24565b6125b482610a24565b600083815260046020908152604080832080546001600160a01b03199081169091556001600160a01b0385168085526003845282852080546000190190558785526002909352818420805490911690555192935084927fddf252ad1be2c89b69c2b068fc378daa952ba7f163c4a11628f55a4df523b3ef908390a4610a15816000846001611dae565b600061194f8284613514565b60006001600160e01b038211156116295760405162461bcd60e51b815260206004820152602760248201527f53616665436173743a2076616c756520646f65736e27742066697420696e20326044820152663234206269747360c81b60648201526084016106c4565b6000806126ee6126d06126c3610ccd565b65ffffffffffff166115c4565b6126e66126dc8861191b565b868863ffffffff16565b8791906129db565b915091505b935093915050565b600061194f8284613533565b600060ff8216601f81111561059157604051632cd44ac360e21b815260040160405180910390fd5b6001600160a01b0382166127855760405162461bcd60e51b815260206004820181905260248201527f4552433732313a206d696e7420746f20746865207a65726f206164647265737360448201526064016106c4565b6000818152600260205260409020546001600160a01b0316156127ea5760405162461bcd60e51b815260206004820152601c60248201527f4552433732313a20746f6b656e20616c7265616479206d696e7465640000000060448201526064016106c4565b6127f8600083836001611d24565b6000818152600260205260409020546001600160a01b03161561285d5760405162461bcd60e51b815260206004820152601c60248201527f4552433732313a20746f6b656e20616c7265616479206d696e7465640000000060448201526064016106c4565b6001600160a01b038216600081815260036020908152604080832080546001019055848352600290915280822080546001600160a01b0319168417905551839291907fddf252ad1be2c89b69c2b068fc378daa952ba7f163c4a11628f55a4df523b3ef908290a4610a15600083836001611dae565b606060006128df836129e9565b600101905060008167ffffffffffffffff8111156128ff576128ff612e09565b6040519080825280601f01601f191660200182016040528015612929576020820181803683370190505b5090508181016020015b600019016f181899199a1a9b1b9c1cb0b131b232b360811b600a86061a8153600a850494508461293357509392505050565b6001600160a01b03831661298757612984600b6126fb611fab84612649565b50505b6001600160a01b0382166129a9576129a6600b61263d611fab84612649565b50505b6001600160a01b0383811660009081526009602052604080822054858416835291205461076592918216911683611f4b565b6000806126ee858585612ac1565b60008072184f03e93ff9f4daa797ed6e38ed64bf6a1f0160401b8310612a285772184f03e93ff9f4daa797ed6e38ed64bf6a1f0160401b830492506040015b6d04ee2d6d415b85acef81000000008310612a54576d04ee2d6d415b85acef8100000000830492506020015b662386f26fc100008310612a7257662386f26fc10000830492506010015b6305f5e1008310612a8a576305f5e100830492506008015b6127108310612a9e57612710830492506004015b60648310612ab0576064830492506002015b600a83106105915760010192915050565b825460009081908015612c0a576000612adf876116af6001856133c5565b60408051808201909152905463ffffffff8082168084526401000000009092046001600160e01b031660208401529192509087161015612b615760405162461bcd60e51b815260206004820152601b60248201527f436865636b706f696e743a2064656372656173696e67206b657973000000000060448201526064016106c4565b805163ffffffff808816911603612baa5784612b82886116af6001866133c5565b80546001600160e01b03929092166401000000000263ffffffff909216919091179055612bfa565b6040805180820190915263ffffffff80881682526001600160e01b0380881660208085019182528b54600181018d5560008d81529190912094519151909216640100000000029216919091179101555b6020015192508391506126f39050565b50506040805180820190915263ffffffff80851682526001600160e01b0380851660208085019182528854600181018a5560008a8152918220955192519093166401000000000291909316179201919091559050816126f3565b508054612c70906131bd565b6000825580601f10612c80575050565b601f0160209004906000526020600020908101906111ac91905b808211156116295760008155600101612c9a565b6001600160e01b0319811681146111ac57600080fd5b600060208284031215612cd657600080fd5b813561194f81612cae565b60005b83811015612cfc578181015183820152602001612ce4565b50506000910152565b60008151808452612d1d816020860160208601612ce1565b601f01601f19169290920160200192915050565b60208152600061194f6020830184612d05565b600060208284031215612d5657600080fd5b5035919050565b80356001600160a01b0381168114610f0657600080fd5b60008060408385031215612d8757600080fd5b612d9083612d5d565b946020939093013593505050565b83815263ffffffff83166020820152606060408201526000612dc36060830184612d05565b95945050505050565b600080600060608486031215612de157600080fd5b612dea84612d5d565b9250612df860208501612d5d565b929592945050506040919091013590565b634e487b7160e01b600052604160045260246000fd5b60008067ffffffffffffffff841115612e3a57612e3a612e09565b50604051601f19601f85018116603f0116810181811067ffffffffffffffff82111715612e6957612e69612e09565b604052838152905080828401851015612e8157600080fd5b83836020830137600060208583010152509392505050565b600082601f830112612eaa57600080fd5b61194f83833560208501612e1f565b600060208284031215612ecb57600080fd5b813567ffffffffffffffff811115612ee257600080fd5b61131884828501612e99565b600060208284031215612f0057600080fd5b61194f82612d5d565b60ff60f81b8816815260e060208201526000612f2860e0830189612d05565b8281036040840152612f3a8189612d05565b606084018890526001600160a01b038716608085015260a0840186905283810360c08501528451808252602080870193509091019060005b81811015612f90578351835260209384019390920191600101612f72565b50909b9a5050505050505050505050565b60008060408385031215612fb457600080fd5b612fbd83612d5d565b915060208301358015158114612fd257600080fd5b809150509250929050565b600080600060608486031215612ff257600080fd5b833567ffffffffffffffff81111561300957600080fd5b61301586828701612e99565b935050602084013563ffffffff8116811461302f57600080fd5b9150604084013567ffffffffffffffff81111561304b57600080fd5b61305786828701612e99565b9150509250925092565b6000806000806080858703121561307757600080fd5b61308085612d5d565b935061308e60208601612d5d565b925060408501359150606085013567ffffffffffffffff8111156130b157600080fd5b8501601f810187136130c257600080fd5b6130d187823560208401612e1f565b91505092959194509250565b60008060008060008060c087890312156130f657600080fd5b6130ff87612d5d565b95506020870135945060408701359350606087013560ff8116811461312357600080fd5b9598949750929560808101359460a0909101359350915050565b60008060006060848603121561315257600080fd5b8335925061316260208501612d5d565b9150604084013567ffffffffffffffff8116811461317f57600080fd5b809150509250925092565b6000806040838503121561319d57600080fd5b6131a683612d5d565b91506131b460208401612d5d565b90509250929050565b600181811c908216806131d157607f821691505b602082108103611bb357634e487b7160e01b600052602260045260246000fd5b6020808252602d908201527f4552433732313a2063616c6c6572206973206e6f7420746f6b656e206f776e6560408201526c1c881bdc88185c1c1c9bdd9959609a1b606082015260800190565b601f82111561076557806000526020600020601f840160051c810160208510156132655750805b601f840160051c820191505b818110156132855760008155600101613271565b5050505050565b815167ffffffffffffffff8111156132a6576132a6612e09565b6132ba816132b484546131bd565b8461323e565b6020601f8211600181146132ee57600083156132d65750848201515b600019600385901b1c1916600184901b178455613285565b600084815260208120601f198516915b8281101561331e57878501518255602094850194600190920191016132fe565b508482101561333c5786840151600019600387901b60f8161c191681555b50505050600190811b01905550565b63ffffffff831681526040602082015260006113186040830184612d05565b60208082526025908201527f4552433732313a207472616e736665722066726f6d20696e636f72726563742060408201526437bbb732b960d91b606082015260800190565b634e487b7160e01b600052601160045260246000fd5b81810381811115610591576105916133af565b80820180821115610591576105916133af565b60208082526032908201527f4552433732313a207472616e7366657220746f206e6f6e20455243373231526560408201527131b2b4bb32b91034b6b83632b6b2b73a32b960711b606082015260800190565b6000835161344f818460208801612ce1565b835190830190613463818360208801612ce1565b01949350505050565b634e487b7160e01b600052601260045260246000fd5b6001600160a01b03858116825284166020820152604081018390526080606082018190526000906134b590830184612d05565b9695505050505050565b6000602082840312156134d157600080fd5b815161194f81612cae565b634e487b7160e01b600052602160045260246000fd5b60008261350f57634e487b7160e01b600052601260045260246000fd5b500490565b6001600160e01b038281168282160390811115610591576105916133af565b6001600160e01b038181168382160190811115610591576105916133af56fea2646970667358221220b4ea985c7d104bcfcada6dbef9369d4675c12d4dd0b9c17d6abed3e96b614c1e64736f6c634300081c0033",
  "linkReferences": {},
  "deployedLinkReferences": {}
}